:020000040800F2
:1010000030270020156300087D5F00087F5F00081F
:10101000496300084D6300085163000800000000A8
:10102000000000000000000000000000815F0008D8
:101030005963000800000000835F0008855F000816
:1010400065630008696300086D6300087163000848
:1010500075630008796300087D63000881630008F8
:1010600085630008896300088D63000891630008A8
:1010700095630008996300089D630008A163000858
:10108000A5630008A9630008975F0008B163000822
:1010900045600008B9630008BD630008C16300082B
:1010A000C5630008C9630008CD630008D163000868
:1010B000D5630008D9630008DD630008E163000818
:1010C000E5630008E9630008ED630008F1630008C8
:1010D000F5630008C15F0008ED5F000819600008B3
:1010E00005640008096400080D64000810B5DFF805
:1010F0007448002804D1012021680882002010BD16
:10110000DFF8640800680068804720680A3010BD76
:1011100080B5DFF850080068C178DFF850285278B1
:101120008A420DD38278002A0AD18288002A07D108
:101130008172DFF83408006840688047002002BDF3
:10114000022002BD10B5DFF81C48002804D10120A0
:1011500021680882002010BDDFF80C080068806854
:10116000804720680C3010BD10B5DFF8F8472068C4
:10117000C1784079DFF8F8271268926990472168B2
:101180008A7A002A14D0002812D1087900280FD1B9
:10119000887800280CD1DFF8D0070068C068804745
:1011A00020684179C1722068C1780173002010BDA8
:1011B000022010BD10B5DFF8AC170968002803D174
:1011C00002200882002010BDDFF8A8470020208000
:1011D00008787F2210421AD1487A002102469206EE
:1011E00003D541F00201217000E021702178400612
:1011F00009D541F001002070DFF86C070068006934
:101200008047204610BD01F0FE002070F4E700F09A
:101210007F02012A01D1204610BD00F07F00022884
:101220001BD1487900F00F01DFF84C27000652F877
:10123000210008D500F030001028DDD1002040F05A
:1012400001002070D8E700F44050B0F5805FD3D1A2
:10125000002040F001002070CEE7002010BDF8B55E
:10126000DFF800070068017811F07F0105D1417AAD
:1012700001F0DF0141720020F2BD022958D14188FE
:10128000002955D10179002952D1417921F08005F9
:10129000DFF8E4460A0654F8252002D502F03002B1
:1012A00001E002F44052DFF8C4361B789D423FD281
:1012B000002A3DD0807A00283AD0080654F825004C
:1012C0000BD500F0300010282BD1284600F008FC88
:1012D0003021284600F094FB23E000F44050B0F5A4
:1012E000805F1ED148F280064BF68F77002D0DD11E
:1012F000DFF8880690F82C10002000F03CFC2068F5
:10130000384080F44050304320600AE0284600F026
:10131000D5FB54F82500384080F44050304344F861
:101320002500DFF844060068406980470020F2BDD0
:101330000220F2BD38B5DFF82C060268537923F09D
:101340008000DFF834161C0651F8204002D504F066
:10135000300401E004F44054DFF810562D78A84220
:1013600007D25588002D04D1002C02D0927A002A91
:1013700001D1022032BD48F280021B0651F8203014
:1013800008D548F6BF74234083F010031A4341F890
:10139000202007E04BF68F74234083F480531A43D8
:1013A00041F82020DFF8C0050068806980470020F0
:1013B00032BD80B5DFF8AC050068417A41F020010C
:1013C0004172DFF8A4050068C0698047002002BDB3
:1013D000DFF890251268538A002804D18888C01A43
:1013E000108200207047086818187047F8B5DFF8B9
:1013F0007445206800F110052E88A968080016D0F1
:10140000002E14D0A888864200D906463046884768
:1014100007462888801B288068883018688000204C
:1014200000F096FB32460146384600F0F7FB28886C
:1014300000280CD04FF44050DFF8441508800021FC
:10144000084600F08FFB3020DFF838150880288828
:10145000A988884203D3032021680872F1BD0028BF
:1014600003D0052021680872F1BD20D10620216833
:101470000872DFF8FC04006880688047DFF8040524
:101480002168097A082907D14FF48051DFF8F02448
:10149000118010210180F1BD0021DFF8EC241268D9
:1014A00092B2DFF8E83443F8121030210180F1BD28
:1014B0002DE9F041DFF8AC44206800F110063788D0
:1014C000002F1CD1007A042819D1DFF8B804DFF806
:1014D000C0140A78012A0ED10022DFF8AC341B6850
:1014E0009BB2DFF8A85445F813203022028004256F
:1014F000002008702BE007251021018027E0B0882C
:10150000B84201D3042500E00225874200D90746EE
:101510003846B16888478046002000F00DFB3A4607
:101520000146404600F064FB3946002000F01AFBFB
:101530003088C01B30807088381870803020DFF809
:10154000441408804FF44050DFF8341408802068B9
:101550000572BDE8F08138B50220DFF80844216843
:101560004D780A787F231A4233D1092D02D1FFF733
:10157000CFFD42E0052D0FD1C878802808DA8878A1
:10158000002805D18888002802D1887A002801D057
:10159000082050E0002030E0032D08D1CA78012A4D
:1015A0002BD18988002928D1FFF703FF25E0012DE1
:1015B00023D1CA78012A20D18A88002A1DD1497AEC
:1015C00089061AD50020DFF8CC130860FFF747FE24
:1015D00013E002F07F01012904D10B2D0DD1FFF79B
:1015E000C3FD0AE0022908D1012D02D1FFF737FE21
:1015F00003E0032D01D1FFF79DFE002809D0284606
:10160000DFF86C13096849698847032801D109206C
:1016100011E0002801D008200DE006200021DFF8AD
:101620006823126892B2DFF8643343F81210302155
:10163000DFF8502311802168087231BD38B5DFF81A
:101640002443206841780025062916D101787F229D
:10165000114279D18078012803D1C5480068C56955
:1016600072E0022803D1C2480068056A6CE00328D2
:101670006AD1BF480068456A66E0002940D14288C7
:10168000002A3DD1C288022A3AD10279002A37D1F4
:1016900001787F22114204D18288002A01D1BE4DF7
:1016A00052E001F07F02012A0DD129464079B04A6B
:1016B000126892699047002846D12068807A0028F5
:1016C00042D0B54D40E001F07F0102293CD1407984
:1016D00000F00F0100F07002A74B000653F8210044
:1016E00002D500F0300001E000F440509F4B1B7821
:1016F000994229D2002A27D1002825D0A64D23E0DF
:10170000082905D100787F2108421DD1A34D1BE097
:101710000A2919D1017801F07F01012914D1817AB8
:10172000002911D0418800290ED1017900290BD15F
:10173000C188012908D1294640798D4A12689269E9
:101740009047002800D1964D2068290007D000213D
:101750004182206885610846A847002006E040785D
:101760008349096809698847032806D023681A8ACB
:1017700011464FF6FF75A94203D10920216808726E
:1017800031BD022801D0002A02D10820187231BDD3
:101790001878000626D5D8880090009D954202D280
:1017A0000098188215E0824213D27148006890F8C0
:1017B0002C0003469A4203D200207549087008E0C5
:1017C00091FBF0F200FB1210002802D101207049B9
:1017D00008706748006890F82C0021688882BDE88E
:1017E000314065E6032018724FF440506449088088
:1017F00031BD38B56448006880B26A4931F81000DC
:10180000400000F1804505F5C045564C2068017A3E
:10181000092917D015F8011B017015F8010B216873
:101820004870AD1C35F8020B00F0DCF921684880E7
:10183000AD1C35F8020B00F0D5F921688880688866
:101840002168C8800120216808722068C0880028AB
:1018500002D1FFF780FE01E0FFF7F0FEBDE8314066
:1018600048E010B53F4C2068017A022901D00429D4
:1018700004D1FFF71DFE2068007A16E0062913D177
:10188000417805290AD101787F22114206D1C0781A
:1018900000F04AF834480068006A8047344800681D
:1018A00080688047082000E0082021680872BDE8B1
:1018B00010401FE010B52B4C2068007A022801D0A0
:1018C000042801D1082011E0032801D0052804D103
:1018D000FFF78CFD2068007A08E0072805D124482E
:1018E0000068C0688047082000E00820216808726E
:1018F000BDE8104080B5214890F82C10002000F081
:101900003AF918480068017A082906D14FF4805145
:101910001B4A118010211B4A1180007A092801D12D
:10192000012002BD002002BD70B4104909780022D8
:10193000114C48F68F760CE01346DBB254F8235076
:1019400035401D4345F4004545F0800544F82350DB
:10195000521C8A42F0D340F080001349086070BCEA
:1019600070470000BC1D0020C41D00207806002028
:10197000C01D0020141F0020005C00402C0500202A
:10198000E21E0020E41E0020505C00400460004085
:101990002B1F0020181F0020B5110008ED100008B3
:1019A00045110008086000404C5C0040704750F84A
:1019B000041B61B150F8042BD30744BFA9F1010304
:1019C0009A180023091F42F8043BFAD1EFE7704749
:1019D000DFF8F411086070474FF6F8710840DFF83F
:1019E000EC110860704710B4DFF8E42152F82030A1
:1019F00048F68F142340194342F8201010BC70475A
:101A000010B4DFF8CC2152F8203048F6BF742340E0
:101A1000CC0601D583F01003890601D583F020039D
:101A200043F4004141F0800142F8201010BC70479F
:101A300010B4DFF89C2152F820304BF68F7423400D
:101A4000CC0401D583F48053890401D583F4005379
:101A500043F4004141F0800142F8201010BC70476F
:101A6000DFF86C1151F8202048F6BF731A4082F05D
:101A7000300242F4004242F0800241F820207047D8
:101A8000DFF84C1151F820204BF68F731A4082F486
:101A9000405242F4004242F0800241F82020704758
:101AA000DFF82C1151F8202048F68F631A4042F4D9
:101AB000004242F0800241F820207047DFF8101108
:101AC00051F8202052040AD551F8202048F68F738F
:101AD0001A4042F4404242F0800241F82020704710
:101AE000DFF8EC1051F8202052060AD551F82020DA
:101AF00048F68F731A4042F4004242F0C00241F8A7
:101B000020207047DFF8C420126892B202EBC000B8
:101B1000DFF8C0204908490042F810107047DFF88C
:101B2000AC20126892B202EBC000DFF8AC2049088A
:101B3000490042F810107047DFF89010096889B228
:101B400001EBC000DFF88C1051F8100080B2704734
:101B50001E49096889B201EBC0001F4951F8100005
:101B600080B27047194A126892B202EBC0001B4A59
:101B700042F810107047154A126892B202EBC0008A
:101B8000174A02EB40003F290ADB4A091F2319428A
:101B900000D1521E92B2910241F40041016070479F
:101BA0004A08C90700D5521C92B2910201607047E1
:101BB0000649096889B201EBC000094951F81000D3
:101BC0008005800D70470000445C0040505C004080
:101BD000005C00400060004008600040046000407D
:101BE0000C6000400146C9B2090241EA102070476A
:101BF00010B4490001F1804101F5C041521C52105E
:101C000009E010F8013B10F8014B43EA042321F8E6
:101C1000023B891C521EF4D110BC7047490001F1EF
:101C2000804101F5C041521C521004E051F8043BC0
:101C300020F8023B521EF9D17047000010B4002179
:101C4000DFF8303800E0491CC9B20A46022A07DA38
:101C500013F812408442F6D103EB4200407800E0D2
:101C60000F2010BC704710B40021DFF8083800E0E6
:101C7000491CC9B20A46022A07DA03EB4204647817
:101C80008442F5D113F8120000E0032010BC704725
:101C9000F8B507460C4600252E46002F05D0002C2F
:101CA00003D0F8780830904201DB2846F2BD7E2050
:101CB000207078786070B878A070F878E070FA7862
:101CC000391D201D00F004FCF878001D80B203E0EF
:101CD000095D4D19EDB2761CB6B231468142F7DB93
:101CE0000555401C80B20D210155401C80B20A21CF
:101CF0000155401C80B2F2BDF0B5C3B007460D4699
:101D000016461C4600A84FF4847100F01DFC00220A
:101D100040F2071100A800F01BFC7E208DF80000A7
:101D20008DF801708DF80250002E08D0002C06D0DE
:101D30002246314601A800F0CBFB8DF80340DFF8C6
:101D40003847002020804FF49662211D00A8FFF73D
:101D50009FFF2080002803D00146201D00F0A0FC3A
:101D6000002043B0F0BD00B595B003A800210A469D
:101D700006C001A806C000A8016005A8402100F027
:101D8000E3FB0D220FF2FC6105A800F0B1FB2D2052
:101D90008DF8210003A800F0B0FD082203A90DF181
:101DA000220000F095FB01A800F0B1FD082201A976
:101DB0000DF12A0000F08CFB2D208DF8320000A8D8
:101DC00000F0D8FD042200A90DF1330000F080FBE3
:101DD000232305AA10210120FFF78EFF012000F028
:101DE0003DFB15B000BDF0B591B004460E46002095
:101DF0008DF80400651C687800F00F00012840F0A1
:101E000085816078012815D0032816D004282ED0AB
:101E1000052834D00A2800F09280152800F0188197
:101E2000202800F04981212800F05481222800F068
:101E30005F817FE1FFF797FF7CE1A8780528C0F27A
:101E40007981E8782979A27942EA0121AA79EB79A6
:101E5000362801D0372802D100F0F2FF6AE1A0F164
:101E60003004062C80F0668100F0EBFF62E1A87878
:101E7000002800F05F81E87800F0BEFF5AE1A87802
:101E80000628C0F25781EE782F796C79AD7930460B
:101E9000C00704D50121084601F072F903E00021D2
:101EA000012001F06DF9700704D50121082001F02F
:101EB00067F903E00021082001F062F9F80704D572
:101EC0000121062001F05CF903E00021062001F069
:101ED00057F92046400704D50121052001F050F9AB
:101EE00003E00021052001F04BF9E00604D50121B3
:101EF000032001F045F903E00021032001F040F93F
:101F00002846C00704D50021042001F039F903E078
:101F10000121042001F034F9E80603D5012000F086
:101F2000C3FF02E0002000F0BFFF31208DF8040065
:101F3000012301AA10210520FFF7DEFEFAE0A878B0
:101F40002228C0F2F78002A81C2100F0FDFA3120FF
:101F50008DF80400DFF82405E9782A7942EA0121A6
:101F600001806979AA7942EA01214180E9792A7AD6
:101F700042EA0121818001F063FA012802D0302079
:101F80008DF80400687AA97A41EA0020ADF80800CB
:101F9000E87A297B41EA0020ADF81600687BA97B2E
:101FA00041EA0020ADF80A00E87B297C41EA0020E4
:101FB000ADF81800687CA97C41EA0020ADF80C005F
:101FC000E87C297D41EA0020ADF81A00687DA97DF2
:101FD00041EA0020ADF80E00E87D297E41EA0020AC
:101FE000ADF81C00687EA97E41EA0020ADF8100023
:101FF000E87E297F41EA0020ADF81E00687FA97FB6
:1020000041EA0020ADF81200E87F94F8211041EA7F
:102010000020ADF8200004F121004178827842EAE6
:102020000121ADF81410C178007940EA0120ADF823
:10203000220002A801F024FA012802D030208DF8F5
:102040000400012301AA10210A20FFF755FE71E0C8
:10205000A87806286EDB06A80FF23841282200F087
:1020600047FA04A80FF254410CC90CC002A80FF2A1
:1020700054410CC90CC0EE782F79AC79ED7930461B
:10208000FFF7F1FDB11E022954D20A2F00DB05270C
:1020900006A951F82710032C00DB002404AA32F80B
:1020A0001430032D00DB022502AA32F8152000921D
:1020B000002201F01BFB3DE0A978201D01F016FD78
:1020C00031208DF80400012301AA10212020FFF700
:1020D00013FE2FE0A978201D01F021FD31208DF89D
:1020E0000400012301AA10212120FFF705FE21E0B1
:1020F000A978201D01F075FD31208DF80400012321
:1021000001AA10212220FFF7F7FD13E0C11E0229CA
:1021100010D2FFF7A8FD03280CDA6178162904D144
:10212000AA78211D01F0AAFB04E0324692B22146B2
:1021300001F0A4FB4FF0FF3011B0F0BDF8B50A4636
:1021400000242346002801D0002A01D11846F2BD00
:102150001946154601E0491C89B2A94203DA0E5C12
:102160007E2EF8D10124002C0CD0CA1D954209DB2B
:102170000A185478412C20DAD4786418E41DA4B2EB
:10218000A54201DA0846F2BD2518EE1E77780D2F1C
:1021900013D1B6780A2E10D115F8036CFF2E0FD08C
:1021A0000E4603E0375CFB18DBB2761CE71EBE422E
:1021B000F8DB15F8030C834202D0481C80B2F2BD54
:1021C000611A1046FFF70FFE2046F2BD70B588B0C9
:1021D0000FF2F82000680090002401A8182100F0F8
:1021E000B3F9A748007800283AD000A800F01DFEF7
:1021F0000A25BDF80000684380B2000A8DF804008B
:1022000001AEBDF80000684370702046708001F098
:1022100066FD01128DF808108DF8090000F0FDFD33
:10222000012800D1012444F002042046000AB071C4
:102230008DF80B400020B06004903082BDF80200A1
:10224000684380B2000A8DF81600BDF802006843AA
:102250008DF81700142301AA10210620FFF74CFD6A
:1022600008B070BD10B5B2B000A8C82100F06CF97C
:1022700083480078002816D0012001F0B8FB002820
:1022800011D0C82200A9012001F089FB04000AD066
:102290000120FFF7D3FC2346DBB200AA0101C9B23B
:1022A0001620FFF729FD32B010BD00B589B001A896
:1022B00000210A4606C00846ADF8000003A8182110
:1022C00000F042F96E480078002836D001A801F0ED
:1022D000A8F800A801F0B0F8BDF904000A2190FBAD
:1022E000F1F001128DF80C108DF80D0001A9B1F973
:1022F00002000A2290FBF2F203A8131283708DF8F9
:102300000F20B1F904100A2291FBF2F10A120271B6
:102310008DF8111000218DF812106421C171BDF8E3
:102320000010090A0172BDF800008DF815000A239B
:1023300003AA10210720FFF7DFFC09B000BD10B58C
:102340004F4C2078002817D000F0C7F9002811D191
:1023500000F0D1F900280DD1A088401CA08080B2E7
:10236000032809DB0020A08000F078F8BDE81040C9
:1023700000F0CFB90020A08010BD10B5404C04F192
:10238000080001F099FD04F10C0001F095FD04F145
:10239000100001F091FD04F1140001F08DFD04F531
:1023A000996001F089FD0020207010BD10B500F08B
:1023B0002CFD012851D1324C60880246B2F5966F4F
:1023C0000DDAC0F5966189B21019183000F076F96F
:1023D000014689B2002902D0618840186080618876
:1023E00000291BD004F11800FFF7A8FE00280FD029
:1023F0006188884202DB0020608009E00A1A62805E
:1024000092B2001900F1180104F1180000F060F810
:102410006088B0F5966F01DB00206080A06800281E
:1024200004D14FF47A70A060FFF7D0FEE068002876
:1024300003D11420E060FFF738FFFFF713FF206996
:10244000002804D14FF47A702061FFF778FF6069AB
:10245000002802D14FF47A70606110BD08490870FD
:1024600001F0F1BA00200649886070470020044955
:10247000C86070476C06002080060020A81E00205F
:10248000000000204630332D5432313036323330A4
:102490003000000058020000B004000008070000EF
:1024A00060090000C012000080250000004B000001
:1024B0000096000000E1000000C2010000000030B2
:1024C00000200000000400060000000000000000E2
:1024D00062B38B0708D0521E11F8013B00F8013B94
:1024E00000F024808B07F6D1830740F0208000BFE6
:1024F000103A07D330B4B1E83810103AA0E83810D9
:10250000F9D230BC530724BFB1E80810A0E8081086
:1025100044BF51F8043B40F8043BD20724BF31F8D4
:10252000022B20F8022B44BF0B7803707047083A47
:1025300007D3B1E80810083A40F8043B40F804CB50
:10254000F7D25307E4E70000002200F005B80000CE
:1025500062F30F2262F31F4200B500BF13009646DC
:102560009446103928BFA0E80C50FAD85FEA417CA5
:1025700028BF0CC048BF40F8042BC90728BF20F86B
:10258000022B48BF00F8012B00BD000010B50C0065
:10259000002C0CD000280AD0220092B20100624820
:1025A00001F079FD6148006820186049086000204A
:1025B00010BD80B50300002000290DD0002B0BD0EA
:1025C0000A0092B219005A4801F01FFD59490968E2
:1025D00080B24118574A116080B202BD80B5012116
:1025E000042001F0E2FD4FF4C050ADF800000320DC
:1025F0008DF8020018208DF8030000A94E4801F064
:1026000066FE4FF480514C4801F0BEFE01BD80B51E
:102610000121042001F0C9FD4FF4C050ADF80000C5
:1026200003208DF8020014208DF8030000A9424811
:1026300001F04DFE01BD80B5FFF7D0FF012001F094
:1026400057FD01215FF4000001F0BAFD01F0E4FE46
:10265000012001F030FF4FF480623849324801F028
:10266000BFFC4FF480623649314801F0B9FC0020CC
:102670002E49086000202F49086001BD80B5FFF792
:10268000C6FF00215FF4000001F09AFD002001F078
:1026900012FF254801F0B0FC254801F0ADFC01BD5A
:1026A00080B589B2002907D0002805D00A0092B26F
:1026B00001001F4801F0EFFC002002BD80B50300BF
:1026C000002089B2002907D0002B05D00A0092B261
:1026D0001900154801F099FC02BD0020194909684C
:1026E000124A1268914204D01048006815490860E7
:1026F0000120C0B270470020134909680D4A1268D2
:10270000914204D00B4800680F4908600120C0B214
:10271000704780B5044801F06FFC054801F06CFC7F
:1027200001F037FF01BD00005C1E0020041F0020E7
:10273000701E0020081F002000080140340B0020FC
:10274000340F00200C1F0020101F0020F0B587B0B0
:1027500000A800210A4606C00FF23C211422FFF710
:10276000C7FE00273846884C03E08849095C0155BC
:10277000401C0C28F9DB2078207360786073A07807
:10278000A073E078E0732079217A081820746079CA
:10279000617A08186074A079A17A0818A074E079A9
:1027A000E17A0818E0747A4D082300AA294602202D
:1027B00001F097FF9DF8000000AED52815D1717883
:1027C000F12912D1B178BA290FD1F178EA290CD1C7
:1027D0003179B52909D17179A52906D1B179C629EF
:1027E00003D1F179AC2900D10127FB282DD17078D4
:1027F000DF282AD1B0780A2827D1F078022824D1FE
:102800003079EB2821D170793C281ED1B079D928B4
:102810001BD1F079122818D1207BFF2814D1607BBE
:10282000FF2811D1A07BFF280ED1E07BFF280BD120
:10283000207CFE2808D1607CFE2805D1A07CFE28E3
:1028400002D1E07CFE2800D00127002F42D00020DA
:10285000132302AF1AE00119097B00EB510C03228C
:1028600091FBF2F2121808329E469CFBFEFE03FB1F
:102870001ECC1CF807C08CEA01019C4692FBFCFCB4
:1028800003FB1C22D25D51188155401C0828E2DB55
:102890009DF80000D52814D17078F12811D1B078B6
:1028A000BA280ED1F078EA280BD13079B52808D1B2
:1028B0007079A52805D1B079C62802D1F079AC2865
:1028C00008D0022001F0ADFF082300AA294602200B
:1028D00001F033FF002003E0815D02191175401CF7
:1028E0000828F9DB002004E02A49095C0219117765
:1028F000401C0428F8DB07B0F0BD002104E0224AA8
:102900008A18127B0A54491C0829F8DB70471E49B3
:102910000A7BFF2A25D14A7BFF2A22D18A7BFF2A04
:102920001FD1CA7BFF2A1CD10A7CFE2A19D14A7CFE
:10293000FE2A16D18A7CFE2A13D1CA7CFE2A10D127
:10294000FB210170DF2141700A2181700221C170D9
:10295000EB2101713C214171D92181711221C17199
:102960007047002203E053181B7D1354521C082AA1
:10297000F9DB7047002104E0034A8A18127F0A54E9
:10298000491C0429F8DB7047EC1D0020E8F7FF1F05
:1029900000E0000800E800087E5162596357644D6A
:1029A0006D405779446844734E642400BFF34F8FE1
:1029B000DFF84005016801F4E061DFF83C251143D0
:1029C0000160BFF34F8F00BFFDE7F8B500A80021FD
:1029D0000160DFF828456069002875D13220606108
:1029E0000E4600AD05E0304602F023F825F817004A
:1029F000761CF6B23746022FF5DB47F63C30BDF8C1
:102A0000001041434FF43C32B1FBF2F1E1606A88BF
:102A100050434FF43C32B0FBF2F02061DFF8E05459
:102A20006089884211D26868401C6860282808D3F1
:102A30006878012801D0FFF715FD01206870E06873
:102A4000A0800020A860E8601FE02089814211D2A8
:102A5000A868401CA8600C2808D36878002801D01A
:102A6000FFF700FD00206870E068A080002068602B
:102A7000E8600AE0E868401CE860142802D30220FD
:102A80006870A18000206860A860206942280FD388
:102A90006969491C6961142907D3297C002901D17E
:102AA0000121297701212974E0800020A861F1BD6E
:102AB000372809D2A969491CA961142902D3002128
:102AC0002974E08000206861F1BD002803D002284D
:102AD00017D00BD31FE0DFF82C04DFF82014C861F7
:102AE0000020DFF81C1481F8200014E04EF660206E
:102AF000DFF80814C8610120DFF8041481F8200011
:102B000009E0DFF80004DFF8F413C8610220DFF801
:102B1000F01381F820000020704780B5002108469E
:102B200000F02EFB0021012000F02AFB002000F025
:102B3000BBF90021032000F023FB0121042000F059
:102B40001FFB0021052000F01BFB0021062000F0E8
:102B500017FB00F058FD002002BD30B5A1B000A861
:102B60008021FFF7F1FC0024DFF8945368780228F5
:102B700035D100A9204601F08EFF00282FD09DF806
:102B80000000312806D1DFF87403006A002826D13E
:102B9000012424E0302804D1287C01281FD10124FD
:102BA0001DE0322808D1D548006A002817D1287CBA
:102BB000012814D1012412E0332808D1CF48006A3B
:102BC000002802D0287C012809D1012407E03428FC
:102BD00005D0352803D0287C012800D101242046C7
:102BE00021B030BD0120704780B50121002000F0E8
:102BF000C7FA012002BD80B50020FFF766FF012063
:102C000002BD80B50121084600F0BAFA012000F0AB
:102C10004BF90121032000F0B3FA0021042000F059
:102C2000AFFA0121052000F0ABFAB548007C00287E
:102C300004D10021062000F0A3FA03E001210620C0
:102C400000F09EFA012002BD80B5002000F0F2FCE9
:102C500000200090034602464FF4614100F046FD1B
:102C6000012000F0E7FC00200090034602464FF4EC
:102C70006141012000F03AFDFFF7DDFC012002BDBB
:102C800010B59E4CA06900283AD16420A06120783C
:102C9000062807D8DFE800F00414191E23282D00A9
:102CA000FFF73BFF2078082801DA401C2070944889
:102CB0002178052922DB012101700021017710BD57
:102CC000FFF74BFF0028EDD110BDFFF78BFF002869
:102CD000E8D110BDFFF788FF0028E3D110BDFFF752
:102CE0008AFF0028DED110BDFFF78BFF0028D9D165
:102CF00010BDFFF7A9FF0028D4D110BD002101703D
:102D000010BD7F480178012900D0704780B590F848
:102D10002000002801D0012809D17848C069002886
:102D200005D10020FFF7D1FEBDE8014088E001BDDC
:102D300080B57248417801291AD1416A00290AD028
:102D4000072000F043FA012833D001210720BDE815
:102D5000044000F015BA00214170072000F036FA57
:102D6000002826D000210720BDE8044000F008BA62
:102D700002291ED1416A00290AD0072000F026FA54
:102D8000012816D001210720BDE8044000F0F8B961
:102D900000214170072000F019FA002803D000211B
:102DA000072000F0EDF900210220BDE8044000F00A
:102DB000E7B901BD10B5514C04F1140001F07CF8E5
:102DC00004F1180001F078F804F1200001F074F823
:102DD00004F11C0001F070F804F12400BDE810407B
:102DE00001F06AB880B5FFF7F0FDFFF749FFFFF784
:102DF00088FFBDE801409BE7302801D1022064E64E
:102E0000312801D1012060E670473D480078012853
:102E100001D101207047002070473948007C01280B
:102E200001D10120704700207047002806D03349A7
:102E30008A880280C988418001207047002070473D
:102E4000B4E5F0B5A1B007460C4615461E4600A8ED
:102E50008021FFF779FB00A9002001F01CFE8DF80E
:102E600000708DF80170002200A9104601F0FBFDF2
:102E700022484EF6602161430162A5F108011D2937
:102E80000BD2A6F108011D2907D2B54205D20A21AD
:102E900001FB05F202817143418100210170084666
:102EA000FFF7DCFA21B0F0BD10B5144CA178002872
:102EB00011D001291CD00121022000F061F94FF44A
:102EC0007A706062012060700146072000F058F9B6
:102ED0000120A07010BD00290AD04FF47A70606202
:102EE000022060700121072000F04AF90020A07044
:102EF00010BD00000CED00E00400FA055C050020A8
:102F0000C81D0020C027090080B5DFF8380301F094
:102F10007FF9DFF8340301F07BF9DFF8300301F0CB
:102F200077F9CB4801F074F901BD10B582B0C948FA
:102F3000006800900E24C448C74908601020C649A4
:102F400088800120C4498871BF48C349886008202F
:102F5000C14988810120C0498873BA48BE490861C7
:102F60004FF40040BC4988820120BB498875B548B0
:102F7000B94988614FF48070B74988830120B64908
:102F80008877B148B44908624FF40040B249888458
:102F90000120B14981F82600AB48AF4988624FF45F
:102FA0000050AD4988850120AB4981F82E00A64824
:102FB000A94908634FF48050A74988860120A64993
:102FC00081F83600A048A44988632020A249888758
:102FD0000120A14981F83E0010208DF80300032054
:102FE0008DF8020000240EE09B48E4B210EBC40010
:102FF0008088ADF8000000A99748E4B250F834008A
:1030000001F065F9641CE4B2082CEDDB002100201E
:1030100000F0B6F80021012000F0B2F800210220F3
:1030200000F0AEF80021032000F0AAF801210420EE
:1030300000F0A6F80021052000F0A2F800210620EB
:1030400000F09EF80021072000F09AF813BD10B59B
:1030500082B08248006800900E2401214FF40040A5
:1030600001F096F97A487C49086402207A49A1F86F
:1030700044000120784981F8460010208DF80300B3
:1030800001208DF8020008247348E4B210EBC4005C
:103090008088ADF8000000A96F48E4B250F8340011
:1030A00001F015F90021082000F06AF867486A4924
:1030B00088644FF400506849A1F84C00002066492C
:1030C00081F84E006148644908654FF480406249C8
:1030D000A1F854000020604981F856005B485E4921
:1030E00088654FF400405C49A1F85C0000205A4913
:1030F00081F85E0056485849086601205649A1F8F3
:1031000064000020544981F8660004208DF8030013
:1031100003208DF8020009240EE04F48E4B210EBC2
:10312000C4008088ADF8000000A94B48E4B250F814
:10313000340001F0CCF8641CE4B20D2CEDDB13BDBF
:1031400080B5FFF7E1FE0121012001F02EF80121F9
:10315000042001F02AF80121082001F026F80121BD
:10316000102001F022F80121202001F01EF8012199
:103170003B4801F00DF9FFF7D8FEFFF768FF01BDEE
:1031800080B5C0B20E2820DA334AC0B212EBC002BA
:103190009279012A19D1C9B201290BD12E49C0B2A5
:1031A00011EBC00189882C4AC0B252F8300001F0FE
:1031B000EBF80AE02849C0B211EBC0018988264A21
:1031C000C0B252F8300001F0E1F801BD80B5022133
:1031D000C0B20E2801DB022032E01F49C0B211EB61
:1031E000C0018979002910D11B49C0B211EBC0017F
:1031F0008988194AC0B252F8300001F0B7F80128A6
:1032000001D101211AE0002118E01349C0B211EBED
:10321000C0018979012910D10F49C0B211EBC00159
:1032200089880D4AC0B252F8300001F0A6F8012892
:1032300001D1012102E0002100E002210800C0B21A
:1032400002BD000000080140000C014000100140D8
:103250000014014030630008701C00203463000833
:10326000000230002DE9F041002634468A4D0BE083
:10327000A88C01216200521C91408843A884002040
:1032800005EBC4014863641C032C61DA05EB4401BF
:10329000B1F94C000A2290FBF2F08A8B801A088563
:1032A00000B201282DDB35F8241000291ED0814200
:1032B0001CDA00F072FE05EBC4010A6B002A01D192
:1032C0000863E0E7801A05EB8401C9898842DAD3F4
:1032D0000120A98C620000FA02F211436200521C24
:1032E000904021EA0000A8840126CCE7A88C0121A7
:1032F000620091408843A884002005EBC401086364
:10330000C1E70028BFD505EB8407B7F80280B8F104
:10331000000FADD001F0D0FB8045A9DA00F03DFEF2
:1033200005EBC4014A6B002A01D14863ABE7801A60
:10333000398A8842A7D30120A98C620000FA02F2E0
:1033400091436200521C90400843A88401269AE7EA
:10335000A88900281DD0B5F92C10B5F92A20B5F997
:1033600028304043524303FB032201FB01218842E2
:103370000FD200F012FEA96C002901D1A8640FE061
:10338000688B81420CD3A88C40F04000A8840126B1
:1033900006E0A88C4FF6BF710840A8840020A864FE
:1033A0003046BDE8F08110B501F05DFD3A4C04F106
:1033B000540000F081FD0020A065E06120840146FA
:1033C00005E024F8101004EB4002D181401C0728CE
:1033D000F7DB10BD10B5304C606D002820D104F132
:1033E0004C0001F04EFD01280DD0E06D401CE06561
:1033F00001F0D6FD012803D04FF4FA70606510BDCE
:103400000A20606510BD0A206065A06D401CA065A3
:10341000FFF728FF012803D1BDE81040FFF726B8C9
:1034200010BD1D49B1F84C200280B1F84E204280F9
:10343000B1F85010818070471749898C018070471E
:1034400010B40021B0F9002040F2213302F5C87415
:103450009C4212D2B0F9024004F5C8749C420CD2CE
:10346000B0F9044004F5C8749C4206D20A498A8324
:103470004288CA83808808840121084610BC7047AE
:1034800080B5002801D1002002BD1C22014602485F
:10349000FFF71EF8012002BDCC04002010B582B059
:1034A000040001210C2000F080FEE4B2002C03D0C7
:1034B000022C50D01FD36DE04FF40070ADF8000027
:1034C00018208DF8030003208DF8020000A9DFF812
:1034D000C80500F0FCFE4FF48060ADF80000042049
:1034E0008DF8030003208DF8020000A9DFF8A8057D
:1034F00000F0EDFE4EE00420ADF8000018208DF83D
:10350000030003208DF8020000A9DFF88C0500F00D
:10351000DEFE0820ADF8000004208DF80300032033
:103520008DF8020000A9DFF8700500F0D0FE102031
:10353000ADF8000010208DF8030003208DF8020084
:1035400000A9DFF8540500F0C2FE1021DFF848059D
:1035500000F01CFF1EE04FF44060ADF800001820A2
:103560008DF8030003208DF8020000A9DFF82C0578
:1035700000F0ADFE4FF40060ADF8000004208DF8BF
:10358000030003208DF8020000A9DFF8100500F009
:103590009EFEFFE713BD80B5C0B2002803D002280D
:1035A00020D010D32EE04FF4C060ADF8000004200E
:1035B0008DF8030003208DF8020000A9DFF8D8047D
:1035C00000F085FE1EE01C20ADF8000004208DF800
:1035D000030003208DF8020000A9DFF8BC0400F00E
:1035E00076FE0FE04FF44060ADF8000004208DF847
:1035F000030003208DF8020000A9DFF8A00400F00A
:1036000066FEFFE701BD10B5002400240FE0200096
:10361000C0B2FFF7C0FF00212000C0B200F02AFFB7
:103620000020DFF87C142200D2B25054641C032C1A
:10363000EDD310BD38B50400E4B2032C55DA2000F8
:10364000C0B2FFF72BFFDFF86004E4B210EB840098
:1036500000F032FCE4B2002C03D0022C2BD015D3A6
:103660003EE04FF400710022DFF84054280001F0E2
:10367000ADFC4FF40072DFF83414DFF82804E4B234
:10368000142303FB040000F0ABFC29E04FF40071AD
:103690000022DFF81C54280001F098FC4FF400725F
:1036A000DFF80C14DFF8FC03E4B2142303FB04007E
:1036B00000F096FC14E04FF400710022DFF8F453A0
:1036C000280001F083FC4FF40072DFF8E813DFF804
:1036D000D403E4B2142303FB040000F081FCFFE7F1
:1036E0000120DFF8BC13E4B2605431BD2DE9FF4185
:1036F00004000E0090461F000025DFF8A403E4B28A
:10370000205C012801D00020B5E0E4B2002C03D0F9
:10371000022C6BD063D370E001214FF4804000F0A5
:1037200044FDDFF8945300212000C0B200F0A2FE57
:10373000E4B2002C01D14FF4614600965FFA88F89C
:10374000ADF80480ADF806700A98ADF808000C20BA
:10375000ADF80A000020ADF80C0000A9280001F027
:1037600069FC012240F22551280001F0C5FC01212D
:10377000280001F0B5FC01212000C0B200F07AFE63
:10378000DFF83803E4B240F82460DFF83003E4B235
:1037900050F82400B0F5167F1BD0B0F5966F2ED0F0
:1037A000B0F5E16F31D0B0F5166F34D0B0F5965F5B
:1037B00037D0B0F5165F3AD0B0F5964F3DD0B0F5A2
:1037C000164F40D0B0F5614F43D0B0F5E13F46D041
:1037D0004BE02820BA49E4B241F824004AE0012134
:1037E0005FF4003000F0ECFCB64D9CE701215FF483
:1037F000802000F0E5FCB44D95E700203BE014206C
:10380000AF49E4B241F8240034E00C20AC49E4B202
:1038100041F824002EE00A20A949E4B241F824002E
:1038200028E00920A649E4B241F8240022E008205B
:10383000A349E4B241F824001CE00620A049E4B208
:1038400041F8240016E005209D49E4B241F8240027
:1038500010E004209A49E4B241F824000AE0022072
:103860009749E4B241F8240004E004209449E4B20A
:1038700041F82400012004B0BDE8F081F8B50C0047
:10388000150000260027002C05D0ADB2002D02D077
:10389000C0B2032801DB002036E0C0B2002805D00A
:1038A0008A490978002901D100202DE07C49C0B265
:1038B000415C012901D0002026E0C0B2002803D0DD
:1038C00002284AD021D368E07B4E002717E0BFB220
:1038D0004FF4807097FBF0F101FB1071002901D1CA
:1038E00001F078FCBFB2395D89B2300001F021FCF3
:1038F0008021300001F025FC0028F9D07F1CBFB2E8
:10390000ADB2AF42E3D30120F2BD6E4E102162484A
:1039100000F03AFD002717E0BFB24FF4807097FB2C
:10392000F0F101FB1071002901D101F053FCBFB28D
:10393000395D89B2300001F0FCFB4021300001F01C
:1039400000FC0028F9D07F1CBFB2ADB2AF42E3D378
:103950001021514800F01AFDD5E75B4E002717E013
:10396000BFB24FF4807097FBF0F101FB107100299A
:1039700001D101F02FFCBFB2395D89B2300001F0F6
:10398000D8FB8021300001F0DCFB0028F9D07F1C3F
:10399000BFB2ADB2AF42E3D3B5E70020B4E710B594
:1039A0000023C0B2032804DA002902D092B2002A10
:1039B00001D100201AE0C0B2002805D0434B1B788B
:1039C000002B01D1002011E0354BC0B2C35C012BAC
:1039D00001D000200AE092B2324BC0B2142404FBA2
:1039E000003000F012FB0300180080B210BD10B5CB
:1039F00004000020E4B2032C01DB002022E0E4B24A
:103A0000002C05D031480078002801D1002019E0B1
:103A10002348E4B2205C012801D0002012E02148B4
:103A2000E4B2142101FB040000F0EDFA1E49E4B2F7
:103A300051F82410002902D080B2C92801DB80B2DD
:103A400000E0002010BD21490870704710B5040047
:103A500000200020E4B2002C03D0022C18D015D393
:103A600018E0154801F069FB1549E4B251F824103B
:103A70000D4AE4B242F824100100C9B20948E4B288
:103A8000142202FB040000F0EDFA10BD0D48E9E736
:103A90000D48E7E7F9E7000000080140000C01408D
:103AA000001F0020641D0020841E0020341300200D
:103AB000341500203417002000380140901E0020EB
:103AC000400600200044004000480040291F00201C
:103AD000412801DB373800E03038412901DB373934
:103AE00000E0303941EA0010C0B2704710B5644CB4
:103AF000002020706070A0700121402000F04AFB7F
:103B000001F074FB012000F08CFE012802D001209E
:103B1000207010BD02202070EE20E07010BD2DE955
:103B2000F04106460F464FF00008554C60780028DB
:103B300002D06078052852D1002E01D0012F02DA80
:103B4000012060704BE030783A2802D1072F4D4DAC
:103B50000CDA0220607042E006EB48008178407881
:103B6000FFF7B6FF08F8050008F10108781E00EB22
:103B7000D070B8EB600FEFDBE878042807D1287924
:103B8000697941EA00200004C5F8840027E0002894
:103B900025D16878A97841EA0020C5F888002B78FB
:103BA00085F88030D5F88410401837490918B1F5E8
:103BB000D04F02D30320607011E02A1D00F5D041E0
:103BC000012000F0BAFD012802D00420607006E058
:103BD00005206070606895F8801008186060BDE886
:103BE000F08130B587B000A81C21FEF7ADFC244C55
:103BF0006078052802D00120A0703EE0042000F08B
:103C000010FE012802D00220A07036E001F0EEFA8A
:103C10006068C01C850829461C4801F0EBFA4BF689
:103C2000DB51ADF800104FF6FF71ADF80210002225
:103C300001920122ADF808201C22ADF80A20039061
:103C400012480490A8000590ADF81810ADF81A10AD
:103C500001F0CCFA052102A801F0CCFA01901C2257
:103C600000A9042000F0B9FD012802D00320A070B3
:103C700001E00420A070FFF7E3F807B030BD0000BA
:103C8000B01E0020641B002000F0FFF70078000841
:103C9000144800F011B970B50025134C6068002875
:103CA0001CD10A20606009260BE03046FFF78EFA2F
:103CB000002805D10120A6F1090188400543EDB295
:103CC000761C0C2EF1DB20886188814203D0A8424B
:103CD00001D1FEF7C7FB20886080258070BD0248B7
:103CE00000887047500600204C06002040B2002893
:103CF00008D50901AB4A40B210F00F00801800F857
:103D0000041C03E00901A84A40B28154704780B501
:103D1000411EB1F1807F01D301200EE0401EA34976
:103D200008600F215FF0FF30FFF7E0FF0020A0499F
:103D3000086007209F490860002002BD80B54BF64F
:103D40008030FFF7E4FF002800D0FEE701BD10B58A
:103D50000024002098480068401C97490860974854
:103D60000068002804D095480068401E9349086008
:103D7000002413E09248A4B250F8240000280CD08C
:103D80008F48A4B250F824000068002805D0401ED7
:103D90008B49A4B251F824100860641C894800883B
:103DA000A4B28442E6D388480068002805D086483B
:103DB0000068401E8449086015E0092082490860B7
:103DC00000240BE08148A4B250F82400002804D05D
:103DD0007E48A4B250F824008047641C7C480088C8
:103DE000A4B28442EED37B480068002805D079480D
:103DF0000068401E7749086017E0C72075490860D1
:103E000000240DE07148A4B210EB8400806A002801
:103E100005D06E48A4B210EB8400806A8047641C11
:103E20006B484088A4B28442ECD36B4800680028F9
:103E300005D069480068401E6749086018E040F2F4
:103E4000F3106549086000240DE06048A4B210EB4F
:103E50008400006D002805D05C48A4B210EB8400FB
:103E6000006D8047641C5A488088A4B28442ECD319
:103E70005A480068002805D058480068401E574935
:103E8000086018E040F2E7305449086000240DE073
:103E90004E48A4B210EB8400806F002805D04B4838
:103EA000A4B210EB8400806F8047641C4848C0882F
:103EB000A4B28442ECD310BD10B401000020002253
:103EC000002901D1002021E0002200E0521C130053
:103ED000DBB23C4C24889BB2A34207D2384BD2B20F
:103EE00053F822308B42F1D100200FE0354A12887E
:103EF000642A0ADA0120324A324B1B8842F8231026
:103F000030490988491C2F4A1180C0B210BC704743
:103F100030B40A0000210023C0B2042839DA1300AB
:103F2000002B36D0002300E05B1C1C00E4B2284DBF
:103F3000C0B235F81050A4B2AC420FD2234CC0B27C
:103F4000282505FB0044224DC0B235F8105054F826
:103F500025401500AC42E7D100201CE01C4BC0B24C
:103F600033F810300A2B14DA0121184BC0B2282480
:103F700004FB0033164CC0B234F8104043F8242040
:103F8000134AC0B232F81020521C114BC0B223F8B1
:103F900010200800C0B230BC704707480068704766
:103FA0000000000018ED00E000E400E014E000E094
:103FB00018E000E010E000E0FC1E0020E81E0020F9
:103FC00034190020E61E0020EC1E0020C41A002038
:103FD000D01E0020F01E0020F41E0020F81E00203D
:103FE000028000234380416092B251188160416891
:103FF000C1604168016170470021418041680161F1
:104000004168C16070474088704730B403000020A9
:104010005888002806D092B2002A03D0002901D087
:10402000002B01D100201BE0002011E01C69651C61
:104030001D6124780C70491C1C699D68AC4201D339
:104040005C681C6172B65C88641E5C8062B6401C51
:1040500080B292B2904202D25C88002CE6D180B24B
:1040600030BC7047002803D0428803889A4201D3AD
:1040700000200FE0C268531CC3601170C1688268E1
:10408000914201D34168C16072B64188491C4180A8
:1040900062B60120704730B4002392B2002A03D0E8
:1040A000002901D0002801D100201EE0002311E0EA
:1040B000C468651CC5600D782570491CC468856896
:1040C000AC4201D34468C46072B64488641C448026
:1040D00062B65B1C9BB292B2934204D204884588BC
:1040E000641B012CE4DA180080B230BC7047000079
:1040F0003F49086070473D490A6822F44042104336
:104100000860704730B439490A6802F00C02082A86
:1041100018D10A6802F470120B6803F48033920C11
:10412000921C002B03D1334B5A4302600CE00B6806
:104130009B0303D52F4B5A43026005E02E4B5A4395
:10414000026001E02C4A02600A6802F0F0032B4A88
:104150001B099B5C05682C46DC4044600B6803F43B
:10416000E0631B0A9B5C2546DD4085600B6803F419
:104170006053DB0A9B5C45682C46DC40C4600968E0
:1041800001F4404102EB9131097CB4FBF1F1016192
:1041900030BC70471A4A0029116802D008431060E9
:1041A000704721EA000010607047164A0029116824
:1041B00002D008431060704721EA00001060704789
:1041C000114A0029116802D008431060704721EAA3
:1041D0000000106070470D4A0029116802D00843A2
:1041E0001060704721EA0000106070470410024020
:1041F000D800424200093D0000127A001C0600204F
:1042000014100240181002401C1002400C10024012
:1042100080B57949884209D101210420FFF7DBFFED
:1042200000210420BDE80440FFF7D5BF7349884250
:1042300009D101210820FFF7CEFF00210820BDE8A9
:104240000440FFF7C8BF6E49884209D10121102000
:10425000FFF7C1FF00211020BDE80440FFF7BBBFFE
:104260006849884209D101212020FFF7B4FF0021CD
:104270002020BDE80440FFF7AEBF6349884209D162
:1042800001214020FFF7A7FF00214020BDE80440A6
:10429000FFF7A1BF5D49884209D101218020FFF7C6
:1042A0009AFF00218020BDE80440FFF794BF5849E1
:1042B00088420BD101214FF48070FFF78CFF002161
:1042C0004FF48070BDE80440FFF785BF01BDF0B436
:1042D0000023CC7804F00F02E40601D58C78224349
:1042E0000C88E4B2002C1CD0046803E0482D00D1F7
:1042F00006615B1C082B13D2012505FA03F635462F
:104300000F882F40AF42F4D19D000F27AF40BC4330
:1043100002FA05F52C43CD78282DE7D14661E8E770
:1043200004600B88FF2B1FDD4468002319E0012582
:1043300003F1080605FA06F635460F882F40AF420E
:104340000ED19D000F27AF40BC4302FA05F52C4368
:10435000CD78282D00D14661CD78482D00D1066159
:104360005B1C082BE3D34460F0BC704700228068DC
:10437000084200D00122104670470022C06808425F
:1043800000D00122104670470161704741617047BB
:1043900070B4204A002801D5946900E01468C0F385
:1043A000034583B200F44016B6F5401F06D124F051
:1043B0007064156825F0706515600FE0C60206D5BB
:1043C000032606FA05F5AC4344F0706406E0450D9B
:1043D0002D0103FA05F5AC4344F07064002904D0C4
:1043E000410D090103FA01F10C43002801D5946144
:1043F00000E0146070BC704700080140000C0140F0
:10440000001001400014014000180140001C014050
:1044100000200140040001400448C06102210172F3
:1044200003490162034A426208680047A01D002058
:104430002C0500208405002080B505495FF0006050
:1044400000F01EFF4FF4A06000F0E6FE01BD00008A
:104450000010000880B512218DF8001002218DF89F
:10446000011000218DF802108DF8030000A800F063
:10447000D8FE01BD80B52522C0B2002803D0022895
:1044800014D00FD316E025208DF8000002208DF8FF
:10449000010000208DF802008DF8031000A800F044
:1044A000C0FE01BD26208DF80000EFE727208DF823
:1044B0000000EBE7F5E780B514218DF8001002212C
:1044C0008DF8011000218DF802108DF8030000A86E
:1044D00000F0A7FE01BD000038B5304C207801285F
:1044E00019D04021201D2E4A92689047050002D124
:1044F0000020207031BD012020702A46C021201DDF
:10450000FDF776FB29460120FDF72CFB0120BDE8D5
:104510003240FDF7A5BA31BD38B5204C20780128CE
:1045200017D14021201D1E4A92689047050002D1F4
:104530000020207031BD2A46C021201DFDF758FB08
:1045400029460120FDF70EFB0120BDE83240FDF7B2
:1045500087BA31BD10B5134C2146032000F0B2FEDE
:10456000014689B220460E4AD26890470320BDE832
:104570001040FDF785BA0C480068052808D10B48A3
:1045800001684A1C0260052902D100210160A3E7ED
:10459000704700200149087070470000E01C0020AF
:1045A00030060020241D0020201F00201C1F00209A
:1045B0000123C0B2002806D0022816D00CD304284C
:1045C00025D01BD32CE0002901D0B7480860002A71
:1045D00001D0B648106024E0002901D0B44808603A
:1045E000002A01D0B34810601BE0002901D0B24876
:1045F0000860002A01D0B148106012E0002901D003
:10460000AF480860002A01D0AE48106009E00029D8
:1046100001D0AD480860002A01D0AC48106000E02D
:1046200000231800C0B2704710B400239E4BC31A79
:10463000B3F5704F01D300200DE0002901D0002A0E
:1046400001D1002007E0002302E01C5C5C545B1CED
:104650009342FAD3012010BC70472DE9F8430400BF
:104660000D00160004275FF000095FF0000800202D
:1046700000218D48201AB0F5704F01D300202EE0A4
:10468000002D01D0002E01D1002028E000F02CFEEA
:10469000F00703D5700810F1010801E05FEA560841
:1046A0005FF0000901E019F10109C1450FD214EBD7
:1046B000490015EB4901497815F8192012EB012141
:1046C00089B200F03EFE0700FFB2042FEBD000F0ED
:1046D00014FEFFB2042F01D0002000E00120BDE84D
:1046E000F283F0B583B00C0015001E00002101918B
:1046F000002100910027C0B2052803DA002D01D067
:10470000002E01D1002017E000AA01A9C0B2FFF7D6
:104710004FFF002801D100200EE00198844209D308
:1047200030190099884205D2320029002000FFF795
:104730007BFF07003800C0B2FEBDF0B583B00C00AF
:1047400015001E0000210191002100910027C0B238
:10475000052803DA002D01D0002E01D1002017E03A
:1047600000AA01A9C0B2FFF723FF002801D1002051
:104770000EE00198844209D330190099884205D28D
:10478000320029002000FFF768FF07003800C0B2A0
:10479000FEBD30B583B00C00150000210091002152
:1047A00001910021C0B2052803DA002C01D0002DB0
:1047B00001D1002010E001AA00A9C0B2FFF7F8FE65
:1047C000002801D1002007E02A0021000098FFF70F
:1047D0002BFF01000800C0B23EBD30B583B00C0015
:1047E000150000210091002101910021C0B205288F
:1047F00003DA002C01D0002D01D1002010E001AA25
:1048000000A9C0B2FFF7D4FE002801D1002007E0C4
:104810002A0021000098FFF720FF01000800C0B225
:104820003EBDF8B501000424002500260020002725
:10483000C9B2002906D0022912D00ED3042915D0FE
:1048400011D316E0184D1A2600F04EFD352000F069
:1048500091FD002E1ED000270EE0154D1A26F3E71D
:10486000154D0226F0E7164D0226EDE7164D0226FD
:10487000EAE7002016E07F1CB7420BD24FF48060BD
:1048800000FB075000F040FD040000F0A3FCE4B280
:10489000042CF0D000F031FDE4B2042C01D0002053
:1048A00000E00120F2BD000000100008FF770008C2
:1048B00000780008FFDF000800E00008FFE70008BC
:1048C00000F00008FFF7000800F80008FFFF0008EC
:1048D00080B501210420FFF768FC6020ADF80000DE
:1048E00000208DF8030003208DF8020000A956482F
:1048F000FFF7EDFC01BD00B585B005205349086008
:104900000620524948600020514908700020504953
:1049100088714FF48040FFF7EEFB01214FF40070E7
:10492000FFF743FC0120FFF795FD4A4800F050FDDA
:1049300000A800F09AFD0020009000208DF80400EF
:1049400000208DF805005FF46020029000200390A5
:104950003E4800688DF8100000A93E4800F067FD51
:1049600001224FF408713B4800F093FD01213948C2
:1049700000F084FD374800F097FD364800F099FDBF
:104980000028FAD1334800F099FD324800F09BFD31
:104990000028FAD1072301222C480168C9B22D480A
:1049A00000F0A1FD01202A4988710121294800F069
:1049B0008FFD05B000BD80B5002025488079002816
:1049C0001DD101202249887121480078401C2049CE
:1049D00008701F480078022802DB00201C4908707C
:1049E0001B48007807230122184951F82010C9B24A
:1049F000184800F078FD0121164800F069FD01BD5E
:104A000080B5FFF765FFFFF776FF13490020FFF73A
:104A10007FFA01BD10B500240D4804780D4800F060
:104A2000A0FD0B4911EB4401488000200849887122
:104A300010BDC0B2022805DA0549C0B211EB400032
:104A4000408800E00020704700080140B81E0020A8
:104A5000C01E002000240140B749000880221549EB
:104A60000320FFF796BE10B51446002801D00020A1
:104A700010BD002903D080220E48FDF729FD002C2F
:104A800007D00320FFF7CDFE80220A490320FFF75D
:104A9000A4FE012010BD80B50B46002801D1002BDB
:104AA00001D1002002BD802202491846FDF710FD09
:104AB000012002BDF01B0020002848BF4042704783
:104AC00080B5DFF8E404006800904020ADF80000F5
:104AD00014208DF8030003208DF8020000A9DFF8F0
:104AE000CC04FFF7F4FB8020ADF8000014208DF813
:104AF000030003208DF8020000A9DFF8B004FFF7DF
:104B0000E6FB01BD80B5DFF8A804006800904020F6
:104B1000ADF8000004208DF8030003208DF802009A
:104B200000A9DFF88804FFF7D2FB8020ADF8000071
:104B300004208DF8030003208DF8020000A9DFF89F
:104B40006C04FFF7C4FB01BD282000E0401E80B2CA
:104B50000028FBD1704780B54021DFF85004FFF7F3
:104B600013FC01BD80B54021DFF84004FFF70EFCC7
:104B700001BD80B58021DFF83404FFF705FC01BDDD
:104B800080B58021DFF82404FFF700FC01BD10B5DB
:104B900000248021DFF81404FFF7E8FB012800D18E
:104BA00001242000C0B210BD80B5FFF7E2FFFFF77F
:104BB000D2FFFFF7C9FFFFF7EAFF002801D100206D
:104BC0000EE0FFF7DDFFFFF7BFFFFFF7E0FF002874
:104BD00001D0002004E0FFF7D3FFFFF7B5FF01206D
:104BE00002BD80B5FFF7BEFFFFF7AEFFFFF7C8FFBE
:104BF000FFF7AAFFFFF7AFFFFFF7A6FFFFF7B9FF29
:104C0000FFF7A2FF01BD80B5FFF7ACFFFFF79CFFE8
:104C1000FFF7B6FFFFF798FFFFF79DFFFFF794FF41
:104C2000FFF7A0FFFFF790FF01BD80B5FFF79AFFE8
:104C3000FFF78AFFFFF79DFFFFF786FFFFF78BFF68
:104C4000FFF782FFFFF78EFFFFF77EFF01BD80B504
:104C5000FFF788FFFFF778FFFFF78BFFFFF774FF81
:104C6000FFF779FFFFF770FFFFF791FF002803D0F0
:104C7000FFF778FF002002E0FFF774FF012002BD7C
:104C800038B50400082508E0FFF77AFF6400FFF755
:104C90005BFFFFF760FFFFF757FF2800451EC0B21C
:104CA000002808D0FFF75EFFFFF74EFF2006EBD588
:104CB000FFF75FFFEAE7FFF755FF31BD38B508247E
:104CC0000025FFF756FF0EE06D00FFF74BFFFFF7E3
:104CD0003BFFFFF740FFFFF737FFFFF758FF0028C4
:104CE00001D055F001052000441EC0B20028EBD1D0
:104CF000FFF738FF2800C0B232BD70B504000D00C8
:104D00001600FFF751FF002801D100201AE016F02D
:104D1000FE00FFF7B5FFFFF79AFF002803D1FFF76A
:104D200060FF00200EE02800C0B2FFF7A9FFFFF7E8
:104D30008EFF2000C0B2FFF7A3FFFFF788FFFFF749
:104D400050FF012070BDF8B504000D0016001F00D3
:104D5000EDB2002D01D1002034E0FFF725FF00283F
:104D600001D100202EE017F0FE00FFF789FFFFF7CA
:104D70006EFF002803D1FFF734FF002022E030004F
:104D8000C0B2FFF77DFFFFF762FFFFF70DFF57F09F
:104D90000100C0B2FFF774FFFFF759FF03E0FFF710
:104DA00032FF641C6D1EEDB2002D08D0FFF786FFA8
:104DB0002070EDB2012DF2D1FFF737FFF1E7FFF7D9
:104DC00010FF0120F2BD10B582B0002400208DF844
:104DD000000078480078012844D0FFF771FE3223A4
:104DE0000F2201217448FFF7AEFF73480078332883
:104DF00035D14F2400208DF80000322220212000E0
:104E0000C0B2FFF77AFF32232022012100A8FFF76A
:104E10009AFF9DF80000E4B2A04203D0FF2065494C
:104E200008701FE0182400208DF800003222232192
:104E30002000C0B2FFF761FF32232322012100A826
:104E4000FFF781FF9DF80000E4B2A04203D0FC20F0
:104E50005849087006E001205649087002E0002019
:104E60005449087013BD80B5FFF74CFE5348FFF757
:104E700023F84FF47A705149086000204D490870BA
:104E800001BD30B583B0040000A80021002206C097
:104E90000838002547480078012807D047480068AF
:104EA000002801D1FFF78FFF002078E0002044495F
:104EB00008703223272201214148FFF744FF0128CF
:104EC00001D000206BE03E4800780721084201D164
:104ED000002064E000250AE0322315F12802D2B256
:104EE00001213848EDB22818FFF72DFF6D1CEDB2F7
:104EF000062DF1DB334840784FF48071314A127847
:104F000001FB0020ADF800002E48C0784FF48071FE
:104F10002C4A927801FB0020ADF802002948407924
:104F20004FF48071274A127901FB0020ADF804008C
:104F3000BDF9000000F036FB5FF0824100F04AFB53
:104F40005FF08F4100F0B2FB1F4900F043FB00F01F
:104F50002BFC2080BDF9020000F024FB5FF08241B1
:104F600000F038FB5FF08F4100F0A0FB164900F025
:104F700031FB00F019FC6080BDF9040000F012FB69
:104F80005FF0824100F026FB5FF08F4100F08EFB66
:104F90000D4900F01FFB00F007FCA08001203EBD82
:104FA000044800787047000038630008000C014096
:104FB0003C630008271F0020261F002070060020E9
:104FC000281F0020C81E002000007A4462F30F2230
:104FD00062F31F42401810F0030308D0C91A1FD310
:104FE000DB0748BF00F8012D28BF20F8022D130071
:104FF00030B414461546103928BF20E93C00FAD8D1
:10500000490728BF20E90C0048BF40F8042D89005B
:1050100028BF20F8022D48BF00F8012D30BC704792
:10502000C91818BF00F8012DCB0728BF00F8012DC3
:105030007047000030B585B004460D46208A4CF616
:10504000FF710840E98808432082A0894EF6F311D9
:105050000840A98808432989084369890843A08131
:10506000A08A4FF6FF410840A9890843A08200A802
:10507000FFF748F81948844201D1039800E00298EC
:10508000296819225043A289120403D54900B0FBB4
:10509000F1F102E08900B0FBF1F16420B1FBF0F026
:1050A00000010209642303FB1211A289120408D52E
:1050B000C90032311A46B1FBF2F101F00701084391
:1050C00007E0090132311A46B1FBF2F101F00F019C
:1050D0000843208105B030BD0000000000380140C9
:1050E0000029818903D041F40051818170474DF638
:1050F000FF7211408181704710B40B46DBB25B092F
:10510000012401F01F0104FA01F1012B01D10C303F
:1051100004E0022B01D1103000E01430002A0268B4
:1051200002D01143016002E022EA0101016010BCDB
:105130007047C905C90D818070478088C005C00DC2
:10514000704700220088084200D0012210467047B4
:1051500030B40A4600211346DBB25B09012402F099
:105160001F0504FA05F5012B02D183892B4006E0C7
:10517000022B02D1038A2B4001E0838A2B40120AC2
:1051800004FA02F200881040002B02D0002800D060
:105190002146084630BC70470122090A02FA01F193
:1051A00089B2C9430180704780B545F2555000F07F
:1051B0001DFB032000F01DFB0A480068800980B237
:1051C00000F01AFB00F01BFB00F01EFBEC20064970
:1051D000087001BD80B504480078EC2801D100F0CA
:1051E0000EFB01BD740600202A1F00200120084983
:1051F0000860704710B40022064B03E050F82240CC
:105200001C60521C8A42F9D3186810BC7047000019
:1052100008300240003002401C4908431C49086025
:105220007047F0B403781A460121C478002C1DD0D1
:10523000174B1B6803F4E063C3F5E0631B0A447873
:10524000C3F10405AC4085780F263746DF4007EAF6
:10525000050323431B010F4C1355007800F01F0278
:1052600091400D4A401142F8201007E003F01F0062
:1052700001FA00F00949521141F82200F0BC7047D0
:10528000074A114008430749086070470000FA05C3
:105290000CED00E000E400E000E100E080E100E06F
:1052A00080FFFF1F08ED00E00448002141604FF43B
:1052B0003F41034A1180016000207047405C00407C
:1052C000241F002070B50C4600F07F052846FCF72F
:1052D0006FFC06462846FCF73BFC0146324620465A
:1052E000FCF79CFC304670BDDFF8B000DFF8B01072
:1052F0000160DFF8B01001607047DFF8AC000168B2
:1053000041F080010160704738B505464FF4302008
:1053100000F04EF8042813D1DFF88C40206840F0EC
:10532000020020606560206840F0400020604FF47B
:10533000302000F03DF8216841F6FD7211402160F7
:1053400032BD70B504460D464FF4005000F030F801
:1053500004280ED1144E306840F0010030602580E2
:105360004FF4005000F024F8316841F6FE7211400D
:10537000316070BD0D490860704704200B490A6810
:10538000D20701D5012070470A68520701D50220D3
:1053900070470968C90600D5032070470420024001
:1053A00023016745AB89EFCD102002400C2002405D
:1053B00010B50446FFF7E1FF02E0FFF7DEFF641ED1
:1053C000012801D1002CF8D1002C00D1052010BDFE
:1053D00080B5654988420BD101214FF40070FEF77A
:1053E000FAFE00214FF40070BDE80440FEF7F3BE62
:1053F0005E4988420BD101214FF48060FEF7EBFE3D
:1054000000214FF48060BDE80440FEF7E4BE584937
:1054100088420BD101214FF40040FEF7DCFE002151
:105420004FF40040BDE80440FEF7D5BE01BD426820
:10543000504B1A400B681A430B7942EA0322426030
:1054400082684D4B1A40CB681A438B681A434B79DC
:1054500042EA43028260C26A22F47002097C491E59
:10546000C9B242EA0151C162704700210160017175
:1054700041718160C1600121017470470029816818
:1054800003D041F001018160704749084900816003
:105490007047C9B2002A426802D011434160704788
:1054A00022EA010141607047816841F00801816092
:1054B00070478068C00800F001007047816841F0C3
:1054C0000401816070478068800800F00100704727
:1054D0000029816803D041F4A0018160704721F464
:1054E000A0018160704770B407240A290BDBC568EE
:1054F000A1F10A0606EB4606B44025EA0404B340CF
:105500002343C36008E0056901EB4106B44025EA86
:105510000404B3402343036113461F24072B09DA15
:10552000436B521E02EB82029440A3439140194305
:10553000416314E00D2B09DA036BD21F02EB8202E8
:105540009440A34391401943016308E0C36A0D3AB4
:1055500002EB82029440A34391401943C16270BCA4
:105560007047C06C80B270470024014000280140A1
:10557000003C0140FFFEF0FFFDF7F1FF10B40022F8
:1055800043680C46E4B22340006810EA112F02D0B1
:10559000002B00D00122104610BC7047090AC943F5
:1055A00001607047002840F10780F446404200F057
:1055B00003F850F0004060470AD0B0FA80F188400C
:1055C000D1F19D01C905020672F1004241EB1020A4
:1055D00070470000FF2212EAD05C1DBF12EAD153CF
:1055E000944593422BE09C44D30780EA01021A4081
:1055F00043EA002043EA0121A1FB0030410038BF0B
:1056000040007CF17F010BDBFE294ADA5B0842EAAD
:10561000C15153EA006373F1004C51EB1020704705
:10562000D1F1080CDCF120012FDB5B0810FA01F14D
:105630000B4373F1004120FA0CF050417047944540
:105640001CBF02EAD153934280EA010202F00042F9
:105650001DD0400019D0490017D05BB9634514D064
:105660000902B1FA81F39940BCEB030CC00140F090
:105670000040C1E70002B0FA80FC10FA0CF0B3EB76
:105680000C0CC90141F00041B6E710007047400022
:105690000AD0490008D010F1807F94BF11F1807FBB
:1056A00002E042F0FF407047D043704710B5FF233F
:1056B00013EAD0541DBF13EAD1529C429A4239E0FA
:1056C000A41ADA0780EA0103134042EA012142EA00
:1056D0000020421A3CBF641E01EB4202090AB2FBE1
:1056E000F1FE01FB1E221202B2FBF1F001FB1022BF
:1056F0006EF30F201202B2FBF1FE4EEA00207F345F
:1057000006DDFE2C24DA53EA500050EBC45010BDE5
:10571000D4F1020401FB1E2240F08071192C1DDC23
:1057200021FA04F0C4F12004A140114371F10042B8
:10573000584110BD9C421ABF03EAD1529A420FE071
:1057400080EA010E0EF00043400004D0490016D15B
:1057500043F0FF4010BD490008BFD343180010BDFF
:105760009C4205D1D21AF7D001F00041484010BD4B
:105770004A0212BF0846484000F0004010BD4AB936
:105780000902B1FA81F2914044B1A418C00140F07D
:1057900000409EE7C90141F0004152420002B0FAC8
:1057A00080F4A040141B94E74100090E7F3915D402
:1057B000D1F11F0114D4400007D2C00140F00040D5
:1057C000C84048BF6FF000407047C00140F0004043
:1057D000C8404CBF4FF00040404270470020704727
:1057E00000424FF0004058BFC0437047094908606D
:1057F00070470949086070470849086070474AF6D1
:10580000AA200449086070474CF6CC400149086062
:105810007047000000300040043000400830004075
:1058200080B500F01BF9002079490968887200F002
:1058300003F9FFF739FD00207649086001BD80B506
:1058400073480021026891727349C97902685172E4
:1058500000210068C1720846FCF7BEF84FF40071E1
:105860000020FCF7C0F810210020FCF7C9F8402107
:105870000020FCF754F980210020FCF743F90020B8
:10588000FCF70EF9654890F82C100020FCF773F92E
:105890000020FCF7F5F800210120FCF7A4F8C02156
:1058A0000120FCF72FF920210120FCF7A9F80021A5
:1058B0000120FCF7BDF84FF4C0610220FCF793F81B
:1058C0004FF480710220FCF71DF900210220FCF743
:1058D000AFF820210220FCF793F800210320FCF709
:1058E00082F84FF488710320FCF719F94021032056
:1058F000FCF741F94FF440510320FCF799F80021DF
:105900000320FCF77DF80020FCF70EF80120414948
:10591000086001BD4248807A002802D005203D4938
:105920000860704704203B49086070473D48017893
:10593000202901D1002101707047704780B50021F6
:10594000212809D132480068007800F07F00212822
:1059500010D10FF295010DE020280BD12C480068E2
:10596000007800F07F00212801D10FF29101202062
:105970002C4A1070080001D1022002BD24480268A0
:10598000916100220068428210468847002002BDD3
:105990001F490968097801F07F01212905D10228F2
:1059A00001D0222801D100207047022070471E49F3
:1059B000FBF70EBD1D49FBF70BBD15490968C978FA
:1059C000042901DB00207047194A02EBC101FBF7F3
:1059D000FFBC002901D002207047022801DB022011
:1059E0007047002070470000002805D108200849B2
:1059F00009680882002070470E487047002805D1CA
:105A00000820034909680882002070470948704748
:105A1000BC1D0020201F00206C6100082C05002008
:105A2000A01D00202C1F00205C0600206406002022
:105A3000A80500205406002038B5544C01202060F1
:105A4000534D00202880206060680020FBF7C0FFD5
:105A50004FF4E05028802060002032BD4B480121E7
:105A6000016000214160032101600020704710B4F3
:105A7000002146480268474C06E0474B53F8213066
:105A80009BB244F82130491C0829F6D342F48061C6
:105A900089B20A46026041F001010A4602604FF6EF
:105AA000FE721140016042685205FCD54FF6FF328C
:105AB00042600022384C06E0364B53F822309BB24D
:105AC00044F82230521C082AF6D341F00801016044
:105AD000016841F0040189B2016010BC70472B4895
:105AE00001684FF6FB72114001604FF43F410160C5
:105AF0007047000010B5294C072800D0207020788E
:105B0000052840D8DFE800F0030E151A232E606840
:105B1000002804D1FFF7E3FF0620207010BD052008
:105B2000207010BDFFF7DBFF0420207001206060B3
:105B300010BD022060700320207010BD6078401EF0
:105B400060706078002820D10420207010BD0F48BC
:105B5000016841F0100189B20160052020700A201F
:105B6000607010BD6078401E6070607800280CD1B5
:105B7000064801684FF6EF72114001600620207060
:105B80000020606010BD0620207010BD405C004009
:105B9000241F00200C1E0020005C0040D81E0020A6
:105BA000F8B50020ADF800005F4C604D48F280066B
:105BB0004BF6BF7729E055F82100ADF80000BDF89D
:105BC000000000040DD555F8210040F68F721040FA
:105BD00045F821005648217800EB810050F8040C6C
:105BE0008047BDF8000000060FD5207855F820103A
:105BF00089B248F60F72114045F820104D482178BF
:105C000000EB810050F8040C8047696C4A48018021
:105C1000090440F18880018811F00F012170CAD178
:105C200029686180618801F03001A180618801F4F8
:105C300040516180296889B2394081F4005181F076
:105C40002001314329600088C006286820D480B232
:105C500048F60F7108402860FBF703FE286880B201
:105C600038406188C90401D580F480506188890476
:105C700001D580F40050A188C90601D580F010003C
:105C8000A188890601D580F0200030432860F1BD4D
:105C9000ADF80000BDF80000000520D5286840F6EA
:105CA0008F7108402860FBF7A4FD286880B2384057
:105CB0006188C90401D580F480506188890401D5C8
:105CC00080F40050A188C90601D580F01000A18899
:105CD000890601D580F0200030432860F1BDBDF871
:105CE0000000000491D5286840F68F7108402860B4
:105CF000FBF7E0FD286880B238406188C90401D50F
:105D000080F480506188890401D580F40050A18816
:105D1000C90601D580F01000A188890601D580F060
:105D2000200030432860F1BDE01E0020005C0040F0
:105D300000060020E40500209E1E0020F0B589B07A
:105D40000024494D494E68687080494F70883988F1
:105D50000840800507D54FF6FF5068603078401C3A
:105D60003070FEF708FC708839880840000401D5BF
:105D7000FFF716FF708839880840400505D54FF6B3
:105D8000FF3068603B484068804770883988084029
:105D9000800402D54DF6FF7068607088398808402D
:105DA000C00405D54EF6FF7068602046FFF7A2FEDE
:105DB00070883988084000050CD52F4800780028E5
:105DC00002D0FFF754FE02E00220FFF793FE4FF2ED
:105DD000FF706860708839880840C00541D54FF66B
:105DE000FF606860A868000436D57068401C706069
:105DF0007068042832D3286800072FD4286880B23E
:105E0000B06000A906E01D4850F8240080B241F8B7
:105E10002400641C082CF6D3B06840F00100B06088
:105E2000B06880B22860B06840084000B060B068D8
:105E300080B2286068684005FCD54FF6FF30686086
:105E400000240E4906E000A850F8240080B241F872
:105E50002400641C082CF6D3002070600720FFF794
:105E600049FE09B0F0BD00BF405C00409C1E002010
:105E7000241F00202C0500207C060020005C004030
:105E800080B53948016841F0010101604168374A35
:105E9000114041600168364A11400160016821F4F7
:105EA00080210160416821F4FE0141604FF41F012F
:105EB000816000F005F84FF000602E49086001BDD8
:105EC00000BF82B00020019000902748016841F097
:105ED00001010160016801F0020100910199491C72
:105EE00001910099002903D10199B1F5A06FF1D179
:105EF0000168490801F0010100910099012930D1A0
:105F00001D490A6842F010020A600A68D208D200ED
:105F10000A600A6842F002020A6041684160416812
:105F20004160416841F480614160416821F474112D
:105F30004160416841F420114160016841F0807185
:105F4000016001688901FCD54168890889004160C8
:105F5000416841F002014160416801F00C010829EB
:105F6000FAD102B070470000001002400000FFF8B4
:105F7000FFFFF6FE08ED00E0002002407047FEE75C
:105F80007047704780B534480068401C324908604B
:105F9000FDF7DDFE01BD80B52F484068401C2E494D
:105FA00048604FF408712D48FFF7E8FA002806D042
:105FB0004FF408712948FFF7F1FAFEF72BFD01BDF8
:105FC00080B525488068401C2349886040F22551EF
:105FD0002348FFF7BDF8002807D040F2255120489C
:105FE000FFF7DAF80020FDF731FD01BD80B51A4852
:105FF000C068401C1849C86040F225511948FFF795
:10600000A7F8002807D040F225511648FFF7C4F83A
:106010000120FDF71BFD01BD80B50F480069401C44
:106020000D49086140F225510F48FFF791F800280B
:1060300007D040F225510C48FFF7AEF80220FDF7DB
:1060400005FD01BD80B504484069401C0249486116
:10605000FFF774FE01BD0000441E00200024014033
:10606000003801400044004000480040816807E0DB
:1060700002681168536889185B18C36008320260AF
:10608000C2689142F4D04A1C8260087870472DE9BA
:10609000FF4D00F10801009100270268520801EB52
:1060A000C2010191B846002102910391016849089B
:1060B00000EBC101406800F0010501F1080440084F
:1060C00004EBC00631E000A8FFF7D0FF4FFA80FADA
:1060D0000AE00098016808180099029049680818B9
:1060E0000390009808300090029803998842F0D0FD
:1060F000401C029010F801BD47450CD1B44208BFC6
:1061000000F01DF8276805B14F44606800EB0708F0
:1061100008344745F2D0BAF1000F07F801BB0AD5A1
:106120001AF1010AE8D14745CDD1B442CBD130466E
:1061300004B0BDE8F08DBAF1010AD5D5F3E701202E
:1061400000F000B880B5C046C046024A11001820D1
:10615000ABBEFBE726000200120100020202024071
:10616000F905FFFF000201020301000009024300DC
:10617000020100C0320904000001020201000524EE
:106180000010010524010001042402020524060078
:1061900001070582030800FF09040100020A00004C
:1061A00000070503024000000705810240000000CF
:1061B000040309042603530054004D0069006300E2
:1061C00072006F0065006C0065006300740072006F
:1061D0006F006E006900630073000000320353001B
:1061E00054004D0033003200200056006900720058
:1061F0007400750061006C00200043004F004D00EA
:10620000200050006F007200740020002000000089
:1062100080B5FEF711F9FCF793FFFDF78FFDFEF750
:10622000EFFBFDF7F0F9BDE80140FCF727BA80B5B8
:10623000FCF78CFAFEF712FCFCF7BCFDFDF728FD1D
:10624000FDF7B1F8BDE80140FCF797B810B5FFF7CE
:10625000DFFFFFF7ECFF0D4C201DFDF753FFFEF7AE
:10626000A3FF002020602068401C2060FEF7B2FFE2
:10627000FCF7B8FDFEF7AEFFFDF70DFDFDF7AAF840
:10628000FEF7A8FFFCF792F8EDE700002C1E0020B7
:1062900010B5074979441831064C7C44163404E0A3
:1062A0000A68081D511888470146A142F8D110BD5F
:1062B0000800000030000000F7B6FFFFB018000033
:1062C0008006002000000000C7FDFFFF0200000064
:1062D000020000003C01000054010000000000200A
:1062E0007D06000000F00BF8002801D0FFF7D0FF7A
:1062F0000020C046C046FFF7A9FF00F002F80120C9
:10630000704700F001B8000007463846FFF71AFF53
:10631000FBE700000148804701480047815E000814
:1063200025630008C046C046C046C046FFF7DAFFF6
:10633000000000000000000000000000000000005D
:10634000FFF71CBEFFF71BBEFFF7FEBFFFF7FEBF48
:10635000FFF7FEBFFFF714BEFFF7FEBFFFF711BE4A
:10636000FFF710BEFFF7FEBFFFF7FEBFFFF7FEBF50
:10637000FFF7FEBFFFF7FEBFFFF7FEBFFFF7FEBF51
:10638000FFF7FEBFFFF7FEBFFFF7FEBFFFF7FEBF41
:10639000FFF7FEBFFFF7FEBFFFF7FEBFFFF7FEBF31
:1063A000FFF7FEBFFFF7FEBFFFF7FEBFFFF7F3BD2E
:1063B000FFF7FEBFFFF746BEFFF7FEBFFFF7FEBFCA
:1063C000FFF7FEBFFFF7FEBFFFF7FEBFFFF7FEBF01
:1063D000FFF7FEBFFFF7FEBFFFF7FEBFFFF7FEBFF1
:1063E000FFF7FEBFFFF7FEBFFFF7FEBFFFF7FEBFE1
:1063F000FFF7FEBFFFF7FEBFFFF7E2BDFFF7F6BDF9
:10640000FFF70ABEFFF7FEBFFFF7FEBFFFF7FEBFB5
:10641000F80004E8030000C8FD0005E8030000E8F8
:106420000381008100810081008100810081008161
:10643000008100C50001E803AA0001B80BF600279F
:10644000215800083F5800082D5900083B59000802
:106450003D59000891590008D3590008AF59000868
:10646000B5590008BB590008FC000040F500034B7B
:10647000006801F8000032FD000064FD000220BF4A
:1064800002F70028AD19000815590008AD190008D9
:10649000AD190008AD190008AD190008AD190008C4
:1064A000AD19000825590008B061000804FD00047A
:1064B000B461000826FD0004DC61000832FD000420
:1064C000C80500201AFD000A1A03530054004D00AD
:1064D000330032EF003719450008AD190008AD1937
:1064E0000008AD190008AD190008AD190008AD1974
:1064F0000008AD190008AD19000855450008AD1990
:106500000008AD190008AD190008AD190008FC001D
:106510000F0102030401020304060708090204062E
:1065200008F80008B32500088D25000805FD0000C7
:1065300005FD000005F900000AFC0001C201FD0094
:106540000608005861000812FD00046C6100084351
:10655000FD001001030204E8030000409C00000459
:046560000100000135
:040000050800632567
:00000001FF
