:020000040800F2
:101000002027002079710008756E0008776E0008AF
:10101000BD710008C1710008C57100080000000022
:10102000000000000000000000000000796E0008D1
:10103000C9710008000000007B6E00087D6E00088A
:10104000CD710008D1710008D5710008D971000870
:10105000DD710008E1710008E5710008E971000820
:10106000ED710008F1710008F5710008F9710008D0
:10107000FD7100080172000805720008097200087D
:101080000D720008117200088F6E000815720008BA
:101090003D6F0008197200081D72000821720008D7
:1010A00025720008297200082D72000831720008AC
:1010B00035720008397200083D720008417200085C
:1010C00045720008497200084D720008517200080C
:1010D00055720008B96E0008E56E0008116F00082F
:1010E000597200085D7200086172000880B580B214
:1010F000002806D1DFF89C0B006801210182002046
:1011000008E0DFF8940B006800688047DFF8840B84
:1011100000680A3002BD80B5DFF8800B4078DFF848
:10112000741B0968C97888421AD3DFF8680B006815
:101130008078002814D1DFF85C0B006880880028D4
:101140000ED1DFF8500B0068DFF8481B0968C9783A
:101150008172DFF8440B006840688047002000E09F
:10116000022002BD80B580B2002806D1DFF8240B32
:10117000006801210182002008E0DFF81C0B0068F4
:1011800080688047DFF80C0B00680C3002BD80B52A
:10119000DFF8000B0068C178DFF8F80A00684079D2
:1011A000DFF8442B126892699047DFF8E81A096863
:1011B000897A00292AD0C0B200280BD1DFF8D41ACE
:1011C00009680979002905D1DFF8C81A0968897802
:1011D000002901D002201AE0C0B2002816D1DFF8A1
:1011E000B80A0068C0688047DFF8A80A0068DFF81E
:1011F000A41A09684979C172DFF8980A0068DFF813
:10120000941A0968C9780173002000E0022002BD29
:1012100080B580B2002806D1DFF8780A0068022184
:101220000182002032E0DFF8C40A00210180DFF8EB
:10123000640A006800787F21084231D1DFF8540A3F
:101240000068407A810608D5DFF8A01A097851F0C5
:101250000201DFF8982A117007E0DFF8901A097888
:1012600011F0FD01DFF8842A117040060FD5DFF878
:101270007C0A007850F00100DFF8701A0870DFF87F
:10128000180A006800698047DFF8600A02BDDFF8CD
:101290005C0A007810F0FE00DFF8501A0870EEE7E4
:1012A000DFF8F0090068007810F07F00012802D113
:1012B000DFF8380AEAE7DFF8DC090068007810F0A8
:1012C0007F0002282CD1DFF8CC090068417911F0A9
:1012D0000F00090611D5C0B2DFF8141A51F820002A
:1012E00010F030001028CAD1DFF8000A007850F062
:1012F0000100DFF8F8190870C1E7C0B2DFF8F01993
:1013000051F8200010F44050B0F5805FB7D1DFF8FD
:10131000DC09007850F00100DFF8D0190870AEE762
:101320000020B3E710B5DFF86C090068007810F012
:101330007F0000280BD1DFF85C090068407A10F0CC
:10134000DF00DFF8501909684872002096E0022893
:1013500040F09380DFF83C0900684088002805D100
:10136000DFF8300900680079002801D0022085E00C
:10137000DFF82809DFF81C190968497931F0800382
:101380001C00DFF8102912685279120606D5DFF822
:10139000602952F8242012F0300205E0DFF85029CD
:1013A00052F8242012F440520078834207D2002AD7
:1013B00005D0DFF8E0080068807A002801D102201B
:1013C0005CE0080611D5DFF8280950F8240010F079
:1013D000300010284AD12000C0B200F069FD302151
:1013E0002000C0B200F0D4FC40E0DFF8040950F85F
:1013F000240010F44050B0F5805F37D1002C1DD18F
:10140000DFF8F00890F82C1089B22000C0B200F08C
:10141000AFFDDFF8DC0850F824004BF68F71084070
:1014200090F4805090F40050DFF8C41840F400406D
:1014300050F0800080B241F8240017E02000C0B2D4
:1014400000F01DFDDFF8A80850F824004BF68F715E
:10145000084090F4805090F40050DFF8941840F465
:10146000004050F0800080B241F82400DFF82808E6
:10147000006840698047002000E0022010BD80B570
:10148000DFF810080068417931F08000DFF80428A7
:1014900012685279120606D5DFF8542852F8202037
:1014A00012F0300205E0DFF8482852F8202012F44C
:1014B0004052DFF8E8371B7898420DD2DFF8D43776
:1014C0001B685B88002B07D1002A05D0DFF8C427F2
:1014D0001268927A002A01D102202CE0090612D566
:1014E000DFF80C1851F8201048F6BF72114091F047
:1014F0001001DFF8FC2741F4004151F0800189B26E
:1015000042F8201011E0DFF8E81751F820104BF6F0
:101510008F72114091F48051DFF8D42741F40041DB
:1015200051F0800189B242F82010DFF86C070068A2
:1015300080698047002002BD80B5DFF85807006849
:10154000407A50F02000DFF84C1709684872DFF845
:1015500048070068C0698047002002BDDFF83427D3
:101560001268528A80B2002807D18888801ADFF872
:10157000241709680882002001E0086810187047E5
:1015800070B5DFF81007006810F110042088A1681A
:1015900000291AD0002818D0A588A84200D205003A
:1015A000280080B2A168884706002088401B208060
:1015B000608828186080002000F0C0FC2A0092B2E9
:1015C000010089B2300000F032FD208800280CD0E4
:1015D000DFF824074FF4405101800021002000F083
:1015E000BAFCDFF81807302101802088A1888842E2
:1015F00005D3DFF8A00600680321017232E02088DD
:10160000002805D0DFF88C0600680521017229E06A
:101610002088002826D1DFF87C06006806210172A8
:10162000DFF8C406006880688047DFF86806006855
:10163000007A082809D1DFF8C0064FF480510180F4
:10164000DFF8B806102101800CE0DFF8B40600686E
:1016500080B2DFF8B016002241F81020DFF89C06B7
:101660003021018070BDF8B5DFF82806006810F160
:1016700010052888DFF81C1609680C7A00281FD18D
:10168000042C1DD1DFF880060078012812D1DFF884
:101690007006006880B2DFF86C16002241F8102056
:1016A000DFF85806302101800424DFF85C060021B1
:1016B000017004E00724DFF84406102101802BE0CC
:1016C000AE88864201D3042400E00224B04200D256
:1016D0000600300080B2A96888470700002000F0AB
:1016E00020FC320092B2010089B2380000F086FC82
:1016F000310089B2002000F02EFC2888801B288051
:10170000688830186880DFF8F40530210180DFF840
:10171000E8054FF440510180DFF878050068047255
:10172000F1BD10B50220DFF86C1509684C78DFF8C0
:101730006415096809787F22114252D1092C02D11F
:10174000FFF7E9FC6DE0052C1BD1DFF848050068C8
:10175000C078802811DADFF83C050068807800281E
:101760000BD1DFF8300500688088002805D1DFF84C
:1017700024050068807A002801D0082073E000204A
:101780004FE0032C10D1DFF80C050068C078012869
:1017900008D1DFF8000500688088002802D1FFF733
:1017A000CBFE3EE002203CE0012C3AD1DFF8E4041D
:1017B0000068C078012812D1DFF8D804006880885A
:1017C00000280CD1DFF8CC040068407A800606D5EA
:1017D000DFF8380500210160FFF7A4FD21E00220B9
:1017E0001FE0DFF8B0140968097811F07F010129C2
:1017F00004D10B2C15D1FFF7CAFC12E0DFF89414CA
:101800000968097811F07F01022909D1012C02D160
:10181000FFF788FD05E0032C03D1FFF730FE00E061
:101820000220C0B200280BD02000C0B2DFF8B814EC
:10183000096849698847C0B2032801D1092012E02C
:10184000C0B2002801D008200DE00620DFF8B01457
:10185000096889B2DFF8AC24002342F81130DFF8C0
:101860009C1430220A80DFF82C140968087210BD1D
:1018700038B5DFF8200400684078002400250628E9
:1018800024D1DFF81004006800787F21084240F07E
:10189000C380DFF8000400688078C0B2012804D15A
:1018A000DFF844040068C469B6E0C0B2022804D17D
:1018B000DFF834040068046AAEE0C0B2032840F0E8
:1018C000AB80DFF824040068446AA5E0002870D1EA
:1018D000DFF8C0130968498800296AD1DFF8B4131A
:1018E0000968C988022964D1DFF8A8130968097951
:1018F00000295ED1DFF89C03006800787F21084250
:1019000008D1DFF8900300688088002802D1DFF852
:10191000004481E0DFF87C030068007810F07F006D
:10192000012814D10021DFF86C0300684079DFF84A
:10193000B82312689269904700286DD1DFF85403EC
:101940000068807A002867D0DFF8C44364E0DFF8DD
:1019500044030068007810F07F0002285CD1DFF8B3
:1019600034030068407910F00F00DFF8281309688D
:10197000497911F07001DFF81C23126852791206C0
:1019800006D5DFF86C2352F8202012F0300205E073
:10199000DFF85C2352F8202012F44052BF4B1B7832
:1019A000984239D2002937D1002A35D0DFF8604378
:1019B00032E0082808D1B748006800787F21084243
:1019C0002AD1DFF8504327E00A2825D1B148006822
:1019D000007810F07F0001281ED1AE480068807AA0
:1019E000002819D0AB4800684088002814D1A948C5
:1019F0000068007900280FD1A6480068C088012837
:101A00000AD10021A34800684079B74A1268926958
:101A10009047002800D1C04C2000002814D09D48D9
:101A2000006845829B48006884610020A047002030
:101A300098490968098A4FF6FF72914213D1954877
:101A400000680921017267E0924800684078A64961
:101A5000096809698847C0B20328E9D18D48006840
:101A60000921017258E0C0B2022804D089480068F8
:101A7000008A002804D187480068082101724BE0E1
:101A800084480068007800063ED582480068C08817
:101A9000009000987F490968098A884204D27D48ED
:101AA00000680099018225E07A480068008A794937
:101AB0000968C98888421DD276480068008A8A4928
:101AC000096891F82C1089B2884203D28E4800210F
:101AD00001700FE06F480068008A8349096891F837
:101AE0002C1090FBF1F201FB1200002802D1864875
:101AF00001210170674800687B49096891F82C1042
:101B00008182FFF7B0FD07E062480068032101729F
:101B100079484FF44051018031BD38B501247848EF
:101B2000006880B27D4931F81000400000F1804526
:101B300015F5C04557480068007A092826D0554851
:101B40000068297801706D1C52480068297841703E
:101B50006D1CA4B215EB44052800851C008800F01C
:101B600045FA4C4909684880A4B215EB44052800A1
:101B7000851C008800F03AFA464909688880A4B2BA
:101B800015EB4405434800682988C1804148006836
:101B9000012101723F480068C088002802D1FFF788
:101BA000C0FD01E0FFF764FE00F055F832BD80B5DE
:101BB00038480068007A022801D0042805D1FFF7D0
:101BC00052FD34480068007A1CE0062819D13148DB
:101BD0000068407805280ED12E48006800787F21E3
:101BE000084208D12B480068C07800F059F82A480C
:101BF0000068006A80473C48006880688047082089
:101C000000E0082023490968087200F024F802BDAA
:101C100080B520480068007A022801D0042801D14C
:101C2000082012E0032801D0052805D1FFF7A8FC01
:101C300018480068007A08E0072805D12A4800689B
:101C4000C0688047082000E008201249096808722F
:101C500000F001F802BD80B5264890F82C1089B23A
:101C6000002000F085F90B480068007A082806D1AA
:101C700021484FF4805101802048102101800548FF
:101C80000068007A092801D1012000E00020C0B2DC
:101C900002BD0000D41E0020DC1E002044010020F4
:101CA00030B41F490A78002114E00B00DBB2104C5D
:101CB00054F8233048F68F7423400C00E4B22343D9
:101CC00043F4004353F080030C00E4B2084D45F8A0
:101CD0002430491C9142E8D3C0B250F08000114931
:101CE000086030BC70470000D81E0020C81E0020CD
:101CF000005C004000000020041F0020061F0020A0
:101D0000505C004004600040171F0020CC1E0020E3
:101D100011120008ED10000865110008086000406D
:101D2000440100204C5C0040704710B450F8041B84
:101D300081B102681218001D50F8043BDC0744BF53
:101D4000A9F10104E31852F8044B43F8044B091FAE
:101D5000F9D1EBE710BC7047DFF8741280B208606D
:101D600070474FF6F8710840DFF868120860704756
:101D7000C0B2DFF8642252F8202048F68F131A40D0
:101D8000114389B2C0B2DFF8502242F820107047E8
:101D9000C0B2DFF8442252F8202048F6BF731A4040
:101DA000CB0601D592F01002890601D592F02002EF
:101DB000C0B2DFF8241242F4004252F0800292B224
:101DC00041F820207047C0B2DFF80C2252F82020E2
:101DD0004BF68F731A40CB0401D592F480528904DC
:101DE00001D592F40052C0B2DFF8EC1142F4004287
:101DF00052F0800292B241F820207047C0B2DFF862
:101E0000D81151F8201048F6BF72114091F010011E
:101E100091F02001C0B2DFF8C02141F4004151F03F
:101E2000800189B242F820107047C0B2DFF8A811D3
:101E300051F820104BF68F72114091F4805191F4BB
:101E40000051C0B2DFF8902141F4004151F080010F
:101E500089B242F820107047C0B2DFF87C1151F807
:101E6000201048F68F62114041F4004151F080018A
:101E700089B2C0B2DFF8602142F820107047C0B2CA
:101E8000DFF8541151F82010490410D5C0B2DFF822
:101E9000481151F8201048F68F72114041F440412A
:101EA00051F08001C0B2DFF8302142F820107047B5
:101EB000C0B2DFF8241151F82010490610D5C0B285
:101EC000DFF8141151F8201048F68F72114041F4D8
:101ED000004151F0C001C0B2DFF8FC2042F82010F0
:101EE0007047DFF8F020126892B2C0B212EBC00067
:101EF000DFF8E82089B2490889B2490042F8101099
:101F00007047DFF8D020126892B2C0B212EBC00066
:101F1000DFF8CC2089B2490889B2490042F8101094
:101F20007047DFF8B010096889B2C0B211EBC00089
:101F3000DFF8A81051F8100080B27047DFF8941055
:101F4000096889B2C0B211EBC000DFF8941051F8F3
:101F5000100080B27047DFF87C20126892B2C0B2E5
:101F600012EBC000DFF87C2089B242F810107047F5
:101F7000DFF86020126892B2C0B212EBC000DFF846
:101F8000682012EB400089B23F290BDB89B24A0975
:101F90001F23194200D1521E92B2910251F4004106
:101FA000016007E089B24A08C90700D5521C92B205
:101FB0009102016070470749096889B2C0B211EB0C
:101FC000C000094951F810008005800D70470000DD
:101FD000445C0040505C0040005C004000600040F9
:101FE00008600040046000400C600040010080B2C6
:101FF000C9B2090251EA102080B2704710B492B2FF
:10200000521C521089B2490001F1804313F5C043BC
:1020100009E00178401C047851EA042119809B1CD6
:102020009B1C401C521E002AF3D110BC704792B278
:10203000521C521089B2490001F1804111F5C04192
:1020400005E00B680380091D401C401C521E002A3D
:10205000F7D1704700210022110000E0491CC9B2ED
:1020600002290DDAC9B2DFF8CC2B12F81120824216
:10207000F4D1C9B2DFF8BC0B10EB4100407800E0AE
:102080000F20704700210022110000E0491CC9B256
:1020900002290DDAC9B2DFF89C2B12EB410252780B
:1020A0008242F3D1C9B2DFF88C0B10F8110000E0C6
:1020B00003207047F8B504000D000027002600201B
:1020C000002C05D0002D03D0E0780830904201DBD1
:1020D00000202EE0BFB27E2078557F1CBFB2607812
:1020E00078557F1CBFB2A07878557F1CBFB2E078CE
:1020F00078557F1CE278211DBFB2781900F0BEFD33
:10210000E078C719002003E080B2415D8E19401CC1
:1021100080B2BFB2B842F7D3BFB27E557F1CBFB208
:102120000D2078557F1CBFB20A2078557F1C3800DF
:1021300080B2F2BDF0B5C3B007000D0016001C0060
:1021400000A84FF4847100F09FFD40F207120021B7
:1021500000A800F09CFD7E208DF800008DF8017035
:102160008DF80250002E0AD0E4B2002C07D0E4B261
:102170002200310001A800F081FD8DF80340DFF856
:10218000B80A002101804FF49662DFF8B01A00A867
:10219000FFF790FFDFF8A01A0880DFF89C0A00889C
:1021A000002806D0DFF8900A0188DFF8900A00F0D6
:1021B00013FE002043B0F0BD10B596B003A8002177
:1021C000002206C0083801A80021002206C00838F5
:1021D00000A80021016005A8402100F055FD002461
:1021E0000D22DFF85C1AE4B205A8201800F046FDC5
:1021F0000D34E4B205A82D212154641C03A800F07D
:102200001DFF082203A9E4B205A8201800F036FD3E
:10221000083401A800F020FF082201A9E4B205A8B3
:10222000201800F02BFD0834E4B205A82D2121541C
:10223000641C00A800F01EFF042200A9E4B205A857
:10224000201800F01BFD241D2300DBB205AA10217D
:102250000120FFF76FFF012000F0DDFC16B010BD7C
:102260002DE9F04798B004000D002600002700205B
:1022700000218DF80410B17811F00F010800C0B2F0
:10228000012840F052827078012829D002282AD0F3
:10229000032829D004285DD0052864D0082800F040
:1022A000D8800A2800F0D680102800F0A8811128D4
:1022B00000F0A681122800F00A82152800F0A18102
:1022C000162800F00582182800F00382202800F06C
:1022D0000182212800F00C82222800F0178223E2DC
:1022E000FFF76AFF40E23FE2F078052831DB00208B
:1022F0000021002200230027BFB2BC19247920004E
:102300007F1CBFB2BC192479BFB2BD196D7955EAE3
:1023100004242100BF1CBFB2BC19247922007F1CF9
:10232000BFB2BC19247923007F1CC0B2362802D06A
:10233000C0B2372802D101F03FF90AE0C0B2B0F1D3
:102340003004062C05D2DBB2D2B289B2C0B201F0A1
:1023500037F909E2F078002804D0BFB2B819007943
:1023600001F0FFF800E2F078062871DBBFB2B8197F
:1023700004797F1CBFB2B81905797F1CBFB2B819A8
:1023800090F804807F1CBFB2B81990F804907F1CAD
:10239000BFB2B81900797F1CBFB2B91909797F1C87
:1023A000E20704D50121012001F0C1FA03E0002178
:1023B000012001F0BCFA600704D50121082001F0DA
:1023C000B6FA03E00021082001F0B1FAE80704D5CD
:1023D0000121062001F0ABFA03E00021062001F004
:1023E000A6FA5FEA487004D50121052001F09FFAA2
:1023F00003E00021052001F09AFA5FEAC86004D5E5
:102400000121032001F093FA03E00021032001F0F1
:102410008EFA5FEAC97004D50021042001F087FA22
:1024200003E00121042001F082FA5FEAC96003D5CC
:10243000012001F005F902E0002001F001F931204E
:102440008DF80400012301AA10210520FFF772FE78
:102450008AE189E1F0782228C0F2D08002A81C210C
:1024600000F012FC31208DF804000027BFB2B8192B
:102470000079BFB2B919497951EA0020DFF8C417D1
:102480000880BFB2B8198079BFB2B919C97951EAC9
:102490000020DFF8B0174880BFB2B819007ABFB289
:1024A000B919497A51EA0020DFF898178880DFF8D7
:1024B000940701F03CFC012802D030208DF8040084
:1024C0000627BFB2B8190079BFB2B919497951EAE4
:1024D0000020ADF80800BFB2B8198079BFB2B919B1
:1024E000C97951EA0020ADF81600BFB2B819007AD8
:1024F000BFB2B919497A51EA0020ADF80A00BFB25B
:10250000B819807ABFB2B919C97A51EA0020ADF87A
:1025100018000E27BFB2B8190079BFB2B9194979AE
:1025200051EA0020ADF80C00BFB2B8198079BFB2F3
:10253000B919C97951EA0020ADF81A00BFB2B8192B
:10254000007ABFB2B919497A51EA0020ADF80E00FD
:10255000BFB2B819807ABFB2B919C97A51EA00205E
:10256000ADF81C001627BFB2B8190079BFB2B9196F
:10257000497951EA0020ADF81000BFB2B81980794E
:10258000BFB2B919C97951EA0020ADF81E00BFB237
:10259000B819007ABFB2B919497A51EA0020ADF8EA
:1025A0001200BFB2B819807ABFB2B919C97A51EA1C
:1025B0000020ADF820001E27BFB2B8190079BFB2C5
:1025C000B919497951EA0020ADF81400BFB2B81921
:1025D0008079BFB2B919C97951EA0020ADF822005B
:1025E00002A801F0C7FB012802D030208DF80400BA
:1025F000012301AA10210A20FFF79CFDB4E0B3E0FB
:10260000B2E0F078062861DB0DA8DFF83C1628223E
:1026100001F0DEFB0BA8DFF834160CC90CC008393A
:10262000083809A8DFF828160CC90CC00839083882
:10263000BFB2B81990F804907F1CBFB2B81990F8D7
:1026400004807F1CBFB2B81990F804A07F1CBFB2F1
:10265000B81905797F1CBFB2B81904797F1CBFB2C5
:10266000B81906797F1C5FFA89F94846FFF70AFD19
:102670005FFA89F9B9F10201022927D25FFA88F8D5
:10268000B8F10A0F02DA5FFA88F801E05FF0050896
:102690000DA951F828100022EDB2032D01DAEDB298
:1026A00000E000250BAB33F81530E4B2032C01DA5F
:1026B000E4B200E0022409AD35F81440A4B200945D
:1026C0009BB2D2B2C0B201F0D5FCFFE74CE04BE0C8
:1026D0004AE049E0F178301D01F0CEFE31208DF85E
:1026E0000400012301AA10212020FFF723FD3BE075
:1026F000F178301D01F0E0FE31208DF80400012357
:1027000001AA10212120FFF715FD2DE0F178301DE1
:1027100001F049FF31208DF80400012301AA1021A6
:102720002220FFF707FD1FE01EE0C0B2C11E0229F4
:102730001AD20327C0B2FFF7A5FC0700FFB2032F90
:1027400012DA7078162807D1F27892B2311D38006B
:10275000C0B201F057FD07E02A0092B22100380014
:10276000C0B201F04FFDFFE75FF0FF3018B0BDE8E9
:10277000F08738B50200002400230025002A02D08B
:1027800089B2002901D100205CE0002000E0401C5B
:1027900080B289B2884204D280B2855C7E2DF6D1A7
:1027A0000124E4B2002C01D180B24BE089B280B2A6
:1027B000C41DA14201DA80B244E080B2841864787A
:1027C000412C02DB401C80B23CE080B28418E478EB
:1027D0002418E41D89B2A4B2A14201D280B231E032
:1027E000A4B2A11811F8021C0D2905D1A4B2A11898
:1027F00011F8011C0A2902D0401C80B222E0A4B2C8
:10280000A11811F8031CFF2913D080B2050002E0C3
:10281000A95CCB186D1CA4B2E11E8D42F8DBA4B2FA
:10282000A11811F8031CDBB28B4202D0401C80B20D
:1028300008E0A4B280B2211A80B28018FFF710FD20
:10284000200080B232BD70B588B0DFF8080400689F
:1028500000900024002601A8182100F015FA002598
:10286000DFF8F4030078002800F08A8000A800F068
:1028700097FE0025BDF800000A21484380B2000AF7
:10288000EDB201A96854EDB201A82818BDF80010F6
:102890000A2251434170AD1CEDB201A80021295418
:1028A000EDB201A8281800214170AD1C01F027FFEE
:1028B0000600EDB201A8B6B2310A2954EDB201A862
:1028C00028184670AD1C00F063FE012801D154F0B9
:1028D000010454F00204EDB201A8A4B2210A295463
:1028E000EDB201A828184470AD1CEDB201A800217A
:1028F0002954EDB201A8281800214170AD1CEDB299
:1029000001A800212954EDB201A828180021417026
:10291000AD1CEDB201A800212954EDB201A8281880
:1029200000214170AD1CEDB201A800212954EDB287
:1029300001A8281800214170AD1CEDB201A80021AA
:102940002954EDB201A8281800214170AD1CBDF832
:1029500002000A21484380B2000AEDB201A968547E
:10296000EDB201A82818BDF802100A2251434170A7
:10297000AD1C2B00DBB201AA10210620FFF7DAFB09
:1029800008B070BD70B5B2B00324002500A8C821FE
:1029900000F07AF90026B048007800281DD0012404
:1029A0002000C0B201F0E7FC002816D0C82200A920
:1029B0002000C0B201F0B7FC0600B6B2002E0CD069
:1029C000E4B22000FFF746FB05003300DBB200AAAB
:1029D0002901C9B21620FFF7ADFB32B070BD00B5BA
:1029E00089B001A80021002206C008380020ADF8F7
:1029F000000003A8182100F047F90023964800784A
:102A000000285DD001A801F084F900A801F08BF93D
:102A10000023BDF904000A2190FBF1F00012DBB2A3
:102A200003A958545B1CBDF904000A2190FBF1F086
:102A3000DBB203A958545B1CBDF906000A2190FBC8
:102A4000F1F00012DBB203A958545B1CBDF906007B
:102A50000A2190FBF1F0DBB203A958545B1CBDF9CD
:102A600008000A2190FBF1F00012DBB203A95854D0
:102A70005B1CBDF908000A2190FBF1F0DBB203A951
:102A800058545B1CDBB203A8002119545B1CDBB259
:102A900003A8642119545B1CDBB203A8BDF8001025
:102AA00089B2090A19545B1CDBB203A8BDF80010F7
:102AB00019545B1CDBB203AA10210720FFF73AFB75
:102AC00009B000BD80B56448007800281CD000F033
:102AD000A0F9002815D100F0AAF9002811D15F480B
:102AE0000088401C5D4908805C48008803280BDB97
:102AF0005A4800210180002000F08DF800F0A5F96F
:102B000002E056480021018001BD80B5544801F023
:102B1000E5FE544801F0E2FE534801F0DFFE534861
:102B200001F0DCFE524801F0D9FE4B480021017053
:102B300001BD10B5002400F023FD01286AD14D48E5
:102B40000088B0F5966F13DA4A480088D0F5966190
:102B500089B248480088484A801800F04BF90400C0
:102B6000A4B2002C04D043480088201841490880B2
:102B700040480088002826D03E4801883E48FFF79C
:102B8000F8FD0400A4B2002C15D03A480088A4B285
:102B9000844203D33748002101800CE03548008887
:102BA000001B3449088033480288A4B232482118F7
:102BB000314800F063F82F480088B0F5966F02DBCB
:102BC0002C480021018026480068002805D12448AF
:102BD0004FF47A710160FFF736FE22480068002842
:102BE00004D1204814210160FFF7F9FEFFF7CAFE67
:102BF0001D480068002805D11B484FF47A71016018
:102C0000FFF760FF19480068002803D117484FF408
:102C10007A71016010BD80B50F490870C0B201F033
:102C2000D6FB01BD0E480021016070470D48002110
:102C30000160704724010020F81E002000060020DB
:102C400068710008441E002060700008947100083C
:102C50009C710008A47100080A1F0020FA1E0020C1
:102C60001001002014010020180100201C01002088
:102C700020010020F61E00205001002010B504465F
:102C800001F096F8204610BD002201F0BBBE10B541
:102C9000044610460A460146204601F0CDFE204675
:102CA00010BD50F8041B61B150F8042BD30744BF8A
:102CB000A9F101039A18002342F8043B091FFAD135
:102CC000EFE7704710B50C00002C0CD000280AD09C
:102CD000220092B20100624801F03CFF61480068A6
:102CE000201860490860002010BD80B50300002056
:102CF00000290DD0002B0BD00A0092B219005A48BF
:102D000001F0E2FE5949096880B24118574A116042
:102D100080B202BD80B50121042001F0C4FF4FF450
:102D2000C050ADF8000003208DF8020018208DF887
:102D3000030000A94E4802F052F84FF480514C486D
:102D400002F0C7F801BD80B50121042001F0ABFFFE
:102D50004FF4C050ADF8000003208DF8020014209D
:102D60008DF8030000A9424802F039F801BD80B592
:102D7000FFF7D0FF012001F019FF01215FF40000EF
:102D800001F0A1FF02F0FCF8012002F054F94FF429
:102D900080623849324801F082FE4FF48062364941
:102DA000314801F07CFE2F48002101602F480021AE
:102DB000016001BD80B5FFF7C6FF00215FF4000090
:102DC00001F081FF002002F036F9254801F073FE82
:102DD000254801F070FE01BD80B589B2002907D0F9
:102DE000002805D00A0092B201001F4801F0B2FE8F
:102DF000002002BD80B50300002089B2002907D061
:102E0000002B05D00A0092B21900154801F05CFEB3
:102E100002BD002019490968124A1268914204D083
:102E200016481049096801600120C0B270470020AF
:102E3000134909680D4A1268914204D010480B49A1
:102E4000096801600120C0B2704780B5044801F0F4
:102E500032FE054801F02FFE02F066F901BD0000C8
:102E6000D01D0020B81E0020E41D0020BC1E002044
:102E700000080140B00A0020B00E0020C01E002053
:102E8000C41E002070B588B0814D002400A8002128
:102E9000002206C0083802A87E49142200F098FFDC
:102EA0000020040005E0E4B2605DE4B27A496054B9
:102EB000641CE4B20C2CF6DB784877490978017081
:102EC00076487549497841707448734989788170AA
:102ED00072487149C978C1706F4800796E49097AA2
:102EE00008186E4908716C4840796B49497A08188E
:102EF0006A494871684880796749897A081867493A
:102F000088716548C0796449C97A08186349C871ED
:102F1000082300AA6249022002F0AFF99DF80000E0
:102F2000D52871D19DF80100F1286DD19DF80200DE
:102F3000BA2869D19DF80300EA2865D19DF80400FC
:102F4000B52861D19DF80500A5285DD19DF8060042
:102F5000C62859D19DF80700AC2855D1002427E098
:102F6000E4B2E4B24D48205C022190FBF1F000197C
:102F70001321E4B2E4B2494AA25C032392FBF3F2C8
:102F8000121908321323E4B2444D655D90FBF1F64B
:102F900001FB160002A9405C684092FBF3F103FBC1
:102FA000112102AA895C0818E4B200A96054641CCB
:102FB000E4B2082CD4DB9DF80000D5281BD19DF885
:102FC0000100F12817D19DF80200BA2813D19DF80D
:102FD0000300EA280FD19DF80400B5280BD19DF815
:102FE0000500A52807D19DF80600C62803D19DF845
:102FF0000700AC2808D0022002F0DFF9082300AA5D
:103000002749022002F065F9002406E0E4B22548D1
:10301000E4B200A9615C2154641CE4B2082CF5DB25
:10302000002406E0E4B22048E4B22049095D2154BE
:10303000641CE4B2042CF5DB08B070BD0021002252
:10304000110005E0C9B2C9B2144A8A5C0A54491C8D
:10305000C9B20829F6DB704700210022110005E003
:10306000C9B2C9B20F4A8A5C0A54491CC9B20829BC
:10307000F6DB704700210022110005E0C9B2C9B299
:10308000094A8A5C0A54491CC9B20429F6DB704714
:10309000ACF7FF1F40710008F81D00201C1E002027
:1030A00000E00008241E0020741E002000E8000834
:1030B000BFF34F8FDFF8BC05006810F4E060DFF865
:1030C000B8150843DFF8AC150860BFF34F8F00BF99
:1030D000FDE738B5022500A800210160DFF89C4516
:1030E000DFF89C050068002840F0AC80DFF8900510
:1030F00032210160002508E02800C0B202F066FA23
:10310000EDB200A921F815006D1CEDB2022DF3DB24
:10311000BDF8000047F63C3148435FF43C31B0FB5A
:10312000F1F0DFF860150860BDF8020047F63C31A9
:1031300048435FF43C31B0FBF1F0DFF848154860DC
:10314000DFF844050088DFF83C150968884217D28B
:103150006068401C6060606828280CD36078012893
:1031600001D0FFF75FFD01206070DFF82005DFF878
:103170001415096801800020A0600020E06031E0A3
:10318000DFF800050068DFF808150988884217D2C3
:10319000A068401CA060A0680C280CD360780028B0
:1031A00001D0FFF73FFD00206070DFF8E004DFF89A
:1031B000D41409680180002060600020E06011E004
:1031C000E068401CE060E068142807D302206070CB
:1031D000DFF8B804DFF8AC140968018000206060F3
:1031E0000020A060DFF89C044068422815D3606985
:1031F000401C6061606914280CD3207C002801D138
:103200000120207701202074DFF88004DFF8741497
:10321000496841800020A06114E0DFF8680440683C
:1032200037280FD2A069401CA061A069142807D3D9
:1032300000202074DFF85404DFF848144968418006
:103240000020606131BDC0B2002803D0022817D031
:103250000BD320E0DFF83C04DFF83C140160DFF81A
:103260001C04002180F8201015E0DFF828044EF639
:1032700060210160DFF80404012180F820100AE0D9
:10328000DFF81004DFF810140160DFF8F00302210A
:1032900080F82010FFE70020704780B50021002053
:1032A00000F045FB0021012000F041FB002000F070
:1032B000C7F90021032000F03AFB0121042000F0AF
:1032C00036FB0021052000F032FB0021062000F033
:1032D0002EFB00F05EFE002002BD10B5A0B000A8DD
:1032E0008021FFF7D1FC0024DFF89003407802280A
:1032F00047D100A9002002F0A4F9002841D09DF890
:103300000000312806D1DFF894030068002838D186
:10331000012436E09DF80000302806D1DFF85C0378
:10332000007C01282DD101242BE09DF800003228DB
:103330000BD1DFF868030068002822D1DFF83C03D6
:10334000007C01281DD101241BE09DF800003328DA
:103350000AD1DFF848030068002803D0C748007C82
:1033600001280ED101240CE09DF80000342808D07B
:103370009DF80000352804D0C048007C012800D109
:1033800001242000C0B220B010BD0120704780B5DC
:103390000121002000F0CBFA012002BD80B5002001
:1033A000FFF751FF012002BD80B50121012000F08F
:1033B000BEFA012000F044F90121032000F0B7FA21
:1033C0000021042000F0B3FA0121052000F0AFFA3B
:1033D000AA48007C002804D10021062000F0A7FAAA
:1033E00003E00121062000F0A2FA012002BD80B511
:1033F000002000F0E6FD00200090002300224FF4A2
:103400006141002000F036FE012000F0DAFD0020CE
:103410000090002300224FF46141012000F02AFEB9
:10342000FFF7A5FC012002BD80B59D48006800287B
:103430004BD19B48642101609A48007800280BD04A
:10344000022811D00BD3042818D012D306281FD07D
:1034500019D3072821D021E0FFF71FFF1EE0FFF757
:103460003CFF002831D019E0FFF78FFF00282CD057
:1034700014E0FFF78CFF002827D00FE0FFF78EFF46
:10348000002822D00AE0FFF78FFF00281DD005E0BA
:10349000FFF7ADFF002818D000E0FFE78148007873
:1034A000082804DA7F480078401C7E4908707D486F
:1034B0000078052806DB7148012101706F48002162
:1034C000017702E06D480021017001BD80B56B48B5
:1034D0000078012812D1694890F82000002804D013
:1034E000664890F82000012808D16A480068002842
:1034F00004D10020FFF7A7FE00F05EF801BD80B503
:103500006948007800280CD068480068002804D07A
:103510000121072000F00BFA07E063480021017049
:1035200003E00021072000F002FA01BD80B55448F5
:1035300001F0D4F95A4801F0D1F9584801F0CEF918
:10354000544801F0CBF9594801F0C8F901BD80B5E4
:10355000FFF7BFFDFFF768FFFFF7B8FFFFF7CFFFEB
:1035600001BD80B5C0B2302803D10220FFF76BFE49
:1035700005E0C0B2312802D10120FFF764FE01BD91
:103580003E480078012801D1012000E0002070476A
:103590003A48007C012801D1012000E0002070475A
:1035A000002807D039490988018038494988418075
:1035B000012000E00020704780B5FFF779FD01BDD4
:1035C000F0B5A1B007000E0014001D0000A8802176
:1035D000FFF75AFB00A9002002F033F88DF80070C5
:1035E0008DF80170002200A9002002F00CF8B6B29C
:1035F0004EF6602000FB06F028490860E4B2B4F102
:1036000008001D2814D2EDB2B5F108001D280FD214
:10361000E4B2EDB2AC420BD2E4B20A2000FB04F0FB
:103620001B490880EDB20A2000FB05F0164908800E
:103630001C48002101700020FFF7EDFA21B0F0BD19
:1036400080B5C0B200280FD00121022000F06FF930
:10365000164840F6B831016013480121017001217C
:10366000072000F064F903E00021022000F05FF978
:1036700001BD00000CED00E00400FA050C1D002067
:10368000280100204C1E00204A010020841E00203A
:103690004801002030010020C0270900881E0020BA
:1036A0002C0100200B1F00200C1F00208C1E00206E
:1036B00080B5DFF83C0301F03BFBDFF8380301F095
:1036C00037FBDFF8340301F033FBDFF8300301F0A0
:1036D0002FFB01BD10B582B0C948006800900E24D0
:1036E000C848C4490160C74810218180C5480121EC
:1036F0008171C448BF498160C24808218181C148A5
:1037000001218173BF48BA490161BE484FF40041AD
:103710008182BC4801218175BA48B5498161B948A7
:103720004FF480718183B74801218177B548B14951
:103730000162B4484FF400418184B248012180F80D
:103740002610B048AB498162AE484FF400518185E4
:10375000AC48012180F82E10AA48A6490163A94867
:103760004FF480518186A748012180F83610A54882
:10377000A0498163A34820218187A248012180F8C4
:103780003E1010208DF8030003208DF80200002069
:1037900004000EE0E4B29B4810EBC4008088ADF852
:1037A000000000A9E4B2974850F8340001F017FB7C
:1037B000641CE4B2082CEDDB0021002000F0B7F817
:1037C0000021012000F0B3F80021022000F0AFF842
:1037D0000021032000F0ABF80121042000F0A7F83D
:1037E0000021052000F0A3F80021062000F09FF83A
:1037F0000021072000F09BF813BD10B582B082486D
:10380000006800900E2401214FF4004001F067FB96
:103810007C487A4901647B480221A0F84410794829
:10382000012180F8461010208DF8030001208DF84A
:10383000020008200400E4B2724810EBC400808843
:10384000ADF8000000A9E4B26E4850F8340001F071
:10385000C6FA0021082000F06AF86A4866498164C7
:1038600068484FF40051A0F84C106648002180F8D9
:103870004E1064486049016562484FF48041A0F8E9
:1038800054106048002180F856105E485A498165FE
:103890005C484FF40041A0F85C105A48002180F8C1
:1038A0005E1058485549016656480121A0F8641039
:1038B0005448002180F8661004208DF8030003208E
:1038C0008DF8020009240EE0E4B24E4810EBC4006B
:1038D0008088ADF8000000A9E4B24A4850F83400EE
:1038E00001F07DFA641CE4B20D2CEDDB13BD80B554
:1038F000FFF7DEFE0121012001F0D5F901210420AE
:1039000001F0D1F90121082001F0CDF901211020A9
:1039100001F0C9F90121202001F0C5F901213B483E
:1039200001F0DDFAFFF7D6FEFFF767FF01BD80B5B6
:10393000C0B20E2820DAC0B2324A12EBC00292792D
:10394000012A19D1C9B201290BD1C0B22D4911EBFD
:10395000C0018988C0B22B4A52F8300001F0B9FA90
:103960000AE0C0B2274911EBC0018988C0B2254ADC
:1039700052F8300001F0B0FA01BD80B50221C0B2AA
:103980000E2801DB022032E0C0B21E4911EBC0015B
:103990008979002910D1C0B21A4911EBC001898878
:1039A000C0B2184A52F8300001F07DFA012801D166
:1039B00001211AE0002118E0C0B2124911EBC00148
:1039C0008979012910D1C0B20E4911EBC001898853
:1039D000C0B20C4A52F8300001F070FA012801D14F
:1039E000012102E0002100E002210800C0B202BD76
:1039F00000080140000C014000100140001401408B
:103A0000A8710008E01B0020AC7100080002300023
:103A100070B500240020002100250022002300268C
:103A2000340014E0DFF8640300880121E4B262008E
:103A3000521C91408843DFF854130880E4B26000C0
:103A4000DFF84C1311EB800000214160641CE4B2EC
:103A5000032C80F2BB80E4B2DFF8380330F91400A5
:103A60000A2190FBF1F0E4B2DFF82C1331F81410C6
:103A7000401AE4B2DFF8241321F81400E4B2DFF8AE
:103A80001C0330F9140001284CDBE4B2C44830F8C0
:103A90002400002837D0E4B2C14830F82400E4B252
:103AA000BE4931F9141088422DDA00F088FFE4B2E3
:103AB000B74951F83410002904D1E4B2B44941F8AF
:103AC0003400C3E7E4B2B24951F83410411AE4B209
:103AD000B34810EB8400C0898142B7D3AB4800885B
:103AE0000121E4B2620091400843A8490880A74838
:103AF00000880121E4B26200521C91408843A3492E
:103B000008800125A2E7A14800880121E4B26200F3
:103B1000914088439D490880E4B29D48002140F8C7
:103B2000341093E7E4B29D4830F9140000288DD595
:103B3000E4B260009A4911EB4000408800283FF44D
:103B400071AFE4B2954830F9140001F091FDE4B290
:103B50006100934A12EB410149888142BFF662AF8E
:103B600000F02DFFE4B26100894A12EB810149683F
:103B7000002906D1E4B26100854A12EB8101486058
:103B800064E7E4B26100824A12EB81014968411A9C
:103B9000E4B26000824A12EB4000008A8142FFF4E6
:103BA00055AF7A4800880121E4B262009140884311
:103BB00076490880754800880121E4B26200521CF1
:103BC000914008437149088001253FE77448808986
:103BD000002840D07148B0F900007049B1F90010D8
:103BE0006E4AB2F902206D4BB3F902305A4301FB21
:103BF00000206A49B1F90410684AB2F9042002FBB6
:103C00000102674880896649898901FB00F3934274
:103C100016D200F0D4FE5E498969002902D15C49C0
:103C2000886122E05A4880695D49498B88421CD3EB
:103C30005648008850F0400054490880012514E09F
:103C4000524800884FF6BF710840504908805048DC
:103C50000021816109E04D4800884FF6BF7108409E
:103C60004A4908804A48002181612800C0B270BDDD
:103C700010B5002401F0D3FE4A4800F02FFE4A4858
:103C80000021016044480021018043480021418017
:103C9000414800218180002004000BE0E4B240484C
:103CA000002120F81410E4B23D4810EB440000213C
:103CB000C181641CE4B2072CF0DB10BD80B539482B
:103CC0000068002824D1334801F0B7FE012811D044
:103CD00036480068401C3549086001F03DFF012866
:103CE00004D030484FF4FA71016002E02D480A21F7
:103CF00001600DE02B480A2101602B480068401C40
:103D000029490860FFF784FE012801D1FEF78EFFE4
:103D100001BD2049098801801E49498841801D490B
:103D2000898881807047194909880180704700217E
:103D3000B0F9002012F5C872B2F5487F17D8B0F973
:103D4000022012F5C872B2F5487F10D8B0F90420ED
:103D500012F5C872B2F5487F09D80F4902880A8067
:103D60000D4942884A800C498088888001210800DA
:103D7000C0B2704780B5002801D1002005E01C22A8
:103D800001000748FEF77AFF012002BDF41E002063
:103D90006C1D00202C1E0020341E00203C1E002024
:103DA000501D00200C010020781E00207C1E0020E9
:103DB00062B38B0708D0521E11F8013B00F8013B9B
:103DC00000F024808B07F6D1830740F0208000BFED
:103DD000103A07D330B4B1E83810103AA0E83810E0
:103DE000F9D230BC530724BFB1E80810A0E808108E
:103DF00044BF51F8043B40F8043BD20724BF31F8DC
:103E0000022B20F8022B44BF0B7803707047083A4E
:103E100007D3B1E80810083A40F8043B40F804CB57
:103E2000F7D25307E4E7000010B582B00400012187
:103E30000C2000F038FFE4B2002C03D0022C50D04C
:103E40001FD36DE04FF40070ADF8000018208DF81E
:103E5000030003208DF8020000A9DFF8C40500F07C
:103E6000BEFF4FF48060ADF8000004208DF8030021
:103E700003208DF8020000A9DFF8A40500F0AFFFD1
:103E80004EE00420ADF8000018208DF80300032058
:103E90008DF8020000A9DFF8880500F0A0FF0820D7
:103EA000ADF8000004208DF8030003208DF8020017
:103EB00000A9DFF86C0500F092FF1020ADF80000BB
:103EC00010208DF8030003208DF8020000A9DFF810
:103ED000500500F084FF1021DFF8440500F0FCFFDE
:103EE0001EE04FF44060ADF8000018208DF803008C
:103EF00003208DF8020000A9DFF8280500F06FFF0D
:103F00004FF40060ADF8000004208DF8030003209A
:103F10008DF8020000A9DFF80C0500F060FFFFE754
:103F200013BD80B5C0B2002803D0022820D010D322
:103F30002EE04FF4C060ADF8000004208DF80300BF
:103F400003208DF8020000A9DFF8D40400F047FF39
:103F50001EE01C20ADF8000004208DF803000320B3
:103F60008DF8020000A9DFF8B80400F038FF0FE078
:103F70004FF44060ADF8000004208DF803000320EA
:103F80008DF8020000A9DFF89C0400F028FFFFE78D
:103F900001BD10B50024002004000FE02000C0B2D5
:103FA000FFF7BFFF00212000C0B201F027F820007A
:103FB000C0B2DFF8741400224254641C032CEDD309
:103FC00010BD10B50400E4B2032C52DA2000C0B2D8
:103FD000FFF72AFFE4B2DFF8580410EB840000F08A
:103FE0007DFCE4B2002C03D0022C29D014D33BE09A
:103FF0004FF400720021DFF83C04FEF748FE4FF456
:104000000072DFF83014E4B21420DFF8203400FB33
:10401000043000F044FD27E04FF400720021DFF887
:104020001804FEF734FE4FF40072DFF80C14E4B20B
:104030001420DFF8F83300FB043000F030FD13E00B
:104040004FF400720021DFF8F403FEF720FE4FF476
:104050000072DFF8E813E4B21420DFF8D03300FB7D
:10406000043000F01CFDFFE7E4B2DFF8BC030121DF
:10407000215410BD2DE9FF4104000E0090461F00A1
:104080000025E4B2DFF8A003205C012801D0002065
:10409000B5E0E4B2002C03D0022C6BD063D370E007
:1040A00001214FF4804000F0FEFDDFF89453002121
:1040B0002000C0B200F0A2FFE4B2002C01D14FF406
:1040C000614600965FFA88F8ADF80480ADF8067096
:1040D0000A98ADF808000C20ADF80A000020ADF8F1
:1040E0000C0000A9280001F04DFD012240F22551ED
:1040F000280001F0B7FD0121280001F0A5FD0121F4
:104100002000C0B200F07AFFE4B2DFF8380340F8D4
:104110002460E4B2DFF82C0350F82400B0F5167FD9
:104120001BD0B0F5966F2ED0B0F5E16F31D0B0F561
:10413000166F34D0B0F5965F37D0B0F5165F3AD031
:10414000B0F5964F3DD0B0F5164F40D0B0F5614F69
:1041500043D0B0F5E13F46D04BE0E4B2BA48282165
:1041600040F824104AE001215FF4003000F0ABFD7C
:10417000B64D9CE701215FF4802000F0A4FDB44D12
:1041800095E700203BE0E4B2AF48142140F824104A
:1041900034E0E4B2AC480C2140F824102EE0E4B244
:1041A000A9480A2140F8241028E0E4B2A6480921D1
:1041B00040F8241022E0E4B2A348082140F824107B
:1041C0001CE0E4B2A048062140F8241016E0E4B256
:1041D0009D48052140F8241010E0E4B29A480421DB
:1041E00040F824100AE0E4B29748022140F8241075
:1041F00004E0E4B29448042140F82410012004B003
:10420000BDE8F081F8B50C00150000260027002C51
:1042100005D0ADB2002D02D0C0B2032801DB0020D2
:1042200036E0C0B2002805D08A490978002901D1BA
:1042300000202DE0C0B27C49415C012901D0002062
:1042400026E0C0B2002803D002284AD021D368E07B
:104250007B4E002717E0BFB24FF4807097FBF0F160
:1042600001FB1071002901D101F094FDBFB2395D4D
:1042700089B2300001F01FFD8021300001F023FDE4
:104280000028F9D07F1CBFB2ADB2AF42E3D301200A
:10429000F2BD6E4E1021624800F01BFE002717E0B1
:1042A000BFB24FF4807097FBF0F101FB1071002951
:1042B00001D101F06FFDBFB2395D89B2300001F06C
:1042C000FAFC4021300001F0FEFC0028F9D07F1CF0
:1042D000BFB2ADB2AF42E3D31021514800F0FCFDB4
:1042E000D5E75B4E002717E0BFB24FF4807097FB15
:1042F000F0F101FB1071002901D101F04BFDBFB2BB
:10430000395D89B2300001F0D6FC8021300001F027
:10431000DAFC0028F9D07F1CBFB2ADB2AF42E3D3C4
:10432000B5E70020B4E710B50023C0B2032804DAD3
:10433000002902D092B2002A01D100201AE0C0B2B6
:10434000002805D0434B1B78002B01D1002011E041
:10435000C0B2354BC35C012B01D000200AE092B201
:10436000C0B21423314C03FB004000F0ADFB03004E
:10437000180080B210BD10B504000020E4B2032C78
:1043800001DB002022E0E4B2002C05D031480078A7
:10439000002801D1002019E0E4B22348205C012864
:1043A00001D0002012E0E4B21420204900FB0410E8
:1043B00000F088FBE4B21E4951F82410002902D015
:1043C00080B2C92801DB80B200E0002010BD214985
:1043D0000870704710B5040000200021E4B2002CE2
:1043E00003D0022C18D015D318E0154801F067FC53
:1043F0000100E4B20E48E4B2134A52F8242040F817
:104400002420C9B2E4B21420084A00FB042000F0C2
:1044100088FB10BD0D48E9E70D48E7E7F9E7000024
:1044200000080140000C0140B41E0020D01C0020F8
:10443000041E0020B0120020B0140020B01600208E
:1044400000380140101E0020E80000200044004019
:1044500000480040151F0020C0B2412801DB37385A
:1044600000E03038C9B2412901DB373900E030398A
:1044700051EA0010C0B2704780B578480021017041
:104480007748002101707748002101700121402008
:1044900000F0F9FB01F08AFC012000F08EFF0128FA
:1044A00003D06E480121017005E06C4802210170C3
:1044B0006D48EE21017001BD70B504000D000026AD
:1044C00000200021664A1278002A03D06448007850
:1044D000052867D1002C01D0012D03DA60480121A5
:1044E00001705FE020783A2801D1072D03DA5C489B
:1044F0000221017056E000260AE014EB46008178A4
:1045000014EB46004078FFF7A7FF58497054761C1B
:10451000681E022190FBF1F08642EEDB5348C07822
:10452000042809D1514800795049497951EA0020BD
:1045300000044F49086035E04C48C078002831D16C
:104540004A4840784949897851EA00204949086039
:104550004948464909780170454800684549096855
:1045600008184649411AB1F5D04F03D33C480321FE
:10457000017017E010F5D0413F480378404A012010
:1045800000F0A7FE012803D035480421017009E09E
:104590003348052101703B480068374909780818FD
:1045A0003849086070BD10B588B000A81C21FEF71E
:1045B0006BFB002000242A490978052903D02948EB
:1045C0000121017047E0042000F0F7FE012803D02C
:1045D0002448022101703EE001F0E8FB2948006810
:1045E000C01C84082100284801F0E4FB4BF6DB5195
:1045F000ADF800104FF6FF71ADF8021000210191E7
:104600000121ADF808101C21ADF80A1003901E48D6
:104610000490A00005904FF6FF70ADF818004FF61B
:10462000FF70ADF81A0001F0C1FB0524210002A8BB
:1046300001F0C0FB01901C2200A9042000F099FEAB
:10464000012803D007480321017002E00548042136
:104650000170FEF7B1FF08B010BD00000D1F002073
:104660000E1F00200F1F0020111F0020601B0020C4
:10467000941E0020981E0020101F0020001000082B
:10468000641B0020901E00200078000880B51D48A3
:1046900000F024F901BD38B5002500240220194995
:1046A000096800292AD117480A21016009250CE070
:1046B0002800C0B2FFF761F9C0B2002804D1012080
:1046C000B5F10901884004436D1CEDB20C2DEFDB00
:1046D0000D4800880D490988884208D00B48008899
:1046E0002100C9B289B2884201D1FEF79BFA06487F
:1046F0000649098801800548E4B2048031BD0348B9
:104700000088704734010020FE1E0020FC1E00209F
:1047100040B2002808D540B210F00F00AA4A801815
:10472000090100F8041C03E040B2A84A09018154C1
:10473000704780B5411EB1F1807F01D301200EE0AA
:10474000401EA34908600F215FF0FF30FFF7E0FF34
:10475000A04800210160A04807210160002002BD9F
:1047600080B54BF68030FFF7E4FF002800D0FEE76D
:1047700001BD10B50024002098490968491C974ADA
:10478000116097490968002904D095480068401EC7
:1047900093490860002413E0A4B2924850F8240022
:1047A00000280CD0A4B28F4850F8240000680028DC
:1047B00005D0A4B28B4951F82410401E0860641C37
:1047C00089480088A4B28442E6D38848006800285B
:1047D00005D086480068401E8449086015E083487B
:1047E0000921016000240BE0A4B2814850F82400A4
:1047F000002804D0A4B27E4850F824008047641CEE
:104800007C480088A4B28442EED37B48006800282C
:1048100005D079480068401E7749086017E076485F
:10482000C721016000240DE0A4B2714810EB8400A0
:10483000806A002805D0A4B26D4810EB8400806A1D
:104840008047641C6B484088A4B28442ECD36B4818
:104850000068002805D069480068401E6749086064
:1048600018E0664840F2F311016000240DE0A4B2A4
:104870005F4810EB8400006D002805D0A4B25C48AE
:1048800010EB8400006D8047641C5A488088A4B2F5
:104890008442ECD35A480068002805D05848006884
:1048A000401E5749086018E0554840F2E731016062
:1048B00000240DE0A4B24E4810EB8400806F002865
:1048C00005D0A4B24A4810EB8400806F8047641C76
:1048D0004848C088A4B28442ECD310BD10B4010093
:1048E00000200022002901D1002021E0002200E068
:1048F000521C1300DBB23C4C24889BB2A34207D26B
:10490000D2B2384B53F822308B42F1D100200FE065
:10491000354A1288642A0ADA0120334A1288314B58
:1049200043F8221030490988491C2F4A1180C0B22F
:1049300010BC704770B40A0000210023C0B20428E4
:1049400039DA1300002B36D0002300E05B1C1C007A
:10495000E4B2C0B2274D35F81050A4B2AC420FD229
:10496000C0B2244C34F81040C0B22825204E05FBBC
:10497000006555F824401500AC42E7D100201CE04A
:10498000C0B21C4B33F810300A2B14DA0121C0B22C
:10499000184B33F81030C0B22824154D04FB0054D6
:1049A00044F82320C0B2134A32F81020521CC0B27F
:1049B000104B23F810200800C0B270BC70470748A5
:1049C000006870470000000018ED00E000E400E01F
:1049D00014E000E018E000E010E000E0B01E00206D
:1049E0009C1E0020B0180020001F0020A01E0020E8
:1049F000401A00206C1E0020A41E0020A81E0020CB
:104A0000AC1E002000B500BF130096469446103936
:104A100028BFA0E80C50FAD85FEA417C28BF0CC040
:104A200048BF40F8042BC90728BF20F8022B48BF15
:104A300000F8012B00BD000062F30F2262F31F4259
:104A4000401810F0030308D0C91A1FD3DB0748BF72
:104A500000F8012D28BF20F8022D130030B41446B1
:104A60001546103928BF20E93C00FAD8490728BF6D
:104A700020E90C0048BF40F8042D890028BF20F829
:104A8000022D48BF00F8012D30BC7047C91818BF6F
:104A900000F8012DCB0728BF00F8012D70470280D8
:104AA00000234380416092B2511881604168C16027
:104AB000416801617047002141804168016141689E
:104AC000C16070474088704730B4030000205C88A4
:104AD000002C06D092B2002A03D0002901D0002B6E
:104AE00001D100201BE0002011E01C69651C1D6144
:104AF00024780C70491C1C699D68AC4201D35C6829
:104B00001C6172B65C88641E5C8062B6401C80B218
:104B100092B2904202D25C88002CE6D180B230BCC6
:104B20007047002803D0428803889A4201D30020AE
:104B30000FE0C268531CC3601170C1688268914263
:104B400001D34168C16072B64188491C418062B698
:104B50000120704730B4002392B2002A03D000290C
:104B600001D0002801D100201EE0002311E0C4681C
:104B7000651CC5600D782570491CC4688568AC4209
:104B800001D34468C46072B64488641C448062B631
:104B90005B1C9BB292B2934204D204884588641B8A
:104BA000012CE4DA180080B230BC70475749086025
:104BB00070470021544A1268110031F4404101430A
:104BC00051480160704730B40022002100230024C6
:104BD0004D4D2D6815F00C052A00002A04D0042A3A
:104BE00005D0082A06D021E04949016020E0484963
:104BF00001601DE04449096811F47011424A1268CD
:104C000012F48033890C891C002B03D1414A514393
:104C100001600AE03C4A1268920303D53D4A5143C1
:104C2000016002E03A4A5143016001E03849016005
:104C30003549096811F0F00212093749545C0168DE
:104C4000E14041603049096811F4E062120A3249DA
:104C5000545C4168E14081602B49096811F460525D
:104C6000D20A2D49545C4168E140C1602649096877
:104C700011F44042920B2949545CC168B1FBF4F134
:104C8000016130BC7047C9B2002905D024490968C8
:104C900008432349086005E02149096831EA00001A
:104CA0001F4908607047C9B2002905D01D4909682D
:104CB00008431C49086005E01A49096831EA000008
:104CC000184908607047C9B2002905D0164909681B
:104CD00008431549086005E01349096831EA0000F6
:104CE000114908607047C9B2002905D00F49096809
:104CF00008430E49086005E00C49096831EA0000E4
:104D00000A4908607047000004100240D80042427F
:104D100000127A0000093D00D80000204001002068
:104D200014100240181002401C1002400C100240E7
:104D300080B58A49884208D101210420FFF7D3FFBA
:104D400000210420FFF7CFFF48E08549884208D1C1
:104D500001210820FFF7C7FF00210820FFF7C3FF4C
:104D60003CE08049884208D101211020FFF7BBFFB9
:104D700000211020FFF7B7FF30E07B49884208D1BF
:104D800001212020FFF7AFFF00212020FFF7ABFF1C
:104D900024E07649884208D101214020FFF7A3FF93
:104DA00000214020FFF79FFF18E07149884208D199
:104DB00001218020FFF797FF00218020FFF793FF5C
:104DC0000CE06C49884209D101214FF48070FFF753
:104DD0008AFF00214FF48070FFF785FF01BDF0B41A
:104DE00000220026002400250023002791F803C09C
:104DF0001CF00F0C624691F803C05FEACC6C01D541
:104E00008B781A430B781B0621D00368002406E038
:104E1000CD78482D02D10125A5400561641C082CE0
:104E200014D20125A5400E882E40AE42F6D1A50031
:104E30000F2616FA05F7BB4312FA05F52B43CD787A
:104E4000282DE5D10125A5404561E7E703600B88E2
:104E5000FF2B26DD4368002420E0012514F108061D
:104E6000B5400E882E40AE4217D1A5000F2616FA87
:104E700005F7BB4312FA05F52B43CD78282D04D155
:104E8000012514F10806B5404561CD78482D04D1BF
:104E9000012514F10806B5400561641C082CDCD31B
:104EA0004360F0BC70470022806889B2084201D09C
:104EB000012200E000221000C0B270470022C0684A
:104EC00089B2084201D0012200E000221000C0B2E5
:104ED000704789B20161704789B24161704770B40F
:104EE0000022002400230025002802D5224A13684E
:104EF00001E0224A1368C0F3034582B210F4401463
:104F0000B4F5401F08D133F070631C4C246834F0B2
:104F100070641A4D2C600FE0C40205D50324AC4028
:104F2000A34353F0706307E0440DE4B2240112FA86
:104F300004F4A34353F07063C9B2002905D0410DB6
:104F4000C9B2090112FA01F10B43002802D50A483F
:104F5000036001E00948036070BC7047000801402D
:104F6000000C0140001001400014014000180140F5
:104F7000001C0140002001401C00014004000140D1
:104F800080B509480949016007480068022101729B
:104F9000074808490160084808490160044800685A
:104FA0000068804701BD00BFD41E0020881D00207E
:104FB000D81E002000000020DC1E00203000002051
:104FC00080B505495FF0006000F040FF4FF4A0603D
:104FD00000F004FF01BD00000010000880B51221A0
:104FE0008DF8001002218DF8011000218DF80210BB
:104FF0008DF8030000A800F0F6FE01BD80B5252263
:10500000C0B2002803D0022812D00FD312E025220C
:105010008DF8002002208DF8010000208DF802009C
:105020008DF8031000A800F0DEFE01BD2622EFE798
:105030002722EDE7F9E780B514218DF80010022151
:105040008DF8011000218DF802108DF8030000A8E2
:1050500000F0C9FE01BD000010B5002434480078FE
:1050600001281DD040213348334A926890470400FC
:10507000A4B2002C03D12E480021017010E02C486E
:1050800001210170220092B2C0212A48FCF7B6FF2C
:10509000210089B20120FCF75EFF0120FCF7AEFE83
:1050A00010BD10B500242248007801281AD14021F3
:1050B0002048214A926890470400A4B2002C03D1F2
:1050C0001B48002101700DE0220092B2C021194856
:1050D000FCF794FF210089B20120FCF73CFF01207E
:1050E000FCF78CFE10BD80B51449032000F0D6FEFD
:1050F000010089B21148104AD26890470320FCF79A
:1051000094FE01BD80B50E48006805280BD10D48FE
:105110000068411C0B4A1160052804D10948002190
:105120000160FFF799FF01BD014800210170704740
:10513000181F0020901C0020C8000020501C0020D8
:10514000E81E0020D01E00200123C0B2002806D097
:10515000022816D00CD3042825D01BD32CE000291C
:1051600001D0B7480860002A01D0B648106024E09A
:10517000002901D0B4480860002A01D0B34810606B
:105180001BE0002901D0B2480860002A01D0B148D4
:10519000106012E0002901D0AF480860002A01D059
:1051A000AE48106009E0002901D0AD480860002A2F
:1051B00001D0AC48106000E000231800C0B2704776
:1051C00010B400239E4C041BB4F5704F01D3002093
:1051D0000DE0002901D0002A01D1002007E00023C2
:1051E00002E01C5C5C545B1C9342FAD3012010BCAF
:1051F00070472DE9F84304000D00160004275FF006
:1052000000095FF00008002000218D4AA21AB2F5C3
:10521000704F01D300202EE0002D01D0002E01D1CF
:10522000002028E000F050FEF00703D5700810F1D0
:10523000010801E05FEA56085FF0000901E019F19A
:105240000109C1450FD214EB490015EB490149781A
:1052500015F8192012EB012189B200F078FE070041
:10526000FFB2042FEBD000F03AFEFFB2042F01D0C2
:10527000002000E00120BDE8F283F0B583B00C000F
:1052800015001E0000210191002100910027C0B2ED
:10529000052803DA002D01D0002E01D1002017E0EF
:1052A00000AA01A9C0B2FFF74FFF002801D10020DA
:1052B0000EE00198844209D330190099884205D242
:1052C000320029002000FFF77BFF07003800C0B242
:1052D000FEBDF0B583B00C0015001E000021019149
:1052E000002100910027C0B2052803DA002D01D06B
:1052F000002E01D1002017E000AA01A9C0B2FFF7DB
:1053000023FF002801D100200EE00198844209D338
:1053100030190099884205D2320029002000FFF799
:1053200068FF07003800C0B2FEBD30B583B00C0086
:10533000150000210091002101910021C0B2052833
:1053400003DA002C01D0002D01D1002010E001AAC9
:1053500000A9C0B2FFF7F8FE002801D1002007E045
:105360002A0021000098FFF72BFF01000800C0B2BF
:105370003EBD30B583B00C00150000210091002126
:1053800001910021C0B2052803DA002C01D0002DC4
:1053900001D1002010E001AA00A9C0B2FFF7D4FE9D
:1053A000002801D1002007E02A0021000098FFF723
:1053B00020FF01000800C0B23EBDF8B50100042482
:1053C0000025002600200027C9B2002906D00229A6
:1053D00012D00ED3042915D011D316E0184D1A2679
:1053E00000F072FD352000F0D8FD002E1ED0002701
:1053F0000EE0154D1A26F3E7154D0226F0E7164D7F
:105400000226EDE7164D0226EAE7002016E07F1C93
:10541000B7420BD24FF4806000FB075000F068FDEC
:10542000040000F0B7FCE4B2042CF0D000F057FD0B
:10543000E4B2042C01D0002000E00120F2BD000005
:1054400000100008FF77000800780008FFDF000860
:1054500000E00008FFE7000800F00008FFF7000880
:1054600000F80008FFFF000880B501210420FFF7C5
:105470001AFC6020ADF8000000208DF80300032026
:105480008DF8020000A95748FFF7A9FC01BD00B53F
:1054900085B05548052101605348062141605348B5
:1054A000002101705148002181714FF48040FFF7C5
:1054B00080FB01214FF40070FFF7F5FB0120FFF79F
:1054C0008DFD4B4800F0A4FD00A800F0F5FD002084
:1054D000009000208DF8040000208DF805005FF496
:1054E00060200290002003903F4800688DF8100073
:1054F00000A93F4800F0BAFD01224FF408713C4872
:1055000000F0F4FD01213A4800F0E3FD384800F0D6
:10551000FCFD374800F0FEFD0028FAD1344800F0C9
:1055200003FE334800F005FE0028FAD107230122CC
:105530002D480168C9B22E4800F012FE2B48012107
:10554000817101212A4800F0FEFD05B000BD80B543
:1055500000202649897900291DD124480121817123
:1055600022480078401C2149087020480078022811
:1055700002DB1E48002101701C480078072301222D
:10558000194951F82010C9B2194800F0E9FD01216C
:10559000174800F0D8FD01BD80B5FFF765FFFFF7A4
:1055A00076FF14490020FFF7C5F901BD10B50024AE
:1055B0000E48007804000E4800F034FE0B4911EB51
:1055C0004401488009480021817110BDC0B2022801
:1055D00005DAC0B2054911EB4000408800E0002028
:1055E0007047000000080140541E00205C1E00208F
:1055F000002401404F55000880B580221B4903203C
:10560000FFF793FE01BD10B51400C0B2002801D011
:10561000002015E0C0B2002806D1002903D0802266
:105620001248FDF72BFBFFE7E4B2002C07D0032064
:10563000FFF7C3FE80220D490320FFF79AFE0120E9
:1056400010BD80B50B00C0B2002801D1002B01D1E4
:1056500000200AE0C0B2002806D1802203491800C9
:10566000FDF70CFB012000E0002002BDE01A002045
:10567000002848BF4042704780B5DFF8E404006866
:1056800000904020ADF8000014208DF803000320A6
:105690008DF8020000A9DFF8CC04FFF7A0FB802002
:1056A000ADF8000014208DF8030003208DF80200EF
:1056B00000A9DFF8B004FFF792FB01BD80B5DFF869
:1056C000A804006800904020ADF8000004208DF888
:1056D000030003208DF8020000A9DFF88804FFF71B
:1056E0007EFB8020ADF8000004208DF8030003202D
:1056F0008DF8020000A9DFF86C04FFF770FB01BD14
:10570000282000E0401E80B20028FBD1704780B501
:105710004021DFF85004FFF7DCFB01BD80B54021DC
:10572000DFF84004FFF7D8FB01BD80B58021DFF82A
:105730003404FFF7CEFB01BD80B58021DFF82404DF
:10574000FFF7CAFB01BD10B500248021DFF8140467
:10575000FFF7A9FB012800D101242000C0B210BD31
:1057600080B5FFF7E2FFFFF7D2FFFFF7C9FFFFF7B2
:10577000EAFF002801D100200EE0FFF7DDFFFFF770
:10578000BFFFFFF7E0FF002801D0002004E0FFF793
:10579000D3FFFFF7B5FF012002BD80B5FFF7BEFFC5
:1057A000FFF7AEFFFFF7C8FFFFF7AAFFFFF7AFFF56
:1057B000FFF7A6FFFFF7B9FFFFF7A2FF01BD80B516
:1057C000FFF7ACFFFFF79CFFFFF7B6FFFFF798FF6F
:1057D000FFF79DFFFFF794FFFFF7A0FFFFF790FF94
:1057E00001BD80B5FFF79AFFFFF78AFFFFF79DFF26
:1057F000FFF786FFFFF78BFFFFF782FFFFF78EFFB4
:10580000FFF77EFF01BD80B5FFF788FFFFF778FF48
:10581000FFF78BFFFFF774FFFFF779FFFFF770FFCC
:10582000FFF791FF002803D0FFF778FF002002E088
:10583000FFF774FF012002BD38B50400082508E019
:10584000FFF77AFF6400FFF75BFFFFF760FFFFF7EA
:1058500057FF2800451EC0B2002808D0FFF75EFFA2
:10586000FFF74EFF2006EBD5FFF75FFFEAE7FFF7F4
:1058700055FF31BD38B508240025FFF756FF0EE06F
:105880006D00FFF74BFFFFF73BFFFFF740FFFFF710
:1058900037FFFFF758FF002801D055F00105200021
:1058A000441EC0B20028EBD1FFF738FF2800C0B279
:1058B00032BD70B504000D001600FFF751FF00283F
:1058C00001D100201AE016F0FE00FFF7B5FFFFF748
:1058D0009AFF002803D1FFF760FF00200EE02800A8
:1058E000C0B2FFF7A9FFFFF78EFF2000C0B2FFF79D
:1058F000A3FFFFF788FFFFF750FF012070BDF8B549
:1059000004000D0016001F00EDB2002D01D1002093
:1059100034E0FFF725FF002801D100202EE017F02A
:10592000FE00FFF789FFFFF76EFF002803D1FFF7A6
:1059300034FF002022E03000C0B2FFF77DFFFFF708
:1059400062FFFFF70DFF57F00100C0B2FFF774FFD1
:10595000FFF759FF03E0FFF732FF641C6D1EEDB245
:10596000002D08D0FFF786FF2070EDB2012DF2D197
:10597000FFF737FFF1E7FFF710FF0120F2BD10B589
:1059800082B0002400208DF80000784800780128BB
:1059900044D0FFF771FE32230F2201217448FFF734
:1059A000AEFF73480078332835D14F2400208DF89E
:1059B0000000322220212000C0B2FFF77AFF3223FC
:1059C0002022012100A8FFF79AFF9DF80000E4B211
:1059D000A04203D06548FF2101701FE01824002079
:1059E0008DF80000322223212000C0B2FFF761FFB2
:1059F00032232322012100A8FFF781FF9DF8000038
:105A0000E4B2A04203D05948FC21017006E0574897
:105A10000121017002E055480021017013BD80B5DD
:105A2000FFF74CFE5348FEF759FF52484FF47A7186
:105A300001604E480021017001BD30B583B0040003
:105A400000A80021002206C0083800254748007839
:105A5000012807D047480068002801D1FFF78FFFD1
:105A6000002078E0444800210170322327220121E0
:105A70004148FFF744FF012801D000206BE03E4879
:105A800000780721084201D1002064E000250AE0E7
:105A9000322315F12802D2B20121EDB2374828187D
:105AA000FFF72DFF6D1CEDB2062DF1DB334840787A
:105AB0004FF48071314A127801FB0020ADF80000EC
:105AC0002E48C0784FF480712C4A927801FB002058
:105AD000ADF80200294840794FF48071274A1279C5
:105AE00001FB0020ADF80400BDF9000000F0C8FB88
:105AF0005FF0824100F0DCFB5FF08F4100F044FC7E
:105B00001F4900F0D5FB00F0BDFC2080BDF902006C
:105B100000F0B6FB5FF0824100F0CAFB5FF08F41FE
:105B200000F032FC164900F0C3FB00F0ABFC6080D3
:105B3000BDF9040000F0A4FB5FF0824100F0B8FB67
:105B40005FF08F4100F020FC0D4900F0B1FB00F048
:105B500099FCA08001203EBD0448007870470000F9
:105B6000B0710008000C0140B4710008131F002040
:105B7000121F002038010020141F0020641E002086
:105B800000007A44F0B585B004000D00002000212B
:105B9000002200230026AF89002F2600208A4CF621
:105BA000FF710840E98808432082A0894EF6F3116E
:105BB0000840A9882A8911436A8911430843A081B2
:105BC000A08A4FF6FF410840A9890843A08200A897
:105BD000FEF7F9FF1B48864201D1039900E00299C4
:105BE000A089000407D5192000FB01F029684900AD
:105BF000B0FBF1F206E0192000FB01F029688900F2
:105C0000B0FBF1F26420B2FBF0F000010109642363
:105C100003FB1123A189090408D5D900323164227C
:105C2000B1FBF2F111F00701084307E0190132312D
:105C30006422B1FBF2F111F00F010843208105B09D
:105C4000F0BD000000380140C9B2002904D08189AC
:105C500051F40051818104E081894DF6FF721140B9
:105C600081817047F0B4002300240025002689B20A
:105C700040F66A17B94206000800C0B24309DBB219
:105C800089B211F01F04012010FA04F5012B01D193
:105C90000C3604E0022B01D1103600E01436D2B2EB
:105CA000002A03D030682843306002E03068A843FF
:105CB0003060F0BC7047C905C90D8180704780888D
:105CC000C005C00D7047002289B2B1F5007F008881
:105CD000084201D0012200E000221000C0B270474B
:105CE00070B4002300240025002289B240F66A1611
:105CF000B1420A00D2B25509EDB289B211F01F04C7
:105D0000012212FA04F4012D02D18289144006E026
:105D1000022D02D1028A144001E0828A144089B225
:105D20000B0A9BB2012111FA03F300880340002CF7
:105D300003D0002B01D0012200E000221000C0B2ED
:105D400070BC704710B40022002389B240F66A1478
:105D5000A14289B20A0A012111FA02F39BB2D94386
:105D6000018010BC7047000080B545F2555000F02E
:105D7000ABFB032000F0ACFB0A480068800980B24E
:105D800000F0AAFB00F0ACFB00F0AFFB0648EC21F2
:105D9000017001BD80B504480078EC2801D100F005
:105DA0009FFB01BD3C010020161F00200948012176
:105DB0000160704710B4002200231A0004E050F87C
:105DC0002230054C2360521C8A42F8D302480068F6
:105DD00010BC704708300240003002401E490843A2
:105DE0001E490860704710B4002100220F23C478B8
:105DF000002C1ED01949096811F4E061D1F5E06169
:105E0000090AD1F10402CB404178914082781A40CE
:105E1000114309010278124BD15401784911114AFA
:105E20000123007810F01F0013FA00F042F821005F
:105E30000AE0017849110C4A0123007810F01F0094
:105E400013FA00F042F8210010BC7047074A1140D5
:105E500008430749086070470000FA050CED00E0B0
:105E600000E400E000E100E080E100E080FFFF1FCF
:105E700008ED00E006480021016006484FF43F416C
:105E8000018005480349098801600020704700002F
:105E9000445C0040021F0020405C004070B50400DC
:105EA0000D00002614F07F00FCF785F8060014F0C2
:105EB0007F00FCF743F8320092B2010089B228005B
:105EC000FCF7B5F8300070BDDFF80001DFF8001115
:105ED0000160DFF8F800DFF8FC1001607047DFF8C0
:105EE000F800006850F08000DFF8EC1008607047A0
:105EF00038B5040004255FF4302000F073F8050085
:105F0000EDB2042D20D1DFF8D000006850F002007F
:105F1000DFF8C4100860DFF8C4000460DFF8B800E0
:105F2000006850F04000DFF8B01008605FF43020E7
:105F300000F058F80500DFF8A000006841F6FD7198
:105F40000840DFF8941008602800C0B232BD70B578
:105F500004000D0004264FF4005000F043F8060042
:105F6000F6B2042E16D1DFF87000006850F0010080
:105F7000DFF86410086025804FF4005000F032F81C
:105F80000600DFF85400006841F6FE710840DFF8B3
:105F9000481008603000C0B270BD114908607047F9
:105FA00004200F490968C90701D501200CE00C48FD
:105FB0000068400701D5022006E009480068C006D5
:105FC00001D5032000E00420C0B270470420024045
:105FD00023016745AB89EFCD102002401420024019
:105FE0000C20024038B504000425FFF7D9FF050056
:105FF00003E0FFF7D5FF0500641EEDB2012D01D1CE
:10600000002CF6D1002C00D105252800C0B232BDED
:1060100080B5DFF8181288420AD101214FF40070D0
:10602000FEF761FE00214FF40070FEF75CFE1CE0FD
:10603000DFF8FC1188420AD101214FF48060FEF79D
:1060400052FE00214FF48060FEF74DFE0DE0DFF8B8
:10605000E411884209D101214FF40040FEF743FECC
:1060600000214FF40040FEF73EFE01BD30B4002396
:10607000002244682300DFF8C04123400C680D79FA
:1060800054EA0524234343608368DFF8B04123408A
:10609000CC688D682C434D7954EA450423438360D2
:1060A000C36A33F47003097C491E0A43D2B253EA2F
:1060B0000253C36230BC70470021016000210171AE
:1060C00000214171002181600021C1600121017422
:1060D0007047C9B2002904D0816851F00101816084
:1060E00003E08168490849008160704700230B0084
:1060F000D2B2002A04D04168DBB21943416003E008
:106100004168DBB2994341607047816851F00801F2
:106110008160704700218068000701D5012100E0FF
:1061200000210800C0B27047816851F0040181600D
:10613000704700218068400701D5012100E000215F
:106140000800C0B27047C9B2002904D0816851F478
:10615000A001816003E0816831F4A0018160704793
:10616000F0B400240025C9B20A2911DBC468072550
:10617000B1F10A0603277E43B540AC43DBB2B1F16F
:106180000A050326754313FA05F52C43C4600EE097
:1061900004690725032606FB01F6B540AC43DBB2D4
:1061A000032505FB01F513FA05F52C430461D2B272
:1061B000072A10DA446B1F23551E0526754313FA70
:1061C00005F5AC43C9B2521E05235A4311FA02F534
:1061D0002C43446324E0D2B20D2A10DA046B1F234F
:1061E000D51F0526754313FA05F5AC43C9B2D21F76
:1061F00005235A4311FA02F52C43046310E0C46AE4
:106200001F23B2F10D050526754313FA05F5AC43BE
:10621000C9B20D3A05235A4311FA02F52C43C46260
:10622000F0BC7047C06C80B2704700000024014091
:1062300000280140003C0140FFFEF0FFFDF7F1FFA8
:1062400030B400220023002489B20D0AADB22B0025
:106250004568C9B229400C000068184203D0002CE0
:1062600001D0012200E000221000C0B230BC704713
:10627000002289B2090A0A00D2B2D14301607047F4
:10628000002840F10780F446404200F003F850F047
:10629000004060470AD0B0FA80F18840D1F19D01FA
:1062A000C905020672F1004241EB10207047000060
:1062B000FF2212EAD05C1DBF12EAD15394459342EB
:1062C0002BE09C44D30780EA01021A4043EA0020F5
:1062D00043EA0121A1FB0030410038BF40007CF1BE
:1062E0007F010BDBFE294ADA5B0842EAC15153EA1F
:1062F000006373F1004C51EB10207047D1F1080C92
:10630000DCF120012FDB5B0810FA01F10B4373F184
:10631000004120FA0CF05041704794451CBF02EA3E
:10632000D153934280EA010202F000421DD04000A6
:1063300019D0490017D05BB9634514D00902B1FAEE
:1063400081F39940BCEB030CC00140F00040C1E771
:106350000002B0FA80FC10FA0CF0B3EB0C0CC9018F
:1063600041F00041B6E71000704740000AD04900F4
:1063700008D010F1807F94BF11F1807F02E042F0DD
:10638000FF407047D043704710B5FF2313EAD05445
:106390001DBF13EAD1529C429A4239E0A41ADA078F
:1063A00080EA0103134042EA012142EA0020421A36
:1063B0003CBF641E01EB4202090AB2FBF1FE01FB85
:1063C0001E221202B2FBF1F001FB10226EF30F202D
:1063D0001202B2FBF1FE4EEA00207F3406DDFE2CF5
:1063E00024DA53EA500050EBC45010BDD4F102043B
:1063F00001FB1E2240F08071192C1DDC21FA04F0F3
:10640000C4F12004A140114371F10042584110BD74
:106410009C421ABF03EAD1529A420FE080EA010E71
:106420000EF00043400004D0490016D143F0FF4075
:1064300010BD490008BFD343180010BD9C4205D1D0
:10644000D21AF7D001F00041484010BD4A0212BFF5
:106450000846484000F0004010BD4AB90902B1FAB0
:1064600081F2914044B1A418C00140F000409EE781
:10647000C90141F0004152420002B0FA80F4A0404C
:10648000141B94E74100090E7F3915D4D1F11F0187
:1064900014D4400007D2C00140F00040C84048BFBB
:1064A0006FF000407047C00140F00040C8404CBF52
:1064B0004FF00040404270470020704700424FF0CC
:1064C000004058BFC04370470A4980B20860704717
:1064D0000949C0B208607047084980B20860704737
:1064E00004484AF6AA210160704702484CF6CC41A4
:1064F0000160704700300040043000400830004028
:1065000080B500F040F9884800680021817200F0F1
:106510001FF9FFF7AFFC85480021016001BD80B580
:1065200081480068002181727F4800688049C979EC
:1065300041727D4800680021C1720020FBF711FC08
:106540004FF400710020FBF713FC10210020FBF733
:106550001FFC40210020FBF7D4FC80210020FBF72A
:10656000C0FC0020FBF778FC724890F82C1089B230
:106570000020FBF7FDFC0020FBF757FC0021012069
:10658000FBF7F6FBC0210120FBF7ABFC202101202B
:10659000FBF7FEFB00210120FBF715FC4FF4C06167
:1065A0000220FBF7E5FB4FF480710220FBF799FC1A
:1065B00000210220FBF707FC20210220FBF7E8FB6B
:1065C00000210320FBF7D4FB4FF488710320FBF775
:1065D00098FC40210320FBF7CBFC4FF440510320F3
:1065E000FBF7F1FB00210320FBF7D2FB0020FBF7B8
:1065F00057FB4E480121016001BD4F48807A0028B9
:1066000002D04A48052101607047484804210160D2
:1066100070474A480078202802D14848002101707C
:106620007047704780B50021C0B2212809D13E488B
:106630000068007810F07F00212811D10FF2B90115
:106640000EE0C0B220280BD137480068007810F067
:106650007F00212801D10FF2B901384820220270B1
:106660000800002801D1022009E02F48006881615C
:106670002D4800680022428200208847002002BD89
:1066800029490968097811F07F01212909D1C0B28F
:10669000022801D1002005E0C0B2222801D100204B
:1066A00000E00220704780B5254980B2FAF756FF16
:1066B00002BD80B5234980B2FAF750FF02BD80B514
:1066C00019490968C978C9B2042901DB002006E02C
:1066D000C9B21D4A12EBC10180B2FAF73FFF02BDF9
:1066E000C9B2002901D0022005E0C0B2022801DBB6
:1066F000022000E00020704780B2002805D10A483F
:10670000006808210182002000E010487047000066
:1067100080B2002805D104480068082101820020C9
:1067200000E00A4870470000D41E0020E81E002048
:10673000E86F000800000020881D00201B1F0020BB
:10674000FC0000200401002054000020F400002080
:1067500010B501206C4980B208606C4800210180AE
:1067600069486A4909880160694804680020FBF7A4
:10677000F3FA66484FF4E0510180634863490988A1
:106780000160002010BD60480121016060480021C7
:1067900001605D48032101600020704700215A48D4
:1067A00000680022110007E05A4A5B4B53F8213081
:1067B0009BB242F82130491C0829F5D350F480607F
:1067C000514980B2086050F001004F4980B2086022
:1067D0004FF6FE7108404C4980B208604C49096888
:1067E0004905FBD54A494FF6FF320A60002107E010
:1067F000494A484B53F821309BB242F82130491C9A
:106800000829F5D350F008003F4980B208603E489F
:10681000006850F004003C4980B2086070473A4874
:1068200000684FF6FB710840374980B2086036486F
:106830004FF43F410160704780B5C0B2072801D0D6
:106840003649087035480078002808D002281DD045
:1068500013D304282ED020D3052839D050E0304857
:106860000068002805D1FFF7DAFF2C4806210170E7
:1068700002E02A480521017045E0FFF7D0FF2748D4
:10688000042101702648012101603CE023480221D7
:10689000417022480321017035E020484078401EB5
:1068A0001E4948701D484078002802D11B48042129
:1068B000017028E01448006850F01000124980B2BE
:1068C000086016480521017014480A2141701AE039
:1068D00012484078401E11494870104840780028FE
:1068E0000DD1094800684FF6EF710840064980B2A3
:1068F00008600A480621017009480021016002E091
:1069000006480621017001BD405C0040021F0020C6
:10691000445C0040301D0020005C0040EC1E002064
:10692000F01E002080B50020ADF8000039E0864858
:106930000078864951F82000ADF80000BDF800004D
:10694000000414D580480078804951F8200040F6B2
:106950008F7108407C4909787C4A42F821007A48C6
:1069600000787B4911EB800050F8040C8047BDF89B
:106970000000000615D574480078744951F82000CD
:1069800080B248F60F7108406F4909786F4A42F8A3
:1069900021006D4800786F4911EB800050F8040C1D
:1069A00080476D4800686D490880000440F1CA8046
:1069B0006A48008810F00F00634908706248007848
:1069C0000028B4D16648614909680180644800889C
:1069D00010F03000634908806148008810F440508E
:1069E0005F4908805948006880B24BF6BF71084083
:1069F00090F4005090F0200080B240F4004050F03D
:106A000080005249086055480088C0062FD44F487E
:106A1000006880B248F60F7108404C490860FBF7E7
:106A2000C6F84A48006880B24BF6BF7108404C492E
:106A30000988C90401D590F480504949098889041E
:106A400001D590F4005047490988C90601D590F056
:106A5000100044490988890601D590F0200080B2D1
:106A600040F4004050F08000384908606AE0374840
:106A70000068ADF80000BDF8000000052ED53348D1
:106A8000006840F68F71084030490860FBF745F810
:106A90002E48006880B24BF6BF7108403049098823
:106AA000C90401D590F480502D490988890401D585
:106AB00090F400502B490988C90601D590F01000C8
:106AC00028490988890601D590F0200080B240F459
:106AD000004050F080001D49086033E0BDF8000020
