:020000040800F2
:101000005828002059690008856500088765000890
:1010100000000000000000000000000000000000D0
:1010200000000000000000000000000089650008CA
:1010300000000000000000008B6500088D650008BE
:10104000B3430008634A00089B4F0008EF590008AB
:101050005B5C0008435D00087F5D0008A566000832
:10106000CB660008CB6800080F6A0008276A0008F2
:101070009D650008296A00082B6A00082D6A00088F
:101080002F6A0008316A0008336A0008356A0008D0
:10109000376A0008396A00083B6A00083D6A0008A0
:1010A0003F6A0008416A0008436A0008C3650008F7
:1010B000ED650008176600084166000877660008BD
:1010C000002100E0491CC9B20A00022A07DA434B9A
:1010D00052009A1813788342F4D1507870470F2049
:1010E0007047002100E0491CC9B20A00022A07DA51
:1010F0003A4B52009A1853788342F4D110787047D3
:1011000003207047F8B507000C0000263500002FBB
:1011100005D0002C03D0F8780830904201DB284637
:10112000F2BD7E20207078786070B878A070F87872
:10113000E070FA783900091D2000001D00F04EFC17
:10114000F878001D80B203E0615C6D18EDB2761C8A
:10115000B6B231008142F7DB2554401C80B20D212C
:101160002154401C80B20A212154401C80B2F2BD9F
:10117000F4B5C2B006000C001D0068468421490089
:1011800000F088FC0022FF210831684600F064FC72
:101190006F467E2038707E70BC704298002808D060
:1011A000002D06D02A0001463800001D00F016FC74
:1011B000FD700B4C002020809622D2002100091DDA
:1011C0006846FFF79FFF2080002804D00100241DFF
:1011D000200000F0C5FC002043B0F0BDE00F00206F
:1011E0008819002030B595B003A800210A4606C032
:1011F00001A806C06846016005A8402100F04AFC2D
:101200000D2200BF16A105A800F0FCFB2D2505ACA2
:10121000657303A800F0BFFD082203A920000E306B
:1012200000F0DCFB01A800F0C0FD082201A92000AD
:10123000163000F0D3FBA577684600F0E9FD0422E4
:1012400069461F34200000F0C9FB232305AA1021A2
:101250000120FFF78DFF012000F0A8FB15B030BD85
:101260004D43552D54323130333130393100000087
:10127000F0B591B005000E000027380069460871EE
:101280002C00641C60780007000F012800D092E158
:101290002078012815D0032816D004282ED0052840
:1012A00034D00A2800D197E0152800D10CE120287D
:1012B00000D153E1212800D15FE1222800D16BE168
:1012C00099E1FFF78FFF96E1A078052800DA92E117
:1012D000E07821790A02A9791143A279E3793628C5
:1012E00001D0372802D100F0D9FF84E10400303C5E
:1012F000062C00D37FE100F0D5FF7CE1A078002828
:1013000000D178E1E07800F0A1FF74E1A078062830
:1013100000DA70E1E678277960790090A4793000EE
:10132000C00704D50121084601F0DFF803E00021E1
:10133000012001F0DAF804252800064204D001213A
:10134000082001F0D2F803E00021082001F0CDF8D8
:10135000F80704D50121062001F0C7F803E00021B9
:10136000062001F0C2F80098284204D0012105208F
:1013700001F0BBF803E00021052001F0B6F81025CC
:1013800000982900084204D00121032001F0ADF8A3
:1013900003E00021032001F0A8F82000C00704D5D5
:1013A0000021042001F0A1F803E00121042001F054
:1013B0009CF82C4203D0012000F0A7FF02E000209F
:1013C00000F0A3FF312069460871012301AA2946D4
:1013D0000520FFF7CDFE0EE1A078222800DA0AE111
:1013E00002A81C2100F056FB312069460871844890
:1013F000E178090222791143018061790902A27919
:1014000011434180E1790902227A1143818001F080
:10141000AAF9012802D030206946087102A8617A31
:101420000902A27A11430180E17A0902227B114369
:10143000C181617B0902A27B11434180E17B0902EA
:10144000227C11430182617C0902A27C11438180CC
:10145000E17C0902227D11434182617D0902A27D66
:101460001143C180E17D0902227E11438182617EA8
:101470000902A27E11430181E17E0902227F11430C
:10148000C182617F0902A27F114341812135E17F41
:1014900009022A781143018369780902AA78114365
:1014A0008181E97809022A791143418301F078F9B1
:1014B000012802D0302069460871012301AA1021B9
:1014C0000A20FFF755FE96E0A078062800DA92E0A1
:1014D00007A800BF4BA1282200F094FA05A800BF7E
:1014E00052A10CC90CC003A852A10CC90CC0E078D1
:1014F00002902579684661790170A679E4790298AD
:10150000FFF7EFFD0299891E022916D20A2D00DB92
:10151000052507A9AA008958032E00DB3E0005AA6D
:101520007300D35A032C00DB022403AA6400125B6D
:1015300000923A4601F047FA5DE002980A285AD133
:10154000380029066A46127812040A4302D1310291
:101550000C4300D0012001F0A6FC4CE0A1782D1D29
:10156000280001F059FD312069460871012301AAC4
:1015700010212020FFF7FCFD3DE0A1782D1D280063
:1015800001F063FD312069460871012301AA102191
:101590002120FFF7EDFD2EE0A1782D1D280001F0A0
:1015A000B4FD312069460871012301AA10212220CF
:1015B000FFF7DEFD1FE0C11E022912D2FFF791FDE9
:1015C000032818DA2178162905D1A2782D1D2900C3
:1015D00001F090FA0FE0320092B2290001F08AFA8D
:1015E00009E00A2807D12078162804D1A1782D1DFA
:1015F000280001F0ABFC0020C04311B0F0BD00009A
:101600003024002058020000B00400000807000049
:1016100060090000C012000080250000004B00009F
:101620000096000000E1000000C201000000003050
:10163000002000000004000600000000F8B50A00C9
:1016400000210C000B00002801D0002A03D108461D
:10165000F2BD491C89B21500A94203DA465C7E2E10
:10166000F7D10124002C0ED00A00D21D95420ADBCE
:1016700042185478412C1FDA0C00D678A419E41DC6
:10168000A4B2A54201DA0800F2BD0519ED1E6E787C
:101690000D2E11D1AE780A2E0ED12E78FF2E0FD03E
:1016A0000E0003E0875DDB19DBB2761CE71EBE424D
:1016B000F8DB2878834203D0491C080080B2F2BDD1
:1016C000611A1000FFF7D4FD2000F2BDF0B587B01D
:1016D00024A0006800900024270001A8182100F031
:1016E000D9F9BD48007800283AD0684600F0CBFD13
:1016F00001AD6E46308881000818400080B2000AB3
:1017000028703088810008184000687020006880C8
:1017100001F07AFD010009122971687100F0ABFD3A
:10172000012800D101273800022707433800000AAA
:10173000A871EF712000A860E8602882708881009D
:101740000818400080B2000AA87470888100081848
:101750004000E874142301AA10210620FFF708FDB9
:1017600007B0F0BD0000000010B5B2B06846C82157
:1017700000F090F998480078002816D0012001F078
:101780005FFA002811D0C8226946012001F032FA20
:1017900004000AD00120FFF793FC2300DBB26A4665
:1017A0000101C9B21620FFF7E3FC32B010BD00B54D
:1017B00087B06846102100F06DF904A80C2100F0F4
:1017C00069F9684601F095FB002817D004A8009934
:1017D000090E01700099090C41700099090A817085
:1017E0000099C17008226946091D001D00F00AF920
:1017F0000C2304AAA0211620FFF7BAFC07B000BDF5
:10180000F0B589B001A800210A4606C00C4668461A
:10181000048003A8182100F03DF96F4800780028E3
:1018200033D001A800F090FF684600F098FF0A2529
:1018300001AE0020305E290001F004FD03AF01007D
:101840000912397078700220305E290001F0FAFC2C
:1018500001000912B970F8700420305E290001F00F
:10186000F1FC0100091239717871BC716420F871C2
:1018700068460088000A38726846008878722B46ED
:1018800003AA10210720FFF773FC09B0F0BD10B5C3
:10189000514C2078002816D000F07CF9002810D197
:1018A00000F081F900280CD1A088401CA08080B2F3
:1018B000032808DB0020A08000F078F800F07CF915
:1018C00010BD0020A08010BD10B5434C2000083092
:1018D00001F0C7FD20000C3001F0C3FD20001030E6
:1018E00001F0BFFD2000143001F0BBFD20001830D6
:1018F00001F0B7FD0020207010BD38B500F0B3FC3A
:10190000012852D1344C608802009625ED00AA428D
:101910000DDA2900091A89B2A0181C3000F02CF940
:10192000010089B2002902D06188081860806188AE
:1019300000291AD020001C30FFF780FE00280FD0AD
:101940006188884202DB0020608009E002008A1A78
:10195000628092B221181C3120001C3000F03EF849
:101960006088A84201DB00206080A068002804D1C4
:10197000FA208000A060FFF7A9FEFFF7F5FEFFF751
:1019800016FF2069002804D1FA2080002061FFF7AB
:101990007EFF6069002802D1FA2080006061A069A2
:1019A000002802D1FA208000A06131BD10B50400EA
:1019B00009480470200001F062F9200001F078FA73
:1019C00010BD002004498860704780B5002002499E
:1019D000C860FFF715FF01BD28070020124207D09D
:1019E0008B0706D00B78491C0370401C521EF7D899
:1019F0007047830706D00B78491C0370401C521EA9
:101A0000F9D1704770B4103A03D378C9103A78C04E
:101A1000FBD2530701D318C918C001D508C908C0A3
:101A2000D20704D30B880380891C801C002A01D5AF
:101A30000B78037070BC70471206130A1A43130C1C
:101A40001A4300BF094205D083070BD00270401C27
:101A5000491EF9D1704700001206130A1A43130CED
:101A60001A4300BF130030B414001500103902D31C
:101A700010393CC0FCD2490700D30CC000D504C0CB
:101A8000890002D30280801C002900D5027030BC7E
:101A9000704700000022E5E70020704700207047F3
:101AA0000020704738B50D000DD000280BD04A4CEF
:101AB0002A0092B20100BC204000201801F086FDEF
:101AC000206840192060002032BD03000A00002079
:101AD000002A00D1704710B5002B0AD03E4C92B2BC
:101AE0001900C6204000201801F02EFD6168091879
:101AF000616010BD38B50121C80501F06CFE802081
:101B000001F08CFD344C354A35492000103001F08D
:101B1000A7FE012002F009F88025ED002A00D02060
:101B2000400021182838201801F0FCFC2A00B420BD
:101B3000C0002118C6204000201801F0F3FC00204E
:101B40002060606031BD80B500218020000401F07C
:101B500042FE244801F095FE002001F0E6FF01BDA1
:101B600080B5002906D0002804D00A0001001E48D4
:101B700001F02CFD002002BD03000020002900D14F
:101B8000704780B5002B04D00A001900174801F0F7
:101B9000DBFC02BD002010490A688B68934201D02B
:101BA0008A600120704700200B494A68CB68934245
:101BB00001D0CA600120704710B5074CBC2040001E
:101BC000201801F0B9FCC6204000201801F0B4FC38
:101BD00002F0DAF810BD0000E80F0020100F00201E
:101BE000500F0020F80F0020741100206011002019
:101BF000F0B589B001A800210A4606C08DA11422C3
:101C0000FFF700FF00263746864C03E08648385C25
:101C1000E0557F1C0C2FF9DB20782073607860730F
:101C2000A078A073E078E0732079217A40182074BE
:101C30006079617A40186074A079A17A4018A07424
:101C4000E079E17A4018E074082301AA774902207C
:101C500002F051F901AD2878D52815D16978F1291C
:101C600012D1A978BA290FD1E978EA290CD12979BA
:101C7000B52909D16979A52906D1A979C62903D140
:101C8000E979AC2900D10126FB282DD16878DF281D
:101C90002AD1A8780A2827D1E878022824D12879DF
:101CA000EB2821D168793C281ED1A879D9281BD1ED
:101CB000E879122818D1207BFF2814D1607BFF28F7
:101CC00011D1A07BFF280ED1E07BFF280BD1207C17
:101CD000FE2808D1607CFE2805D1A07CFE2802D118
:101CE000E07CFE2800D00126002E41D0002703AE64
:101CF0001BE0E019017B0091007B40103818132194
:101D000001F0A0FA705C009948400090E019007B57
:101D1000032101F097FA38180830132101F092FAE4
:101D2000715C00984018E8557F1C082FE1DB28788B
:101D3000D52814D16878F12811D1A878BA280ED105
:101D4000E878EA280BD12879B52808D16879A52840
:101D500005D1A879C62802D1E879AC2808D002209C
:101D600002F04DF9082301AA3049022002F0E8F8F8
:101D7000002003E0295C22181175401C0828F9DBBB
:101D8000002004E02A49415C22181177401C0428F5
:101D9000F8DB09B0F0BD002104E0224A5218127BA2
:101DA0004254491C0829F8DB70471E490A7BFF2A68
:101DB00025D14A7BFF2A22D18A7BFF2A1FD1CA7BE9
:101DC000FF2A1CD10A7CFE2A19D14A7CFE2A16D190
:101DD0008A7CFE2A13D1CA7CFE2A10D1FB21017015
:101DE000DF2141700A2181700221C170EB21017154
:101DF0003C214171D92181711221C17170470022AA
:101E000003E08B181B7D8354521C082AF9DB7047B2
:101E1000002104E0034A5218127F4254491C04294D
:101E2000F8DB7047E4230020ACF7FF1F00E0000858
:101E300000E800087E5162596357644D6D40577940
:101E4000446844734E642400BFF34F8F9748984909
:101E50000860BFF34F8FFEE7F8B5684600210160C8
:101E6000944D686900286ED1322068610F463E00AB
:101E70006C4605E0300002F098F971006052761C63
:101E8000022EF7DB21888C484843BC21890201F0EF
:101E9000DCF90600EE60618887484843BC2189026E
:101EA00001F0D3F92861B64C6889B04210D260685D
:101EB000401C6060282808D36078012801D0FFF713
:101EC00080FD01206070E868A880A760E7601DE0E1
:101ED0002889864210D2A068401CA0600C2808D334
:101EE0006078002801D0FFF76CFD38006070E8686A
:101EF000A8806760E76009E0E068401CE0601428A3
:101F000002D302206070AE806760A7602869422813
:101F10000ED36169491C6161142907D30121227C18
:101F2000002A01D10A0022772174E880A761F1BD5F
:101F3000372808D2A169491CA161142902D33900AC
:101F40002174E8806761F1BD002803D002280FD01A
:101F500007D313E0B5485749C8610020B449087059
:101F60000CE0B4485349C8610120B149087005E04C
:101F7000AE485049C8610220AD4908700020704742
:101F800080B50021084600F0B0FA0021012000F0E1
:101F9000ACFA002000F0B9F90021032000F0A5FA06
:101FA0000121042000F0A1FA0021052000F09DFA93
:101FB0000021062000F099FA00F0A6FC002002BDE6
:101FC00030B5A1B068468021FFF764FD00246C4D58
:101FD0006878022834D16946204602F014F90028B6
:101FE0002ED068460078312805D13248006A002892
:101FF00026D1012424E0302804D1287C01281FD1D7
:1020000001241DE0322808D12A48006A002817D18F
:10201000287C012814D1012412E0332808D1254856
:10202000006A002802D0287C012809D1012407E099
:10203000342805D0352803D0287C012800D101247C
:10204000200021B030BD0120704780B50121002063
:1020500000F04BFA012002BD80B50020FFF774FFAD
:10206000012002BD80B50121084600F03EFA0120A2
:1020700000F04BF90121032000F037FA012105207F
:1020800000F033FA0021042000F02FFA3C48007CD5
:10209000002804D10021062000F027FA03E00121E6
:1020A000062000F022FA012002BD00000400FA051B
:1020B0000CED00E0E80E00203C7B000010B582B083
:1020C000002000F038FCE1242402002000900346A8
:1020D0000246210000F077FC012000F02CFC0020DB
:1020E0000090034602462100012000F06CFC00F045
:1020F000CFFEFFF7FFFC012016BD000010B5954C88
:10210000A06900283BD16420A0612078062809D866
:1021100001A1095C8F4400BF0828323C46505A0098
:10212000FFF72EFF2078082801DA401C20701448A1
:1021300000212278052A21DB01220270017710BDDF
:10214000FFF73EFF0028EDD110BDFFF77CFF002810
:10215000E8D110BDFFF779FF0028E3D110BDFFF7EC
:102160007BFF0028DED110BDFFF77CFF0028D9D10E
:1021700010BDFFF7A3FF0028D4D110BD017010BD22
:102180009C23002074480178012900D0704780B555
:1021900020300078002801D0012808D16D48C0699E
:1021A000002804D10020FFF7CFFE00F077F801BD32
:1021B00080B56848417801290DD1416A002904D0D1
:1021C0000121072000F091F901BD00214170072095
:1021D00000F08BF901BD022910D1416A002904D019
:1021E0000121072000F081F901BD00214170072085
:1021F00000F07BF90021022000F077F901BD10B555
:10220000544C2000143001F02CF92000183001F05B
:1022100028F92000203001F024F920001C3001F0C2
:1022200020F92434200001F01CF910BDE0930400D3
:10223000BC23002060EA000080B5FFF70DFEFFF729
:102240005DFFFFF79FFFFFF7B3FF01BD80B53028AB
:1022500003D10220FFF778FE01BD312802D1012011
:10226000FFF772FE01BD3C480078012801D1012032
:102270007047002070473848007C012801D10120B8
:10228000704700207047002806D032498A880280B3
:10229000C9884180012070470020704780B5FFF752
:1022A000D3FD01BDF0B5A1B006000F0014001D0064
:1022B00068468021FFF7EEFB6946002001F0A3FF8E
:1022C00068460670467000226946104601F083FF9A
:1022D0002048224979430162210008391D290DD285
:1022E000290008391D2909D2AC4207D2A1000919D9
:1022F00049000181A900491949004181002101706B
:102300000846FFF753FB21B0F0BD38B5114CA1785A
:10231000002811D001291CD00121022000F0E5F88D
:10232000FA208000606201252800607001460720C5
:1023300000F0DBF8A57031BD00290AD0FA2080003A
:102340006062022060700121072000F0CEF80020BA
:10235000A07031BDE80E00209C23002060EA000040
:1023600080B59020C00501F05FFF7B4801F05CFF65
:102370007A4801F059FF7A4801F056FF01BD00008C
:1023800030B583B07AA003C86A4603C2754C72495F
:1023900021601020A0800120A071A1600822A281EC
:1023A000A0739022D2052261C303A382A075A2610B
:1023B0000202A283A0772162A3842622A054A162F4
:1023C0004203A2852E22A05421630203A286362254
:1023D000A054A1632021A1873E2160546946087161
:1023E00000252A008A71C8710320487108E0E800BE
:1023F0002018818800916946006801F06BFF6D1C10
:10240000082DF4DB0021084600F06FF800210120C0
:1024100000F06BF80021022000F067F80021032093
:1024200000F063F80121042000F05FF8002105208E
:1024300000F05BF80021062000F057F8002107208B
:1024400000F053F837BD0000F0B583B04AA003C8D0
:102450006A4603C2444C4248206002200100A18029
:1024600001273900A1716E4631710025B571F171F6
:102470000321717100906946394801F02BFF29460C
:10248000082000F032F83548A0607903A181A573D7
:1024900020614900A182A575A0614800A083A577AD
:1024A0002F482062A784314805703571F5800320DC
:1024B0007071092409E02B48E100401881880091DF
:1024C0006946006801F006FF641C0D2CF3DBF7BDC4
:1024D00080B5FFF745FF0121F020400301F067F9C7
:1024E000FFF74EFFFFF7B0FF01BD0E2800DB70477E
:1024F00080B51C4AC00010188279012A08D1012930
:102500008188006802D101F039FF01BD01F038FF78
:1025100001BD010002200E2900DB704780B5114A81
:10252000C90052189179002909D19188106801F0E9
:1025300017FF012801D1012002BD002002BD0129A1
:1025400008D19188106801F012FF012801D1012003
:1025500002BD002002BD0000000400480008004841
:10256000000C004878220020B8220020DE22002043
:10257000000000000000000000000000000000005B
:10258000F8B50027384600908B4C0EE0A08C012156
:102590006D1CA9408843A08400200099C9006118DF
:1025A00048630098401CC0B200900098032864DA89
:1025B000450066194C20305E0A2100F043FEB18BC5
:1025C000401A308500B201282FDB00998900661877
:1025D000318800291CD081421ADA00F08FFF00995F
:1025E000C90061180A6B002A01D10863D9E7801A73
:1025F000F1898842D5D30127A08C009949003A007F
:102600008A4002436D1C3800A8408243A284C8E778
:10261000A08C0121009A520091408843A0840020A0
:102620000099C90061180863BBE70028B9D5009973
:102630008900661871880029A8D001F0B6FE71885B
:102640008142A3DA00F05AFF0099C90061184A6B71
:10265000002A01D14863A4E7801A318A8842A0D3B6
:102660000127A18C009842003800904081436D1CE6
:102670003800A8400843A08493E7A089002821D00F
:102680002C21615E2A22A25E2823E55E03004343DB
:10269000280068431500554340190A004A43801832
:1026A00083420FD200F02AFFA16C002901D1A0645F
:1026B0000EE0608B81420BD3A08C40210143A184AA
:1026C000012705E0A08C3D490140A1840020A064C1
:1026D0003800F2BD10B502F08BF8374C20005430B2
:1026E00000F0BFFE0020A0650100E161218403002D
:1026F00004E04A00A2181380D381491C0729F8DBA3
:1027000010BD10B52C4C606D00281CD120004C3041
:1027100002F07FF801280DD0E06D401CE06502F06A
:10272000D3F8012803D0FA204000606510BD0520D1
:10273000606510BD05206065FFF722FFFFF745F9D2
:10274000A06D401CA06510BD1B494C228A5A028016
:102750004E228A5A4280503109888180704716493A
:10276000898C0180704730B40100002000228A5E0D
:10277000134B5C0815199D4210D202254D5F2D198F
:102780009D420BD204254D5F2C199C4206D20A486B
:1027900082834A88C28389880184012030BC7047C3
:1027A00080B5002801D1002002BD1C220100024892
:1027B000FFF714F9012002BD880E0020BFFF0000C2
:1027C00021030000F0B583B004000121C020C00245
:1027D00000F0EDFF002C03D0022C45D01BD3F7BD39
:1027E0009026F60501220921300001F0CBFD0122DF
:1027F0000A21300001F0C6FDC020C00000906C46E8
:1028000002202071032060710025E58069463000B8
:1028100001F060FDF7BD9026F6050122022130008F
:1028200001F0B0FD01220321300001F0ABFD0C20CE
:1028300000906C460220207103273800607100254B
:10284000E5806946300001F045FD10200090012030
:1028500020716771E5806946300001F03BFD102171
:10286000300001F08DFDF7BDA04E04220A2130009A
:1028700001F088FD04220B21300001F083FDC0200F
:10288000000100906C460220207103206071002539
:10289000E5806946300001F01DFDF7BD00B583B04D
:1028A000002803D0022820D010D307BDC020C000CC
:1028B000009000206946087103224A7101228A7142
:1028C000C8719020C00501F005FD07BD1C200090D7
:1028D00000206946087103224A7101228A71C87179
:1028E0009020C00501F0F6FC07BDC020000100905B
:1028F00000206946087103224A7101228A71C87159
:102900007A4801F0E7FC07BD38B500252C000FE040
:102910002000C0B2FFF7C2FF29462000C0B201F07C
:10292000E0F8280072492200D2B289180871641CAC
:10293000032CEDD331BDF8B506003500032D41DA87
:10294000FFF740FF6A4CA8002018083000F089FD0E
:10295000002E03D0022E23D010D330E08026B60004
:102960000022310020002C30FFF766F832002100F1
:102970002C319F48201800F0D5FD20E08B208000EE
:1029800027188026B600002231003800FFF754F8DF
:1029900032003900C820C000201800F0C3FD0EE04E
:1029A000A54827188026B600002231003800FFF71E
:1029B00043F832003900B348201800F0B3FD01207D
:1029C00061190871F1BDF5B587B00D001E006846AC
:1029D000007F0090464F38180079012868D168467A
:1029E000007F002803D002285CD055D360E001218D
:1029F000880300F0E6FEA44C00216846007F01F049
:102A000070F86846007F002801D1E1252D0201956C
:102A100008A80078029003960E9804900C2605965C
:102A20000020069001A9200001F05AFF0122A949C7
:102A3000200001F0D1FF0121200001F0ACFF0121B5
:102A40006846007F01F04DF8009880003818056254
:102A500029469622920091421BD05200914229D0E1
:102A6000E122D200914228D096221201914226D032
:102A70005200914226D05200914226D052009142FB
:102A800026D05200914226D0E1225202914225D016
:102A900027E02821416126E00121480400F09BFE47
:102AA0008D4CA9E70121880400F095FE8B4CA3E72B
:102AB000002019E01421416115E0466113E00A216C
:102AC000416110E0092141610DE0082141610AE006
:102AD0000621416107E00521416104E002214161D5
:102AE00001E004214161012009B0F0BD000400486B
:102AF000C0000020F4B50E0078D01146002975D032
:102B00000100032972DA764A002802D01378002BDC
:102B10006CD051180979012968D1002803D0022806
:102B200047D01DD362E00024574D68460088844298
:102B30003DDA2000C011000E001900120002201A18
:102B400001D101F0A3FF315D280001F035FF8021A4
:102B5000280001F058FF0028F9D0641CA4B2E4E773
:102B60009027FF051021380001F008FC00245A4D81
:102B700015E02000C011000E001900120002201AFA
:102B800001D101F083FF315D280001F015FF4021E4
:102B9000280001F038FF0028F9D0641CA4B2684670
:102BA00000888442E5DB1021380001F0E9FB0120B8
:102BB000F2BD0024494D684600888442F7DA2000BF
:102BC000C011000E001900120002201A01D101F0FC
:102BD0005DFF315D280001F0EFFE8021280001F04B
:102BE00012FF0028F9D0641CA4B2E4E70020F2BD73
:102BF0002C06000010B50300032B03DA002901D0D6
:102C0000002A01D1002010BD354C002804D02078C6
:102C1000002801D1002010BDE0180079012801D062
:102C2000002010BD9800C01880002018034BC01869
:102C300000F08AFC10BD00002C0400002C060000EF
:102C400038B50400032C18DA254D002802D0287866
:102C5000002812D02819007901280ED1A0000019EF
:102C6000800028181F49401800F06CFCA10069186A
:102C70008968002902D0C92800DA002032BD18492D
:102C800008707047540600000038014010B5040079
:102C900003D0022C0DD00AD310BD134801F090FED2
:102CA0000F4A002C07D01178002904D110BD0A4822
:102CB000F4E70A48F2E7A10051184B698B60010064
:102CC000C9B2A000001980001018064A801800F050
:102CD00063FC10BD050105000044004000480040B1
:102CE000C00000202C060000003801401CB5012166
:102CF000880400F05CFD944C04220821200001F0BF
:102D000041FB04220921200001F03CFBC02080008F
:102D100000906846022101710321417100218171F7
:102D20000121C1716946200001F0D4FA13BDF0B54C
:102D300087B006000C00002000F0ECFE01214806E0
:102D400000F049FDA44801F0AFFE012000F0E2FED2
:102D5000684601F08DFF002568462900C18081602A
:102D6000002C02D10221817000E0817031009B4A69
:102D7000914260D05200914253D05200914247D0CC
:102D8000974A91423BD0520091422FD0954A9142AE
:102D900023D09200914217D0934A91420BD0934A8C
:102DA000914252D12900C1700521017104210A000C
:102DB0004271018051E02900C17005210A000271B1
:102DC00004224271018048E02900C170072101718D
:102DD00006210A00427101803FE02900C1700721ED
:102DE0000171062141711821018036E02900C1706E
:102DF00007210171062141711E2101802DE029006A
:102E0000C17007210171062141713C21018024E03C
:102E10002900C1700521017104214171C82101807F
:102E20001BE02900C1700521017104214171C821F5
:102E30004900018011E02900C170052101710421C0
:102E40004171C8218900018007E02900C170072174
:102E50000171062141710C21018069465E4801F033
:102E60002FFE634FFE60BC7003A82900418101243E
:102E700021000173056045600581417301F09EFEEC
:102E800022460421544801F09DFF7C7007B0F0BD3C
:102E900080B5FFF72BFF01215648FFF748FF0020C0
:102EA0005349087001BD80B50121FFF740FF01BD06
:102EB0004F490870704710B54D4C2178012917D142
:102EC000002815D0142201002079C006C00E83000E
:102ED0001818800020181430FEF780FD6068A16883
:102EE0002031884202D301001F39A160401C60607C
:102EF00010BD70B5040004D03D4DA86869688842D3
:102F000001D3002070BDC006C00E810008188000EB
:102F10002E181436307A002802D13068206001E083
:102F200070682060307A2073082231000B31200055
:102F3000001DFEF753FDB07A6073A868401CA860BE
:102F4000012070BD000000000004004870B586B08C
:102F50000400274D287801283CD1A878012839D1D0
:102F600001F094FD002214216846FEF775FD2078DB
:102F70000006617809040143A07800020843E17863
:102F8000014340226846530199420AD2009100232E
:102F90001E0006720A4002D0022141720BE0437209
:102FA00009E00191042303720A4002D00221417218
:102FB00001E000214172082181720A46241D21008E
:102FC0000B30FEF70BFD6946034801F063FE2869EC
:102FD000401C286106B070BD0064004088130000EA
:102FE00050C3000048E8010000350C0040420F00CB
:102FF000F40B002090D0030002000800412A01DBFE
:10300000373A00E0303A412801DB373800E0303809
:1030100011010843C0B2704710B5604C0020207009
:103020006070A0700121402000F0C1FB01F09CFF06
:10303000012000F0E4FF012802D00120207010BD23
:1030400002202070EE20E07010BDF1B50F000026C8
:10305000524D6878002802D06878052854D100982D
:10306000002801D0012F02DA01206870F1BD00783C
:103070003A2802D1072F4A4C0BDA02206870F1BDC2
:1030800000987100401881784078FFF7B5FFA0558F
:10309000761C781E0100C90F081840108642EFDB2D
:1030A000E078042807D120790002617901430804FF
:1030B00084342060F1BD002826D160780102A07818
:1030C000084388216050237826008036337084219D
:1030D00061580818D021C901324A82188A4202D3A5
:1030E00003206870F1BD241D22004118012000F06A
:1030F00027FF012802D004206870F1BD0520687008
:103100006868317840186860F1BD70B588B068466D
:103110001C21FEF7BFFC214C6078052802D001205D
:10312000A07039E0042000F06AFF012802D00220DC
:10313000A07031E001F018FF6068C01C0600B608FE
:103140003100194801F016FF6D46184929801849C9
:1031500069800022019201222A811C226A81039047
:1031600011480490B00005902983698301F0FCFEAA
:1031700005210835280001F0FDFE01901C2269465A
:10318000042000F01FFF012802D00320A07001E0FE
:103190000420A070FFF782F808B070BD382400202A
:1031A0006C21002000F0FFF700780008DBBD000074
:1031B000FFFF000080B5164800F053F901BD70B55F
:1031C0000025144C606800281DD10A206060092683
:1031D0000CE03000FFF79DF9002806D101213000F6
:1031E000093881402943C9B20D00761C0C2EF0DB52
:1031F00020886188814203D0A84201D1FEF7E1FB1B
:1032000020886080258070BD0248008870470000DB
:10321000D40F0020D00F0020F446002804D44942E7
:1032200000F013F8404260474042002905D45FD0C7
:1032300000F00BF8404249426047494200F005F86F
:103240004942604703460B43E6D40022030A8B42FF
:103250000BD203098B4219D243088B422ED2411A5A
:1032600000D20146524110467047FF2209023FD06A
:1032700012068B4205D3121209028B4201D312129D
:10328000090203098B4219D300E0090AC3098B42E2
:1032900001D3CB01C01A524183098B4201D38B0168
:1032A000C01A524143098B4201D34B01C01A52410B
:1032B00003098B4201D30B01C01A5241C3088B4250
:1032C00001D3CB00C01A524183088B4201D38B003B
:1032D000C01A524143088B4201D34B00C01A5241DD
:1032E000884200D3401A5241CFD20146104670475F
:1032F00008B501F051FE08BD10B48207920FD3004B
:10330000FF249C40E2438901C9B2994003000BD5D8
:103310007C481B071B0F083B9B089B00C0180368D9
:103320001A401143016007E077489B089B00C018D2
:1033300003681A401143016010BC704710B5401E6D
:1033400080214904884201D3012010BD6F4C606088
:1033500003210020C043FFF7CFFF0020A06007201B
:103360002060002010BD80B56948FFF7E7FF002806
:1033700000D0FEE701BD70B5664C206A401C20629B
:10338000E068002802D0E068401EE06000252E00C2
:103390000BE06148B1004058002804D001680029C2
:1033A00001D0491E0160761CB6B220898642F0DB4E
:1033B0002069002802D0401E20610EE00920206113
:1033C0002E0007E05548B1004058010000D080476A
:1033D000761CB6B220888642F4DB6069002802D0F1
:1033E000401E60610FE0C72060612E0008E04B487E
:1033F000B1004018806A010000D08047761CB6B248
:1034000060888642F3DBA069002802D0401EA061DC
:1034100010E0FF20F430A0612E0008E03F48B1002A
:103420004018006D010000D08047761CB6B2A0881D
:103430008642F3DBE069002802D0401EE06170BDE7
:103440003748E0612E0008E03448B1004018806F32
:10345000010000D08047761CB6B2E0888642F3DBDC
:1034600070BD30B4010000221000002901D116E027
:10347000521C284B1C891500EDB2A54206D2264BE2
:10348000D2B294001B598B42F2D108E02200642A88
:1034900005DA0120204D9200A950641C1C8130BC2B
:1034A0007047020000231800042A00DB7047F0B4C4
:1034B0000C0021D000E05B1C164C550064192588D7
:1034C0002E001F00FFB2AF420AD2144C9500AD1877
:1034D000ED006419B50064590D00AC42EBD10BE06E
:1034E0000A2E09DA01200D4B9700BA18D2009A185B
:1034F000B300D1506D1C2580F0BC70470548006AB0
:10350000704700001CED00E000E400E010E000E087
:1035100080BB0000C02300203C1E0020CC200020E7
:10352000E703000002800023438041608918816026
:103530004168C160016170470021418041680161BB
:10354000C16070474088704730B4030000205C8839
:10355000002C1FD0002A1DD000291BD0002B13D116
:1035600018E01C6925006D1C1D6124780C70491C35
:103570001C699D68AC4201D35C681C6172B65C88B2
:10358000641E5C8062B6401C80B2904202D25C88AD
:10359000002CE6D130BC7047002803D04288038855
:1035A0009A4201D300207047C26813005B1CC360BD
:1035B0001170C1688268914201D34168C16072B6DE
:1035C0004188491C418062B60120704703000020F9
:1035D000002A00D1704730B400291DD0002B13D130
:1035E0001AE0DC6825006D1CDD600D782570491C33
:1035F000DC689D68AC4201D35C68DC6072B65C88B4
:10360000641C5C8062B6401C80B2904204D21C886C
:103610005D88641B012CE4DA30BC704782490A687B
:1036200080239A430A600A6810430860704770B5A7
:10363000040000207D4D2A680C211140082902D089
:103640000C291BD01DE02968F020800308402A685F
:10365000C021490211400600B60CB61C002903D156
:1036600030007349484307E0A86A0107090F491C65
:103670007048FFF7EAFD7043206004E06E49216066
:1036800001E06C4921602968F0220A406B49120967
:103690008B5C2268DA4062602E68E023DB003340F6
:1036A0001B0AC95CCA40A260E96AC90502D4644920
:1036B000E16009E02968490403D411004908E16088
:1036C00002E011008908E160E96A490602D45D4917
:1036D000216102E0802109022161E96AC90602D460
:1036E0005449616101E0216861610321EA6A0A408D
:1036F00002D1A168A16114E0EA6A0A40012A02D15C
:103700002168A1610DE0EA6A0A40022A03D1802102
:103710000902A16105E0EA6A1140032901D1454986
:10372000A161C0218902EA6A0A4002D1A168E1616F
:1037300016E0EA6A0A4080235B029A4202D12168BD
:10374000E1610DE0EA6A0A405B009A4202D1990801
:10375000E16105E0EA6A0A408A4201D13549E16146
:10376000C0210903EA6A0A4002D1A168216216E079
:10377000EA6A0A408023DB029A4202D12168216270
:103780000DE0EA6A0A405B009A4202D119092162FF
:1037900005E0EA6A0A408A4201D126492162E96AC3
:1037A000090602D42448606270BD606270BD264A7A
:1037B0000029116802D008431060704781431160EE
:1037C0007047224A0029116802D0084310607047F0
:1037D0008143116070471E4A0029116802D00843D6
:1037E000106070478143116070471A4A00291168C0
:1037F00002D0084310607047814311607047164A39
:103800000029116802D0084310607047814311609D
:103810007047124A0029116802D0084310607047AF
:1038200081431160704700003010024004100240D4
:1038300000093D0000127A00006CDC02C00F00207D
:10384000809FD50012800000141002401810024022
:103850001C100240281002400C10024010100240C0
:1038600070B504000D00160000F00BF8AC2040000D
:1038700020180660856001F0C4FB200001F02AFCDE
:1038800070BD002070471CB50400694602F02DF899
:1038900068460078C006C00E03D002280BD005D3BE
:1038A0000EE06946200001F013FE10E0694620009A
:1038B00001F034FE0BE06946200001F04FFE06E007
:1038C0006846017880200140200001F083FD00203F
:1038D00016BD10B50400002924D12100B831401CC8
:1038E0000278032A2BD1CA69CB6893420BD2D21A31
:1038F000CA61C868824200D3020092B209692000FE
:1039000002F059F81BE0AC214900625811690A0025
:1039100004D04078032801D120008847200002F01D
:1039200052F80CE0AC20400022589269100006D0FA
:103930002000401C4078032801D12000904700203F
:1039400010BDF8B50400002943D125001835260024
:10395000761C307802282FD1E869E968009181420D
:1039600007D2421AEA6192B22969200002F00DF8EA
:103970003CE02F6A3800FFF768FC00290DD1009861
:1039800087420AD3686A874207D200221146200084
:1039900001F0FBFF0020686228E0AC2040002058C6
:1039A000C168080004D07078032801D1200088473E
:1039B000200002F012F819E0042817D10C4D2968F4
:1039C000002913D0C9B2200001F05DFD002028605D
:1039D0000CE0AC20400020584269100006D02000C6
:1039E000401C4078032801D1200090470020F2BD00
:1039F0005024002010B5040040230022114601F09D
:103A000087FB802300221946200001F081FB002360
:103A100040221946200001F096FB0023402280211D
:103A2000200001F090FB0120A070002010BDC178A3
:103A30008170002070478178C1700421817000205E
:103A4000704780B5AC2149004158C9690A0000D0CF
:103A50008847002002BD80B5AC225200825812680F
:103A60009047002002BD80B5AC22520082585268B7
:103A70009047002002BD30B4012100220368001DE0
:103A8000002B0BD00468001D0C4202D04D466D1E69
:103A900064192260241D1B1FF0D0FAE730BC704768
:103AA00080B5002080239B0504E08100064A8A58E7
:103AB0005A50401C3028F8DB01210846FFF781FEF0
:103AC000032001F095FF01BD0010000880B5694694
:103AD0000C220A7000224A708870684601F092FF3A
:103AE00001BD80B5002803D002280FD00AD301BD44
:103AF0001B206A461070684600224270817001F0F7
:103B000081FF01BD1C206A461070F4E71D206A4643
:103B10001070F0E780B569461E220A7000224A70D4
:103B20008870684601F06EFF01BD80B569461F22AE
:103B30000A7000224A708870684601F063FF01BD78
:103B400010B50400C0230022812101F0E1FA802396
:103B50005B0000228221200001F0DAFA88235B005A
:103B600000220321200001F0D3FA02234022812108
:103B7000200001F0E8FA022340220321200001F096
:103B8000E2FA032308228221200001F0DCFA8048B7
:103B90000068804740237F4A0321200001F0A7FBF3
:103BA000002010BD10B50400812101F05AFB032153
:103BB000200001F056FB8221200001F052FB7448E6
:103BC00040688047002010BD70B506000C003A2008
:103BD00074A211000931237860251D4029D0202DC1
:103BE00021D16078E288002A17D011006A4D1B06A7
:103BF0000BD529000C31664B9B689847E2880C3541
:103C00002900300001F0B5FE3DE06860A9600C3588
:103C10002900300001F0C1FE35E0002211465C4B66
:103C20009B6898472FE02100300001F076FE0220CB
:103C300070BD6378062B04D00A2B11D00B2B15D046
:103C400021E063881B0A212B05D112321100E28882
:103C50003B2A00DA10000200300001F08AFE12E078
:103C600001224D49300001F084FE0CE06088010023
:103C7000C9B2002903D1C0B24749086003E021005E
:103C8000300001F04AFE002070BD10B5424C606863
:103C9000FF2807D0A26821000C313D4B9B68984754
:103CA000FF206060002010BD38B505003B4C207837
:103CB000012820D1402120000830354AD2689047A1
:103CC00000280DD100206168012907D160600346FA
:103CD00002468121280001F037FB0CE020700AE049
:103CE000402801D1012161600300083422008121B4
:103CF000280001F029FB002032BD38B50500254C15
:103D000088004018C0002818D030016889B220000F
:103D10001F4A12699047402322000321280001F026
:103D2000E6FA002032BD80B51D490A6813005B1C0D
:103D30000B60052A03D100220A6000F002F800207F
:103D400002BD38B50500154C2078012817D0402158
:103D5000200008300E4AD2689047002802D1002087
:103D6000207031BD01210A002270402800D161601D
:103D70000300083422008121280001F0E5FA31BD5A
:103D80004320088007A0704700200449087070474E
:103D9000880F0020302300209C0F0020E822002004
:103DA0004C24002009024300020100C03209040033
:103DB0000001020201000524001001052401000198
:103DC000042402020524060001070582030800FFFF
:103DD00009040100020A0000000705030240000078
:103DE000070581024000000003000120002B06D0DF
:103DF000022B16D00CD3042B25D01BD32CE000298A
:103E000001D09B4B0B60002A27D09A491160704764
:103E1000002901D0984B0B60002A1ED097491160F1
:103E20007047002901D0964B0B60002A15D09549A8
:103E300011607047002901D0934B0B60002A0CD011
:103E4000924911607047002901D0914B0B60002A04
:103E500003D09049116070470020704730B40023B0
:103E60008D4C0419F0252D02AC4203D2002901D05B
:103E7000002A04D1184605E0C45CCC545B1C934274
:103E8000FAD3012030BC7047F1B50F0014000426AE
:103E9000002581494018F0210902884201D32846B3
:103EA000F2BD002F01D0002C01D12846F2BD01F057
:103EB000D5FD20004008E10702D5401C040002E0C7
:103EC000040000E06D1CA5420DD2680039184A7844
:103ED00012020978511889B2009A101801F0E8FD11
:103EE0000600042EEED001F0C2FD042E01D0002009
:103EF000F2BD0120F2BDF0B583B00D0016001F0029
:103F0000002401940094052809DA002E07D0002F20
:103F100005D06A4601A9FFF767FF002801D12046B6
:103F2000FEBD0198854209D3E8190099884205D25F
:103F30003A0031002800FFF791FF04002000FEBD89
:103F4000F0B583B00D0016001F000024019400940A
:103F5000052809DA002E07D0002F05D06A4601A9EE
:103F6000FFF742FF002801D12046FEBD019885429F
:103F700009D3E8190099884205D23A003100280097
:103F8000FFF782FF04002000FEBD30B583B00D00B6
:103F90001400002100910191052803DA002D01D0C1
:103FA000002C01D108463EBD01AA6946FFF71CFF5F
:103FB000002801D100203EBD220029000098FFF713
:103FC0004DFF3EBD30B583B00D00140000210091BF
:103FD0000191052803DA002D01D0002C01D10846FB
:103FE0003EBD01AA6946FFF7FFFE002801D100206F
:103FF0003EBD220029000098FFF746FF3EBDF8B500
:1040000004240027002806D0022811D00DD304284C
:1040100014D010D315E0164D0D2601F01FFD3420ED
:1040200001F068FD002E0FD119E0134D0D26F4E7C5
:10403000134D0126F1E7144D0126EEE7144D01263C
:10404000EBE73846F2BD7F1CB74208D2F8022818C9
:1040500001F013FD040000F019FD042CF3D001F071
:1040600006FD042C01D00020F2BD0120F2BD0000AD
:1040700000100008FF77000800780008FFDF000844
:1040800000E00008FFE7000800F00008FFF7000864
:1040900000F80008FFFF000800F0FFF700B583B04C
:1040A00001214804FFF783FB60200090684603214C
:1040B00001710021C17169469020C00500F00AF924
:1040C00007BD70B586B03D4C2020A0604020E06068
:1040D000002528002070A07101214802FFF771FB24
:1040E0000120FFF7F3FC364E300001F02FFD68464B
:1040F00001F04DFD00952800694608710295049570
:104100000595300001F031FD01220421300001F05D
:104110007BFD0722A168300001F04DFD0120A07158
:10412000300001F04FFD0121300001F039FD012187
:10413000300001F072FD0028F9D0300001F05CFD84
:1041400006B070BD1D488179002900D0704710B5B8
:10415000012181710178491C0170C9B2022901DB7A
:1041600000210170164C05220178890040188168F1
:10417000200001F020FD200001F03EFD10BD80B5C3
:10418000FFF78CFFFFF79DFF0E490020FFF789F92D
:1041900001BD38B5094C2578094801F032FD6900A8
:1041A000611848800020A07131BD022804DA03495B
:1041B00040000818408870470020704720240020E5
:1041C000002401404541000880B5802215490320A4
:1041D000FFF7DBFE01BD10B51400002801D0002060
:1041E00010BD002903D080220E48FDF7F7FB002CFC
:1041F00007D00320FFF703FF80220A490320FFF7BF
:10420000E1FE012010BD80B502000800002A01D1A6
:10421000002801D1002002BD80220249FDF7DEFB0B
:10422000012002BDF821002010B59021C905884267
:104230000AD18024A40201212000FFF7D6FA002130
:104240002000FFF7D2FA10BD404988420AD18024ED
:10425000E40201212000FFF7C8FA00212000FFF747
:10426000C4FA10BD3A4988420AD1802424030121AE
:104270002000FFF7BAFA00212000FFF7B6FA10BDC0
:10428000344988420AD18024640301212000FFF7C9
:10429000ACFA00212000FFF7A8FA10BD2E49884291
:1042A0000AD18024A40301212000FFF79EFA0021F7
:1042B0002000FFF79AFA10BD2849884209D18024CE
:1042C000E40301212000FFF790FA00212000FFF70E
:1042D0008CFA10BD70B4002234E0012393400C68C6
:1042E0001C409C422DD10C79012C01D0022C13D101
:1042F0001400640085680326A640B5438560856880
:104300004E79A6402E43866084889C4384808388AF
:104310008C7994401C43848013005C000325A540E5
:10432000EB4305681D40056005680E79A6402E43E5
:104330000660C5682B40C360C368CD79A5401D43A6
:10434000C560521C102AC8D370BC704700040048D6
:1043500000080048000C0048001000480014004805
:1043600002000020128A0A4200D001207047020099
:104370000020928A0A4200D0012070478161704774
:104380000185704710B40B00DB109B00C018490773
:10439000490F8900036A0F248C40A3430362036A18
:1043A0008A401A43026210BC7047002800D5404280
:1043B0007047FEE7F0B583B00EA003C86A4603C29B
:1043C0004020009001246D462C71AC710027EF71E4
:1043D00003266E7169464648FFF77CFF80200090F7
:1043E0002C71AC71EF716E7169464148FFF772FF35
:1043F000F7BD00000000000000000000F0B583B031
:104400000EA003C86A4603C24020009000246D46F7
:104410002C710127AF71EC7103266E716946344827
:10442000FFF758FF802000902C71AF71EC716E7116
:1044300069462F48FFF74EFFF7BD0000000000005F
:104440000000000000B583B009A003C86A4603C29B
:1044500001214804FFF7ABF9802000900020694655
:104460000871C8719020C005FFF734FF07BD000038
:10447000000000000000000000B583B00BA003C8DE
:104480006A4603C201214804FFF791F98020009099
:1044900000206946087101228A71C87103204871A1
:1044A0009020C005FFF716FF07BD000000000000C8
:1044B000000000009620400000E0401EFDD1704743
:1044C00040200C490860704740200B490880704725
:1044D000802008490860704780200749088070479D
:1044E000002006490988090600D501207047000010
:1044F000000400481804004828040048100400483C
:1045000080B5FFF7E5FFFFF7DBFFFFF7D3FFFFF70E
:10451000E7FF002801D1002002BDFFF7DDFFFFF714
:10452000C9FFFFF7DDFF002801D0002002BDFFF723
:10453000D3FFFFF7BFFF012002BD80B5FFF7C4FF27
:10454000FFF7B8FFFFF7C8FFFFF7B4FFFFF7B8FFAB
:10455000FFF7B0FFFFF7BCFFFFF7ACFF01BD80B571
:10456000FFF7B2FFFFF7A6FFFFF7B6FFFFF7A2FFC7
:10457000FFF7A6FFFFF79EFFFFF7A6FFFFF79AFFE3
:1045800001BD80B5FFF7A0FFFFF794FFFFF7A0FF85
:10459000FFF790FFFFF794FFFFF78CFFFFF794FF03
:1045A000FFF788FF01BD80B5FFF78EFFFFF782FFA1
:1045B000FFF78EFFFFF77EFFFFF782FFFFF77AFF1F
:1045C000FFF78EFF002803D0FFF77EFF002002BD1B
:1045D000FFF77AFF012002BD38B50400082508E086
:1045E000FFF77AFF6400FFF765FFFFF769FFFFF74A
:1045F00061FF2800451EC0B2002808D0FFF764FF05
:10460000FFF758FF2006EBD5FFF762FFEAE7FFF759
:104610005BFF31BD38B508240025FFF759FF0FE0D7
:104620006D00FFF751FFFFF745FFFFF749FFFFF769
:1046300041FFFFF755FF002802D028000125054360
:104640002000441EC0B20028EAD1FFF73DFF280039
:10465000C0B232BD70B504000D001600FFF750FF68
:10466000002801D1002070BDFE203040FFF7B4FFCC
:10467000FFF799FF002803D1FFF75FFF002070BD0F
:104680002800FFF7A9FFFFF78EFF2000FFF7A4FF28
:10469000FFF789FFFFF751FF012070BDF8B5050056
:1046A0000C0017001E00002C03D0FFF729FF002884
:1046B00001D10020F2BDFE203040FFF78DFFFFF753
:1046C00072FF002803D1FFF738FF0020F2BD022C53
:1046D00004DB80203843FFF77FFF02E03800FFF75C
:1046E0007BFFFFF760FFFFF70BFF01203043FFF771
:1046F00073FFFFF758FF03E0FFF731FF6D1C641EE7
:10470000E4B2002C07D0FFF785FF2870012CF3D10D
:10471000FFF737FFF2E7FFF710FF0120F2BD38B5D2
:104720000025684605706C4C607A01285FD0FFF761
:1047300041FEFFF787FE32230F22012120000830BF
:10474000FFF7ACFF207A332850D16846057032223B
:1047500020215F20FFF77EFF3223202201216846BF
:10476000FFF79CFF684600785F2802D0FF20607248
:1047700031BD68460570322222211020FFF76AFF02
:104780003223222201216846FFF788FF684600781D
:10479000102802D0FD20607231BD684605703222BB
:1047A00023211820FFF756FF3223232201216846D8
:1047B000FFF774FF68460078182802D0FC2060726A
:1047C00031BD322225212846FFF744FF322325221E
:1047D00001216846FFF762FF68460078002802D092
:1047E000FA20607231BD0120607231BD657231BD49
:1047F00010B5FFF703FEFFF73FFE374C20000C30EB
:10480000FEF72FFEFA208000E06000206072A072A8
:1048100010BDF8B50500304C607A012806D0E0687C
:10482000002801D1FFF77BFF0020F2BD32232722B1
:10483000012120000B30FFF731FFE07A410701D45E
:104840000020F2BD00063DD532232822062120009B
:10485000FFF724FFE0780002A17846186079000293
:1048600021794718607800022178401800B2C00012
:1048700001F0F4F9DE21890501F009FA174901F088
:1048800006FA01F05FFA288036B2F00001F0E6F98E
:10489000DE21890501F0FBF9104901F0F8F901F07A
:1048A00051FA68803FB2F80001F0D8F9DE2189059D
:1048B00001F0EDF9094901F0EAF901F043FAA880A5
:1048C0000120F2BD0020F2BD0348407A704701206C
:1048D0000149887270470000B00F002000007A4440
:1048E000F0B58BB004000D002068012188432060E2
:1048F000606835490140A868084360602068334912
:10490000014068680843E96801432869084320605A
:10491000A0682F49014068690843A0606846FEF717
:1049200086FE2248844201D1069E0AE02048844245
:1049300001D1079E05E01F48844201D1089E00E096
:10494000029E2D68206800040AD5760030002900F8
:10495000FEF77BFC070030002900FEF776FC08E03C
:1049600030002900FEF771FC070030002900FEF737
:104970006CFC28004008814200D37F1C20680004A2
:1049800006D514483840390049084F077F0F0743C0
:10499000A7810BB0F0BD0029016803D001220A43B2
:1049A0000260704701229143016070470038014066
:1049B0000044004000480040C905C90D018570470A
:1049C000808CC005C00D7047FFCFFFFFF3E9FFFFEC
:1049D000FFFCFFFFF0FF000010B40B009BB21B0AAE
:1049E00001248C40022B01D1001D02E0032B00D1D9
:1049F0000830002A016802D00C43046001E0A143A2
:104A0000016010BC704702000020D269114000D044
:104A10000120704730B4020000200B001C00A4B23B
:104A2000240A01231D008D40012C02D114682C4062
:104A300006E0022C02D154682C4001E094682C401E
:104A4000090C1D008D40D1692940002C02D000299D
:104A500000D0180030BC70470122090C8A40026265
:104A60007047FEE710B50E4801F08AF9032001F007
:104A70008AF90C4C6068C00980B201F087F901F036
:104A800088F901F08AF9EC20207010BD0548007803
:104A9000EC2800D0704780B501F07BF901BD000023
:104AA00055550000D80F002010B58024A404012122
:104AB0002000FEF7AEFE00212000FEF7AAFE10BD8A
:104AC00070B40200002318001C0015680226B543CC
:104AD0001560012516682E43166000E0641C5668B8
:104AE0002E4002D16A4EB442F8D154682C4063D0B3
:104AF00088790128106803D180240443146002E0FF
:104B00008024A0431060C8790128106803D1402494
:104B10000443146002E04024A0431060087A012896
:104B2000106803D120240443146002E02024A04331
:104B30001060487A0128106803D1102404431460DF
:104B400002E01024A0431060887A0128106803D185
:104B500008240443146002E00824A0431060C87ACB
:104B60000128106803D104240443146002E00424E3
:104B7000A043106088788007CC7824060443087925
:104B8000000420434C79240504430888401E204338
:104B9000D06110682946884310601C0000E0641C46
:104BA0005068284002D03A488442F8D15068010049
:104BB000C907C90F2846484070BC704770B401232C
:104BC000827A190091405E4A146823431360CB43F4
:104BD000D4691C40D461047B002C12D1D4681C40E1
:104BE000D460584CC5882D0446883543867AF60033
:104BF000A551857AED00641985882D040688354312
:104C00006560047B012C12D1D4680C43D4604D4CF8
:104C100005882D0446883543867AF600A551857AA5
:104C2000ED00641985882D04C68835436560C47A13
:104C3000002C546802D11C40546001E00C435460C5
:104C40000489002C02D15469234053610389012B4C
:104C500002D153690B435361407B012802D1D069D3
:104C60000143D161106801218843106070BC704716
:104C700000218171C171017241728172C1728170B2
:104C8000C17003210171022141710121018070472E
:104C9000FFFFFF00F0B402009068400101D5002042
:104CA0000AE09068000101D5012005E09068C0008D
:104CB00001D5022000E0042004283FD00301D218CF
:104CC000C0235B00D218012314681C4014604C7A86
:104CD0000D7A002D06D115680E68760534432C43F5
:104CE000146006E016684F68FF003D432C433443D0
:104CF00014608C7A2407240F8C7254680F25AC43FF
:104D0000546054688D7A254355608C7B24064D7B16
:104D10002D0425430C7B24022C43CD7A254395603A
:104D20008C7C24064D7C2D0425430C7C24022C43D2
:104D3000C97B2143D16011680B431360F0BC7047FD
:104D4000006600404066004030B40B01C318D82410
:104D500064001B191C6804252C4014721C6802D1C5
:104D6000640D146001E0E40854601C6802252C40C6
:104D700054725C682407240F94725C68240AD4740B
:104D80009C68D4729C68240A14739C68240C547325
:104D90009C68240E9473DC68D473DC68240A147451
:104DA000DC68240C5474DB681B0E937420220029E9
:104DB00003D1C1680A43C26002E001690A4302618B
:104DC00030BC7047002A426902D0114341617047EC
:104DD0008A434261704780B5002243690B4078D016
:104DE000491E23D0491E27D0891E2BD0091F2FD042
:104DF000083933D0103937D020393BD0C0394BD0A7
:104E000080235B00C91A4DD05B00C91A50D05B00EB
:104E1000C91A53D0F023DB01C91A55D080231B02D5
:104E2000C91A2DD05B00C91A30D052E04A498068B7
:104E300000F094F802004CE00321C06800F08EF806
:104E4000020046E00821C06800F088F8020040E057
:104E50001021C06800F082F802003AE003210069E6
:104E600000F07CF8020034E00821006900F076F8D8
:104E700002002EE01021006900F070F8020028E026
:104E80000821406800F06AF8020022E01021406822
:104E900000F064F802001CE00121806900F05EF877
:104EA000020016E00221806900F058F8020010E0CC
:104EB0000421806900F052F802000AE07021806944
:104EC00000F04CF8020004E00421406800F046F8CD
:104ED0000200100002BD491E1FD0C91E20D0091FAC
:104EE00021D0183922D0203923D0C0392AD08022AD
:104EF0005200891A26D05200891A23D05200891AEA
:104F000023D0F022D201891A1FD080221202891ADE
:104F100012D05200891A12D070470F498160704731
:104F20000821C16070471021C160704708210161EC
:104F300070471021016170470821416070471021BE
:104F40004160704704214160704700218161042164
:104F500041607047000000000101010002000020D4
:104F6000114000D0012070470A48016801220A431D
:104F70000260704710B40022054B03E0940004590E
:104F80001C60521C8A42F9D3186810BC704700009C
:104F900000300240083002407047FEE712200880CF
:104FA00046A070470420088049A0704710B50A0049
:104FB0001E4C21002CA000F0B5FC200010BD00000C
:104FC00010B50A00194C210030A000F0ABFC200005
:104FD00010BD1A20088016487047000010B50A005E
:104FE000124C21002EA000F09DFC200010BD0000FE
:104FF00010B50A000D4C21002CA000F093FC2000FD
:1050000010BD38B50B4845680168806808180BD09A
:10501000074C08222100891C00F00EF804221234EB
:105020002100280000F008F831BD0000CC1F00204E
:105030006C0F0020ACF7FF1F70B400231C0006E0CB
:1050400037362E7000011E006E70641CE4B294426C
:1050500008DA65004D190600360F0A2EF0D23036F8
:105060002E70EFE770BC704753544D3332205669B1
:10507000727475616C20436F6D506F727420696E2D
:10508000204653204D6F64650000000053544D6965
:1050900063726F656C656374726F6E696373000031
:1050A00056435020436F6E66696700005643502098
:1050B000496E74657266616365000000120100024A
:1050C00000000040F905FFFF00020102030100009B
:1050D0000403090480B501210A0082700022130034
:1050E00003718260C160084600F066FE002000F097
:1050F00063FE002000F063FE002000F063FEBF208E
:1051000000020249086000F057FE01BD482400205B
:1051100030B44C06640EA5002C19E40000190906F1
:1051200001D5183000E0B830002A03D10021817287
:10513000838005E0012181721900C180090C018181
:10514000002030BC704770B57F252C000C40A600B5
:105150003419E400041900200E0603D51834012682
:10516000667002E0B83406006670E260E3700D40DD
:10517000257002D16062E061206220616061A061FF
:10518000A070E078002805D0022809D013D30328A6
:105190000BD015E080218900284600F01DFE0FE0AD
:1051A0000021284600F018FE0AE0C021C900284668
:1051B00000F012FE04E08021C900284600F00CFE39
:1051C0002078A17A00291DD1A1886278002A09D00F
:1051D00000F082FE207800F06BFE2021207800F0A5
:1051E00004FE3CE000F082FEE16889B2207800F025
:1051F00097FE207800F04CFEC0218901207800F055
:105200000CFE2CE000F022FE2289E188207800F0DC
:10521000B8FE20786178002911D100F039FE20789D
:1052200000F046FE207800F027FEC021890120789A
:1052300000F0F3FD0021207800F0D7FD0FE000F032
:1052400027FE207800F034FE207800F009FE0021CF
:10525000207800F0CAFD0021207800F0DEFD00205B
:1052600070BD10B54A06520E93009A18D2008418E9
:10527000080601D5183400E0B83461782078A27AA5
:10528000002A0FD1002906D000F012FE002120785C
:1052900000F0ABFD29E000F0FBFD0021207800F0DC
:1052A000BCFD22E0002910D100F0F2FD207800F0D2
:1052B000FFFD207800F0E0FD0021207800F0ADFD3A
:1052C0000021207800F091FD0FE000F0E1FD207852
:1052D00000F0EEFD207800F0C3FD0021207800F002
:1052E00084FD0021207800F098FD002010BD38B525
:1052F000002500954906490E8C006118C900441824
:10530000B83422616361A5616069E168814204D2B9
:1053100000910099401A606101E000906561207879
:10532000A17A002904D1009989B200F0F9FD04E0C6
:10533000009A92B2617800F03BFEC021890120788A
:1053400000F06BFD284632BDF8B5002500957F269C
:1053500034000C40A7003C19E400041918340E4036
:10536000267022616361A5616069E168814204D2AF
:1053700000910099401A606101E000906561A07A97
:105380000028009A0AD192B2A188206900F09CFE00
:10539000009989B2207800F0B5FD15E092B26178ED
:1053A000207800F005FE207800F011FD400601D5C0
:1053B000218900E0E188009A92B2206900F084FE21
:1053C0006178207800F068FE3021207800F00DFD33
:1053D0002846F2BD10B50A0607D54906490E8A00CF
:1053E0005118C9004018183004E08A005118C9004B
:1053F0004018B83002780121002A0ED12E4B9200BD
:105400009A181468A4B22D4B23402D4C5C402D4BB0
:10541000234313608170002010BD4278002A817000
:1054200004D01021007800F0E0FC03E009030078CC
:1054300000F0F3FC002010BD38B50A0607D5490678
:10544000490E8A005118C9004418183404E08A0033
:105450005118C9004418B834207800256178002913
:1054600007D000F025FD3021207800F0BEFCA570AB
:1054700007E000F00DFDC0218901207800F0CDFC8F
:10548000A570284632BD30B4002201710CE0100036
:10549000C0B2094B84001B191C680B4D25402843E2
:1054A000084C04431C60521C042AF0D3802008439B
:1054B0000649086030BC7047005C0040BFBF000078
:1054C00010100000808000008F8F00004C5C0040B6
:1054D00080B54A78092A1DD801A39B5C9F4400BF70
:1054E000222E342834100A341C1600F0B7F813E0CA
:1054F00000F03AF910E000F057F90DE000F09CF9E7
:105500000AE000F0B2F907E000F0C5F904E000F0AD
:10551000D3F901E000F001FA002002BD70B50400EB
:105520000E000025A078032813D1B088C0B202284D
:105530000FDA2000AC225200A25892689047050072
:10554000F088002808D1002D06D1200000F03BFA99
:1055500002E0200000F0E1F9280070BD38B5040039
:105560000D0000200090A988C9B2687800283FD0BB
:1055700001281AD003286ED1A078022802D003286F
:1055800008D064E0002966D0802964D02000FFF7AD
:1055900021FF60E0688800281FD100291DD08029E4
:1055A0001BD02000FFF716FF17E0A078022802D0DA
:1055B000032808D04BE000294DD080294BD0200093
:1055C000FFF708FF47E06888002806D1002904D0CB
:1055D000802902D02000FFF72FFF29002000AC22F5
:1055E0005200A25892689047200000F0ECF932E097
:1055F000A078022802D0032808D028E000292AD069
:10560000802928D02000FFF7E5FE24E00800802252
:1056100010400BD04806400E81000818C00020182A
:10562000807E00280DD0012000900AE009D188007A
:105630004018C0002018BA300078002801D001209E
:10564000009002226946200000F093F903E029004F
:10565000200000F062F9002032BD000070B582B079
:1056600004000D0068880100090A012904D076D3DE
:1056700003292FD023D372E06946E068C0B2AC2280
:105680005200A218926812689047E988402902D116
:1056900008216A4611806946098800290ED0E988E8
:1056A00000290BD06A4612888A4200D90A0069464E
:1056B0000A800A880100200000F05BF973BDAC206D
:1056C000400026186946E068C0B23268126A904706
:1056D000F060E0E7C0B2052841D801A1095C8F4421
:1056E00004182C4054686946E068C0B2AC225200ED
:1056F000A218926852689047CDE76946E068C0B248
:10570000AC225200A218926892689047C3E769469B
:10571000E068C0B2AC225200A2189268D2689047EA
:10572000B9E76946E068C0B2AC225200A21892689C
:1057300012699047AFE76946E068C0B2AC225200F8
:10574000A218926852699047A5E76946E068C0B21E
:10575000AC225200A2189268926990479BE72900F8
:10576000200000F0DAF873BD38B5040088880028FE
:1057700016D1C888002813D1887845066D0EA07808
:1057800003280DD025712A480560200000F01BF980
:10579000002D02D00220A07031BD0120A07031BDCB
:1057A000200000F0BAF831BD38B50400214D48881A
:1057B00028702878022837DAA278022A02D0032A31
:1057C00011D031E000280AD020700321A17001001F
:1057D0002000FEF740F9200000F0F5F831BD200070
:1057E00000F0F1F831BD00280BD10220A07000209C
:1057F000207001462000FEF736F9200000F0E3F8A3
:1058000031BD217888420BD02000FEF72CF9297891
:1058100021702000FEF71FF9200000F0D4F831BD00
:10582000200000F0D0F831BD200000F076F831BD46
:10583000502400205424002080B500220092CA8801
:10584000012A0FD18278022A02D0032A05D009E06A
:105850000122694600F08DF801BD0122010000F02F
:1058600088F801BD00F059F801BD80B50022009212
:105870008278921E012A0BD80121009181680029AB
:1058800001D0032100910222694600F072F801BDA7
:1058900000F043F801BD10B50400488801280AD182
:1058A0000120A0602000AC225200A25892689047CC
:1058B000200000F088F810BD10B50400A078801E0C
:1058C00001280ED8488801280ED10020A0602000B1
:1058D000AC225200A25892689047200000F073F862
:1058E00010BD200000F019F810BD027C0A70427C47
:1058F0004A70827CC37C1B02D2184A80027D437DA1
:105900001B02D2188A80827DC37D1B02D218CA80F6
:10591000C988C16301214170704780B50021FFF73C
:1059200059FD01BD70B504000D001600002C15D006
:1059300000F015F84000801C30803088287003206B
:105940006870022007E0C0B22954641C401C00218A
:10595000C0B22954401C21780029F4D170BD010047
:10596000002001E0401C491C0A78002AFAD1C0B28C
:10597000704780B5826342630223437013000A00BC
:105980000021FFF7E1FC002002BD80B513000A00F2
:105990000021FFF7D9FC002002BD80B50300D433FD
:1059A0005A601A600323437013000A000021FFF7B6
:1059B0009EFC002002BD80B513000A000021FFF705
:1059C00096FC002002BD80B50421417000231A46D8
:1059D0001146FFF7B9FC002002BD80B505214170DA
:1059E00000231A461146FFF782FC002002BDFEE7A5
:1059F00003490A6803239A43104308607047000074
:105A00000000014070B401000C781F220123887847
:105A1000002817D00E4D20000326B0432818056833
:105A2000A407A40FE400FF26A640B5434E78B601B4
:105A3000F6B2A6402E43066008780240934005481F
:105A4000036003E0224093400348036070BC70474A
:105A500000E400E000E100E080E100E02048C168EF
:105A6000090603D51F4901601F49016070471F489F
:105A7000016880220A430260704770B50400B025B7
:105A80002D03280000F052F8042810D1174E30687A
:105A9000022101433160746030684021014331606C
:105AA000280000F043F8316802229143316070BD54
:105AB000F8B507000C00B0252D03280000F036F8DB
:105AC00004280CD10A4E30680121014331603C802A
:105AD000280000F02BF83168012291433160F2BDBB
:105AE0000420024023016745AB89EFCD102002401E
:105AF000102002400C4908607047000010B40421D7
:105B000008000122084B1C68144001D0100008E076
:105B10001A68D20601D5022003E01A68114000D0AD
:105B2000032010BC704700000C20024010B5040098
:105B3000FFF7E4FF02E0FFF7E1FF641E012801D157
:105B4000002CF8D1002C00D1052010BD3949884225
:105B500000D0704710B54C0D01212000FDF74FFE1D
:105B600000212000FDF74BFE10BDC268324B1340F0
:105B70000A681A430B795B0313438A681A43CB689C
:105B800013430A691A4349691143C16070470021F0
:105B900001600A0002718160C1600161416170476A
:105BA0000029816803D001220A43826070470222E3
:105BB0000A438260704700238362836A19438162CB
:105BC0004261704710B40100002002008B688024FD
:105BD00024061C438C608B68802424062340521CBE
:105BE000F0242402A24201D0002BF4D18A68002ABA
:105BF00000D4086C10BC7047816804220A4382609C
:105C00007047006C80B27047002A426802D011438E
:105C1000416070478A434260704702000020CB0118
:105C200003D59368054A1A4000E01268114000D07D
:105C3000012070470024014003D2FFFFFFFFFFFE59
:105C40000200002053680B401268114002D0002B64
:105C500000D00120704701607047FEE79D210200DF
:105C600008D5F446524200F005F80122D20710434D
:105C7000604700000AD002D4491E9218FCD5C9051D
:105C8000100A1206524100D3012A4841704730B42D
:105C900005004D400122D20715404B180418240E70
:105CA00030D01B0E34D0FF2C36D0FF2B3CD0E41864
:105CB0000002090210431143000A090A9446C2B2C5
:105CC0004A43000AC3B24B43000A4843110A5B1817
:105CD000190A12061B0C1A43120A091801D4491892
:105CE000641E080A7F3C23DBFE2C08DAE405090663
:105CF0001143634699416041284330BC7047FF20FF
:105D0000C005F9E728001B0EFF2BF6D1D043F4E7BE
:105D10002800FF2CF1D1F9E74002F7D1FF2B01D188
:105D20004902F3D1E005E7E7D8054902E4D0EDE701
:105D300043020020641CDFD15B129B1CDCD9D80518
:105D4000DAE7FEE70122D2070118090E7F3910D4E5
:105D500049421F310FD4001805D2C0011043C8407A
:105D600000D5D0437047C0011043C84005D440421D
:105D70007047002070470042F3D510007047FEE7DF
:105D8000084908607047084908607047074908607B
:105D90007047074803490860704706480149086092
:105DA00070470000003000400430004008300040E0
:105DB000AAAA0000CCCC00004449086070474449BE
:105DC000086070472B4901404D48016070472F49DA
:105DD0008000085880B270472C4A80001018026872
:105DE0004C4B134019430160704710B4274A8000A0
:105DF000101803682D4A1A401023194202D01400CB
:105E00001A0062402023194202D011001A004A40B1
:105E100041491143016010BC704710B41B4A800017
:105E2000101803682B4A1A4080235B01194202D0E4
:105E300014001A0062405B00194202D011001A00DF
:105E40004A4035491143016010BC70470F4980003A
:105E500008180168314A0A405349114301607047EC
:105E60000A498000081801682C4A0A407949114300
:105E700001607047F8FF00000449800008180168BD
:105E8000264A0A407449114301607047005C004093
:105E90004649800008180168490405D501681F4A71
:105EA0000A406C491143016070470000BF8F000039
:105EB0003E49800008180168490605D50168174A5F
:105EC0000A4065491143016070470000405C004092
:105ED000445C00408FBF0000094A126892B2C000C3
:105EE00010185E4A6A4B0B4083527047044A12688E
:105EF00092B2C00010185B4A654B0B40835270474A
:105F0000505C0040564A126892B2C0001018614AB4
:105F1000815270478F890000808000008F8F0000C1
:105F20004F4A126892B2C0001018704A80183F2978
:105F30000ADB0A005209C90600D1521E91028022D2
:105F400012020A43028070470A005208C90700D5AE
:105F5000521C91020180704700004149096889B2D2
:105F6000C00008186849405A8005800D70473C49B8
:105F7000096889B2C00008186449405A8005800D3C
:105F8000704770B4C000424B354C19402568ADB223
:105F90002D18324EA9531340216889B2081831498F
:105FA000435270BC7047000080810000005C0040DC
:105FB00030B400291BD12A4B1B689BB2C4001B19AB
:105FC000344C1B193F2A0ADB14006409D50600D1A2
:105FD000641EA40280252D0225431D8010E01400BC
:105FE0006408D50700D5641CA4021C8008E00129C0
:105FF00006D11B4B1B689BB2C4001B19254C1A53BE
:1060000000291BD11649096889B2C00008183F4908
:1060100040183F2A0ADB11004909D20600D1491E67
:106020008902802212020A43028010E0110049080E
:10603000D20700D5491C8902018008E0012906D158
:106040000749096889B2C00008183049425230BC7B
:106050007047000080C00000C08000000060004069
:10606000505C0040046000402949096889B2C000C2
:1060700008182549405A8005800D70472449096851
:1060800089B2C00008182149405A8005800D704728
:10609000FEFF000002600040002909D11D49800078
:1060A000081801681C4A0A401C49114301607047E6
:1060B000012908D11749800008180168164A0A40CA
:1060C000174911430160704710B4164BC918521C90
:1060D000521008E00378401C047824021C430C8012
:1060E000891C401C521EF5D110BC70470660004050
:1060F0000C4BC918521C521004E00B880380891CF9
:10610000801C521EF9D170470260004006600040BA
:10611000505C0040005C00408F8F0000C080000099
:1061200080C0000000600040FEB500206946088085
:1061300014E080B29A49014031609A4C250018352C
:106140002878FFF70AFFA8612869A9694018286123
:1061500000212000C74A126852689047924E706C26
:1061600069464880F70B384200D117E168464088FD
:106170000007000F029061D168464088C006306871
:10618000D7D5088068460088000516D5854C2500BF
:10619000B8352878FFF7EBFEA8610246A9882000F1
:1061A0001030FFF7A5FF3068B3490140316020008F
:1061B000B049096889688847D0E76846008838424E
:1061C000CCD03068AC4901403160764C2500B83500
:1061D0002878FFF7CCFEA8610246002A07D0A988DC
:1061E0002869FFF785FF2869A969401828610021FF
:1061F0002000A04A126812689047306D80B29F4913
:106200004018E9683F2908D30A005209C90600D19D
:10621000521E91020F43078006E00A005208C90788
:1062200000D5521C91020180316895480840C02178
:10623000890141409348084330608FE7800030185F
:1062400001900198006808806846008838424FD065
:10625000019800688849014001980160514C0298FA
:1062600081000818C0002518B8352878A97A0029B7
:1062700009D1FFF77CFE060021D03200A9882869E9
:10628000FFF736FF1BE0FFF7A2FD4004287809D591
:10629000FFF7EAFE06000ED03200E9882869FFF712
:1062A00027FF08E0FFF7EAFE060004D03200298944
:1062B0002869FFF71DFF00212878FFF7EDFEA86988
:1062C0008019A861296930000A182A616B69002BBE
:1062D00002D0E868864206D229782000654A126812
:1062E0001268904704E09BB229782000FEF7FFFF78
:1062F00068460088000600D430E72A4C02988100E6
:106300000818C000251818350198006880B2244983
:106310000140019801602878A97A00290AD1FFF785
:106320001CFEA8610246002A22D0A9882869FFF72E
:10633000CBFE1DE0FFF74BFD400628780AD5FFF79E
:1063400093FEA8610246002A0ED0E9882869FFF76B
:10635000BBFE09E0FFF792FEA8610246002A03D0C7
:1063600029892869FFF7B0FE01212878FFF794FEFC
:106370002878FFF7F2FDA8612869A96942182A6107
:106380006B692978002B05D120003A4A12685268BF
:106390009047E3E62000FEF7D7FFDFE6F7BD0000F9
:1063A0000F8F0000F80F0020005C004070B582B035
:1063B000002069460880344C20680880334D6846C8
:1063C000008829680140080401D5FFF7ADFE684642
:1063D00000882968014048050BD52D4820602D4EC6
:1063E0003000244909680969884700213000FFF717
:1063F0004AF86846008829680140880401D5264883
:1064000020606846008829680140C80409D52348EF
:10641000206020481749096889698847002000F0F2
:106420005BF86846008829680140080508D51C48C3
:10643000206018480F4909684969884700F036F814
:106440006846008829680140880506D515482060FF
:10645000104808490968C96888476846008829685B
:106460000140C80504D510482060072000F034F82A
:1064700073BD0000E40F00208F0F00000660004095
:106480008FBF000080800000445C00404824002052
:10649000FFFB0000F80F0020FFDF0000FFEF00000F
:1064A000FFF70000FFFD0000FFFE0000314801681B
:1064B00008220A4392B20260016804220A4392B29F
:1064C000026070472B4801682B4A0A400260BF21D6
:1064D000090201607047000010B5284C072800D061
:1064E00020702078052841D801A1095C8F4400BFA5
:1064F000061C2A34465C6068002804D1FFF7E2FFDE
:106500000620207010BD0520207010BDFFF7DAFFB7
:10651000042020700120606010BD02206070032004
:10652000207010BD6078401E6070607800281FD118
:106530000420207010BD0F48016810220A4392B257
:106540000260052020700A20607010BD6078401E37
:106550006070607800280BD106480168084A0A403C
:106560000260062020700020606010BD06202070B0
:1065700010BD0000405C0040FBFF000040240020F4
:10658000EFFF00007047FEE77047704780B53E4858
:106590000168491C0160FCF7EEFE01BD10B53A48E8
:1065A0004168491C4160394C04212000FFF748FB39
:1065B000002805D004212000FFF74DFBFDF7E9FD81
:1065C00010BD38B530488168491C8160304D314C70
:1065D00021002800FEF71EFA002806D0210028001E
:1065E000FEF73AFA0020FCF751FB31BD38B52648DA
:1065F000C168491CC160284D264C21002800FEF7C7
:1066000009FA002806D021002800FEF725FA01200B
:10661000FCF73CFB31BD38B51B480169491C0161E1
:106620001E4D1C4C21002800FEF7F4F9002806D06E
:1066300021002800FEF710FA0220FCF727FB31BDED
:1066400010B586B010484169491C4161144C0421C1
:106650002000FEF7C0FB00280BD004212000FEF72D
:106660003AFC6A4600212000FEF76EFB6846FCF704
:1066700022FC06B010BD80B503488169491C8161C8
:10668000FFF794FE01BD0000042400200024014017
:10669000003801400501050000440040004800406A
:1066A0000064004080B5802000F010F800280BD076
:1066B00080219020C005FDF753FE012801D1FEF78F
:1066C00006F9802000F00AF801BDFEE70100002075
:1066D000044A1268114000D0012070470149086047
:1066E000704700001404014080B53748016801225A
:1066F0000A4302604168354A0A4042600168344AF0
:106700000A4002600168334A0A4002604168324A26
:106710000A404260C16A0F229143C162016B2F4A55
:106720000A400263416B0122914341630021816071
:1067300000F001F801BD82B00020019000902248D5
:10674000016801220A43026001688022920211401E
:1067500000910199491C01910099002904D10199E6
:10676000A022D2019142EFD1016849080A00D20764
:10677000D20F00920099012924D11121184A1160E9
:1067800041684160416841604168164A0A40426080
:106790004168A02292030A434260016880225204A9
:1067A0000A43026001688901FCD5416803229143D4
:1067B0004160416802220A43426041680C220A405B
:1067C000082AFAD102B07047001002400CB8FF0846
:1067D000FFFFF6FEFFFFFBFFFFFFC0FFACFEFFFF6A
:1067E00000200240FFFFC3FF816807E002681168D4
:1067F00051185368CB18C36008320260C2689142D6
:10680000F4D04A1C826008787047F0B587B0010068
:106810000831029102685208D200891803910025BC
:106820000495059501684908C90044180834406872
:106830006946C307DB0F4B704008C0002018019069
:10684000002735E002A8FFF7CFFF46B20AE0029822
:106850000168401804900299496840180590029810
:1068600008300290049805998842F0D0411C0491A8
:10687000007869460870BD4210D10198844201D168
:1068800000F01EF8256868464078002801D0484688
:106890002D1860682F180834BD42EED06846007885
:1068A00028706D1C002E08D5761CE4D1BD42C9D1DC
:1068B00001988442C6D107B0F0BD761ED2D5F5E767
:1068C00080B5012000F002F801BDFEE780B5C046AA
:1068D000C046024A11001820ABBEFBE726000200AA
:1068E00080B5FDF7DDF8FBF7F3FDFCF73CFDFDF7A8
:1068F00046FCFCF709F8FBF726F901BD80B5FBF76C
:1069000077F9FDF761FCFBF77AFCFCF753FCFBF72A
:10691000E1FEFAF7D9FF01BD10B5FFF7E1FFFFF780
:10692000EDFF0C4C2000001DFCF781FEFEF79AF8ED
:106930002068401C2060FEF7A9F8FBF77DFCFEF7FD
:10694000A5F8FCF73CFCFBF7DCFEFEF79FF8FAF736
:10695000D4FFEDE770230020094880F30888042065
:106960000168090E1F22914205D1064801210160EC
:1069700005480021016005488047054800470000A0
:10698000582800201810024000000140E966000865
:106990001B6A000810B5074979441831064C7C443D
:1069A000163404E0081D0A68891888470100A142CE
:1069B000F8D110BD0800000030000000BBD0FFFF80
:1069C00070140000E80F0020000000003FFEFFFFF1
:1069D00002000000020000006C0000001501000031
:1069E000C0000020280F000000F00BF8002801D0A4
:1069F000FFF7D0FF0020C046C046FFF78DFF00F034
:106A000002F80120704780B500F002F801BDFEE7F2
:106A100007463846FFF75AFFFBE7C046C046C04668
:106A2000C046FFF7E1FFFEE7FEE7FEE7FEE7FEE711
:106A3000FEE7FEE7FEE7FEE7FEE7FEE7FEE7FEE72E
:106A4000FEE7FEE7EC000005FD000005FD00000587
:106A5000810081008100810081008100810081002E
:106A60008100810081008100A10004E8030000C8CA
:106A7000FD0009E8030000E8030000E8038100814D
:106A8000008100810081008100810081008100C3BC
:106A900000000281008100810081008100960001D8
:106AA000E803EE00034B006801F8000032FD00002F
:106AB00064FD000220BF02F7000B413B0008A53B2C
:106AC0000008C93B0008FC004D8B3C0008A93C00B5
:106AD00008FB3C0008273D0008813D0008D3380032
